{
	"Segments.sol": {
		"segments": {
			"abi": [
				{
					"inputs": [
						{
							"internalType": "uint256",
							"name": "value",
							"type": "uint256"
						},
						{
							"internalType": "uint256[3]",
							"name": "rgbs",
							"type": "uint256[3]"
						}
					],
					"name": "renderSvg",
					"outputs": [
						{
							"internalType": "string",
							"name": "svg",
							"type": "string"
						}
					],
					"stateMutability": "pure",
					"type": "function"
				}
			],
			"devdoc": {
				"kind": "dev",
				"methods": {},
				"version": 1
			},
			"evm": {
				"assembly": "    /* \"Segments.sol\":1215:13457  library segments {... */\n  dataSize(sub_0)\n  dataOffset(sub_0)\n  0x0b\n  dup3\n  dup3\n  dup3\n  codecopy\n  dup1\n  mload\n  0x00\n  byte\n  0x73\n  eq\n  tag_1\n  jumpi\n  mstore(0x00, 0x4e487b7100000000000000000000000000000000000000000000000000000000)\n  mstore(0x04, 0x00)\n  revert(0x00, 0x24)\ntag_1:\n  mstore(0x00, address)\n  0x73\n  dup2\n  mstore8\n  dup3\n  dup2\n  return\nstop\n\nsub_0: assembly {\n        /* \"Segments.sol\":1215:13457  library segments {... */\n      eq(address, deployTimeAddress())\n      mstore(0x40, 0x80)\n      jumpi(tag_1, lt(calldatasize, 0x04))\n      shr(0xe0, calldataload(0x00))\n      dup1\n      0x15468029\n      eq\n      tag_2\n      jumpi\n    tag_1:\n      0x00\n      dup1\n      revert\n        /* \"Segments.sol\":8226:13455  function renderSvg(... */\n    tag_2:\n      tag_3\n      0x04\n      dup1\n      calldatasize\n      sub\n      dup2\n      add\n      swap1\n      tag_4\n      swap2\n      swap1\n      tag_5\n      jump\t// in\n    tag_4:\n      tag_6\n      jump\t// in\n    tag_3:\n      mload(0x40)\n      tag_7\n      swap2\n      swap1\n      tag_8\n      jump\t// in\n    tag_7:\n      mload(0x40)\n      dup1\n      swap2\n      sub\n      swap1\n      return\n    tag_6:\n        /* \"Segments.sol\":8324:8341  string memory svg */\n      0x60\n        /* \"Segments.sol\":8353:11458  svg = '<svg viewBox=\"0 0 300 300\" fill=\"none\" xmlns=\"http://www.w3.org/2000/svg\"><rect id=\"bg\" width=\"300\" height=\"300\" fill=\"#0C0C0C\"/><path id=\"p01\" d=\"M100 119L103 122L100 125L80 125L77 122L80 119L100 119Z\" fill=\"white\" fill-opacity=\"0.05\"/><path id=\"p02\" d=\"M73 126L76 123L79 126V146L76 149L73 146V126Z\" fill=\"white\" fill-opacity=\"0.05\"/><path id=\"p03\" d=\"M101 126L104 123L107 126V146L104 149L101 146V126Z\" fill=\"white\" fill-opacity=\"0.05\"/><path id=\"p04\" d=\"M100 147L103 150L100 153L80 153L77 150L80 147L100 147Z\" fill=\"white\" fill-opacity=\"0.05\"/><path id=\"p05\" d=\"M73 154L76 151L79 154V174L76 177L73 174V154Z\" fill=\"white\" fill-opacity=\"0.05\"/><path id=\"p06\" d=\"M101 154L104 151L107 154V174L104 177L101 174V154Z\" fill=\"white\" fill-opacity=\"0.05\"/><path id=\"p07\" d=\"M100 175L103 178L100 181L80 181L77 178L80 175L100 175Z\" fill=\"white\" fill-opacity=\"0.05\"/><path id=\"p11\" d=\"M140 119L143 122L140 125L120 125L117 122L120 119L140 119Z\" fill=\"white\" fill-opacity=\"0.05\"/><path id=\"p12\" d=\"M113 126L116 123L119 126V146L116 149L113 146V126Z\" fill=\"white\" fill-opacity=\"0.05\"/><path id=\"p13\" d=\"M141 126L144 123L147 126V146L144 149L141 146V126Z\" fill=\"white\" fill-opacity=\"0.05\"/><path id=\"p14\" d=\"M140 147L143 150L140 153L120 153L117 150L120 147L140 147Z\" fill=\"white\" fill-opacity=\"0.05\"/><path id=\"p15\" d=\"M113 154L116 151L119 154V174L116 177L113 174V154Z\" fill=\"white\" fill-opacity=\"0.05\"/><path id=\"p16\" d=\"M141 154L144 151L147 154V174L144 177L141 174V154Z\" fill=\"white\" fill-opacity=\"0.05\"/><path id=\"p17\" d=\"M140 175L143 178L140 181L120 181L117 178L120 175L140 175Z\" fill=\"white\" fill-opacity=\"0.05\"/><path id=\"p21\" d=\"M180 119L183 122L180 125L160 125L157 122L160 119L180 119Z\" fill=\"white\" fill-opacity=\"0.05\"/><path id=\"p22\" d=\"M153 126L156 123L159 126V146L156 149L153 146V126Z\" fill=\"white\" fill-opacity=\"0.05\"/><path id=\"p23\" d=\"M181 126L184 123L187 126V146L184 149L181 146V126Z\" fill=\"white\" fill-opacity=\"0.05\"/><path id=\"p24\" d=\"M180 147L183 150L180 153L160 153L157 150L160 147L180 147Z\" fill=\"white\" fill-opacity=\"0.05\"/><path id=\"p25\" d=\"M153 154L156 151L159 154V174L156 177L153 174V154Z\" fill=\"white\" fill-opacity=\"0.05\"/><path id=\"p26\" d=\"M181 154L184 151L187 154V174L184 177L181 174V154Z\" fill=\"white\" fill-opacity=\"0.05\"/><path id=\"p27\" d=\"M180 175L183 178L180 181L160 181L157 178L160 175L180 175Z\" fill=\"white\" fill-opacity=\"0.05\"/><path id=\"p31\" d=\"M220 119L223 122L220 125L200 125L197 122L200 119L220 119Z\" fill=\"white\" fill-opacity=\"0.05\"/><path id=\"p32\" d=\"M193 126L196 123L199 126V146L196 149L193 146V126Z\" fill=\"white\" fill-opacity=\"0.05\"/><path id=\"p33\" d=\"M221 126L224 123L227 126V146L224 149L221 146V126Z\" fill=\"white\" fill-opacity=\"0.05\"/><path id=\"p34\" d=\"M220 147L223 150L220 153L200 153L197 150L200 147L220 147Z\" fill=\"white\" fill-opacity=\"0.05\"/><path id=\"p35\" d=\"M193 154L196 151L199 154V174L196 177L193 174V154Z\" fill=\"white\" fill-opacity=\"0.05\"/><path id=\"p36\" d=\"M221 154L224 151L227 154V174L224 177L221 174V154Z\" fill=\"white\" fill-opacity=\"0.05\"/><path id=\"p37\" d=\"M220 175L223 178L220 181L200 181L197 178L200 175L220 175Z\" fill=\"white\" fill-opacity=\"0.05\"/><style>' */\n      mload(0x40)\n      dup1\n      0x0c40\n      add\n      0x40\n      mstore\n      dup1\n      0x0c19\n      dup2\n      mstore\n      0x20\n      add\n      data_cf67d41fd6dccc42ff330b2991c1584bfc9bd3f923b6d29c3bf5ec28a290b2f6\n      0x0c19\n      swap2\n      codecopy\n      swap1\n      pop\n        /* \"Segments.sol\":11469:11489  string memory styles */\n      0x00\n        /* \"Segments.sol\":11577:11600  utils.uint2str(rgbs[0]) */\n      tag_10\n        /* \"Segments.sol\":11592:11596  rgbs */\n      dup4\n        /* \"Segments.sol\":11597:11598  0 */\n      0x00\n        /* \"Segments.sol\":11592:11599  rgbs[0] */\n      0x03\n      dup2\n      lt\n      tag_11\n      jumpi\n      tag_12\n      tag_13\n      jump\t// in\n    tag_12:\n    tag_11:\n      0x20\n      mul\n      add\n      mload\n        /* \"Segments.sol\":11577:11591  utils.uint2str */\n      tag_14\n        /* \"Segments.sol\":11577:11600  utils.uint2str(rgbs[0]) */\n      jump\t// in\n    tag_10:\n        /* \"Segments.sol\":11639:11662  utils.uint2str(rgbs[1]) */\n      tag_15\n        /* \"Segments.sol\":11654:11658  rgbs */\n      dup5\n        /* \"Segments.sol\":11659:11660  1 */\n      0x01\n        /* \"Segments.sol\":11654:11661  rgbs[1] */\n      0x03\n      dup2\n      lt\n      tag_16\n      jumpi\n      tag_17\n      tag_13\n      jump\t// in\n    tag_17:\n    tag_16:\n      0x20\n      mul\n      add\n      mload\n        /* \"Segments.sol\":11639:11653  utils.uint2str */\n      tag_14\n        /* \"Segments.sol\":11639:11662  utils.uint2str(rgbs[1]) */\n      jump\t// in\n    tag_15:\n        /* \"Segments.sol\":11701:11724  utils.uint2str(rgbs[2]) */\n      tag_18\n        /* \"Segments.sol\":11716:11720  rgbs */\n      dup6\n        /* \"Segments.sol\":11721:11722  2 */\n      0x02\n        /* \"Segments.sol\":11716:11723  rgbs[2] */\n      0x03\n      dup2\n      lt\n      tag_19\n      jumpi\n      tag_20\n      tag_13\n      jump\t// in\n    tag_20:\n    tag_19:\n      0x20\n      mul\n      add\n      mload\n        /* \"Segments.sol\":11701:11715  utils.uint2str */\n      tag_14\n        /* \"Segments.sol\":11701:11724  utils.uint2str(rgbs[2]) */\n      jump\t// in\n    tag_18:\n        /* \"Segments.sol\":11512:11777  abi.encodePacked(... */\n      add(0x20, mload(0x40))\n      tag_21\n      swap4\n      swap3\n      swap2\n      swap1\n      tag_22\n      jump\t// in\n    tag_21:\n      mload(0x40)\n      0x20\n      dup2\n      dup4\n      sub\n      sub\n      dup2\n      mstore\n      swap1\n      0x40\n      mstore\n        /* \"Segments.sol\":11469:11787  string memory styles = string(... */\n      swap1\n      pop\n        /* \"Segments.sol\":11811:11812  0 */\n      0x00\n        /* \"Segments.sol\":11802:11807  value */\n      dup5\n        /* \"Segments.sol\":11802:11812  value == 0 */\n      sub\n        /* \"Segments.sol\":11798:13377  if (value == 0) {} else {... */\n      iszero\n      tag_24\n      jumpi\n        /* \"Segments.sol\":11836:11847  uint length */\n      0x00\n        /* \"Segments.sol\":11856:11877  utils.uint2str(value) */\n      tag_25\n        /* \"Segments.sol\":11871:11876  value */\n      dup6\n        /* \"Segments.sol\":11856:11870  utils.uint2str */\n      tag_14\n        /* \"Segments.sol\":11856:11877  utils.uint2str(value) */\n      jump\t// in\n    tag_25:\n        /* \"Segments.sol\":11850:11885  bytes(utils.uint2str(value)).length */\n      mload\n        /* \"Segments.sol\":11836:11885  uint length = bytes(utils.uint2str(value)).length */\n      swap1\n      pop\n        /* \"Segments.sol\":11899:11919  Number memory number */\n      0x00\n        /* \"Segments.sol\":11922:11947  getNumbers(value, length) */\n      tag_26\n        /* \"Segments.sol\":11933:11938  value */\n      dup7\n        /* \"Segments.sol\":11940:11946  length */\n      dup4\n        /* \"Segments.sol\":11922:11932  getNumbers */\n      tag_27\n        /* \"Segments.sol\":11922:11947  getNumbers(value, length) */\n      jump\t// in\n    tag_26:\n        /* \"Segments.sol\":11899:11947  Number memory number = getNumbers(value, length) */\n      swap1\n      pop\n        /* \"Segments.sol\":11975:11976  1 */\n      0x01\n        /* \"Segments.sol\":11965:11971  length */\n      dup3\n        /* \"Segments.sol\":11965:11976  length == 1 */\n      sub\n        /* \"Segments.sol\":11961:13367  if (length == 1) {... */\n      tag_28\n      jumpi\n        /* \"Segments.sol\":12050:12056  styles */\n      dup3\n        /* \"Segments.sol\":12058:12085  getNumberStyle(3, number.d) */\n      tag_29\n        /* \"Segments.sol\":12073:12074  3 */\n      0x03\n        /* \"Segments.sol\":12076:12082  number */\n      dup4\n        /* \"Segments.sol\":12076:12084  number.d */\n      0x60\n      add\n      mload\n        /* \"Segments.sol\":12058:12072  getNumberStyle */\n      tag_30\n        /* \"Segments.sol\":12058:12085  getNumberStyle(3, number.d) */\n      jump\t// in\n    tag_29:\n        /* \"Segments.sol\":12033:12086  abi.encodePacked(styles, getNumberStyle(3, number.d)) */\n      add(0x20, mload(0x40))\n      tag_31\n      swap3\n      swap2\n      swap1\n      tag_32\n      jump\t// in\n    tag_31:\n      mload(0x40)\n      0x20\n      dup2\n      dup4\n      sub\n      sub\n      dup2\n      mstore\n      swap1\n      0x40\n      mstore\n        /* \"Segments.sol\":11996:12104  styles = string(... */\n      swap3\n      pop\n        /* \"Segments.sol\":11961:13367  if (length == 1) {... */\n      jump(tag_33)\n    tag_28:\n        /* \"Segments.sol\":12139:12140  2 */\n      0x02\n        /* \"Segments.sol\":12129:12135  length */\n      dup3\n        /* \"Segments.sol\":12129:12140  length == 2 */\n      sub\n        /* \"Segments.sol\":12125:13367  if (length == 2) {... */\n      tag_34\n      jumpi\n        /* \"Segments.sol\":12214:12220  styles */\n      dup3\n        /* \"Segments.sol\":12222:12249  getNumberStyle(2, number.c) */\n      tag_35\n        /* \"Segments.sol\":12237:12238  2 */\n      0x02\n        /* \"Segments.sol\":12240:12246  number */\n      dup4\n        /* \"Segments.sol\":12240:12248  number.c */\n      0x40\n      add\n      mload\n        /* \"Segments.sol\":12222:12236  getNumberStyle */\n      tag_30\n        /* \"Segments.sol\":12222:12249  getNumberStyle(2, number.c) */\n      jump\t// in\n    tag_35:\n        /* \"Segments.sol\":12197:12250  abi.encodePacked(styles, getNumberStyle(2, number.c)) */\n      add(0x20, mload(0x40))\n      tag_36\n      swap3\n      swap2\n      swap1\n      tag_32\n      jump\t// in\n    tag_36:\n      mload(0x40)\n      0x20\n      dup2\n      dup4\n      sub\n      sub\n      dup2\n      mstore\n      swap1\n      0x40\n      mstore\n        /* \"Segments.sol\":12160:12268  styles = string(... */\n      swap3\n      pop\n        /* \"Segments.sol\":12340:12346  styles */\n      dup3\n        /* \"Segments.sol\":12348:12375  getNumberStyle(3, number.d) */\n      tag_37\n        /* \"Segments.sol\":12363:12364  3 */\n      0x03\n        /* \"Segments.sol\":12366:12372  number */\n      dup4\n        /* \"Segments.sol\":12366:12374  number.d */\n      0x60\n      add\n      mload\n        /* \"Segments.sol\":12348:12362  getNumberStyle */\n      tag_30\n        /* \"Segments.sol\":12348:12375  getNumberStyle(3, number.d) */\n      jump\t// in\n    tag_37:\n        /* \"Segments.sol\":12323:12376  abi.encodePacked(styles, getNumberStyle(3, number.d)) */\n      add(0x20, mload(0x40))\n      tag_38\n      swap3\n      swap2\n      swap1\n      tag_32\n      jump\t// in\n    tag_38:\n      mload(0x40)\n      0x20\n      dup2\n      dup4\n      sub\n      sub\n      dup2\n      mstore\n      swap1\n      0x40\n      mstore\n        /* \"Segments.sol\":12286:12394  styles = string(... */\n      swap3\n      pop\n        /* \"Segments.sol\":12125:13367  if (length == 2) {... */\n      jump(tag_39)\n    tag_34:\n        /* \"Segments.sol\":12429:12430  3 */\n      0x03\n        /* \"Segments.sol\":12419:12425  length */\n      dup3\n        /* \"Segments.sol\":12419:12430  length == 3 */\n      sub\n        /* \"Segments.sol\":12415:13367  if (length == 3) {... */\n      tag_40\n      jumpi\n        /* \"Segments.sol\":12504:12510  styles */\n      dup3\n        /* \"Segments.sol\":12512:12539  getNumberStyle(1, number.b) */\n      tag_41\n        /* \"Segments.sol\":12527:12528  1 */\n      0x01\n        /* \"Segments.sol\":12530:12536  number */\n      dup4\n        /* \"Segments.sol\":12530:12538  number.b */\n      0x20\n      add\n      mload\n        /* \"Segments.sol\":12512:12526  getNumberStyle */\n      tag_30\n        /* \"Segments.sol\":12512:12539  getNumberStyle(1, number.b) */\n      jump\t// in\n    tag_41:\n        /* \"Segments.sol\":12487:12540  abi.encodePacked(styles, getNumberStyle(1, number.b)) */\n      add(0x20, mload(0x40))\n      tag_42\n      swap3\n      swap2\n      swap1\n      tag_32\n      jump\t// in\n    tag_42:\n      mload(0x40)\n      0x20\n      dup2\n      dup4\n      sub\n      sub\n      dup2\n      mstore\n      swap1\n      0x40\n      mstore\n        /* \"Segments.sol\":12450:12558  styles = string(... */\n      swap3\n      pop\n        /* \"Segments.sol\":12630:12636  styles */\n      dup3\n        /* \"Segments.sol\":12638:12665  getNumberStyle(2, number.c) */\n      tag_43\n        /* \"Segments.sol\":12653:12654  2 */\n      0x02\n        /* \"Segments.sol\":12656:12662  number */\n      dup4\n        /* \"Segments.sol\":12656:12664  number.c */\n      0x40\n      add\n      mload\n        /* \"Segments.sol\":12638:12652  getNumberStyle */\n      tag_30\n        /* \"Segments.sol\":12638:12665  getNumberStyle(2, number.c) */\n      jump\t// in\n    tag_43:\n        /* \"Segments.sol\":12613:12666  abi.encodePacked(styles, getNumberStyle(2, number.c)) */\n      add(0x20, mload(0x40))\n      tag_44\n      swap3\n      swap2\n      swap1\n      tag_32\n      jump\t// in\n    tag_44:\n      mload(0x40)\n      0x20\n      dup2\n      dup4\n      sub\n      sub\n      dup2\n      mstore\n      swap1\n      0x40\n      mstore\n        /* \"Segments.sol\":12576:12684  styles = string(... */\n      swap3\n      pop\n        /* \"Segments.sol\":12756:12762  styles */\n      dup3\n        /* \"Segments.sol\":12764:12791  getNumberStyle(3, number.d) */\n      tag_45\n        /* \"Segments.sol\":12779:12780  3 */\n      0x03\n        /* \"Segments.sol\":12782:12788  number */\n      dup4\n        /* \"Segments.sol\":12782:12790  number.d */\n      0x60\n      add\n      mload\n        /* \"Segments.sol\":12764:12778  getNumberStyle */\n      tag_30\n        /* \"Segments.sol\":12764:12791  getNumberStyle(3, number.d) */\n      jump\t// in\n    tag_45:\n        /* \"Segments.sol\":12739:12792  abi.encodePacked(styles, getNumberStyle(3, number.d)) */\n      add(0x20, mload(0x40))\n      tag_46\n      swap3\n      swap2\n      swap1\n      tag_32\n      jump\t// in\n    tag_46:\n      mload(0x40)\n      0x20\n      dup2\n      dup4\n      sub\n      sub\n      dup2\n      mstore\n      swap1\n      0x40\n      mstore\n        /* \"Segments.sol\":12702:12810  styles = string(... */\n      swap3\n      pop\n        /* \"Segments.sol\":12415:13367  if (length == 3) {... */\n      jump(tag_47)\n    tag_40:\n        /* \"Segments.sol\":12845:12846  4 */\n      0x04\n        /* \"Segments.sol\":12835:12841  length */\n      dup3\n        /* \"Segments.sol\":12835:12846  length == 4 */\n      sub\n        /* \"Segments.sol\":12831:13367  if (length == 4) {... */\n      tag_48\n      jumpi\n        /* \"Segments.sol\":12920:12926  styles */\n      dup3\n        /* \"Segments.sol\":12928:12955  getNumberStyle(0, number.a) */\n      tag_49\n        /* \"Segments.sol\":12943:12944  0 */\n      0x00\n        /* \"Segments.sol\":12946:12952  number */\n      dup4\n        /* \"Segments.sol\":12946:12954  number.a */\n      0x00\n      add\n      mload\n        /* \"Segments.sol\":12928:12942  getNumberStyle */\n      tag_30\n        /* \"Segments.sol\":12928:12955  getNumberStyle(0, number.a) */\n      jump\t// in\n    tag_49:\n        /* \"Segments.sol\":12903:12956  abi.encodePacked(styles, getNumberStyle(0, number.a)) */\n      add(0x20, mload(0x40))\n      tag_50\n      swap3\n      swap2\n      swap1\n      tag_32\n      jump\t// in\n    tag_50:\n      mload(0x40)\n      0x20\n      dup2\n      dup4\n      sub\n      sub\n      dup2\n      mstore\n      swap1\n      0x40\n      mstore\n        /* \"Segments.sol\":12866:12974  styles = string(... */\n      swap3\n      pop\n        /* \"Segments.sol\":13046:13052  styles */\n      dup3\n        /* \"Segments.sol\":13054:13081  getNumberStyle(1, number.b) */\n      tag_51\n        /* \"Segments.sol\":13069:13070  1 */\n      0x01\n        /* \"Segments.sol\":13072:13078  number */\n      dup4\n        /* \"Segments.sol\":13072:13080  number.b */\n      0x20\n      add\n      mload\n        /* \"Segments.sol\":13054:13068  getNumberStyle */\n      tag_30\n        /* \"Segments.sol\":13054:13081  getNumberStyle(1, number.b) */\n      jump\t// in\n    tag_51:\n        /* \"Segments.sol\":13029:13082  abi.encodePacked(styles, getNumberStyle(1, number.b)) */\n      add(0x20, mload(0x40))\n      tag_52\n      swap3\n      swap2\n      swap1\n      tag_32\n      jump\t// in\n    tag_52:\n      mload(0x40)\n      0x20\n      dup2\n      dup4\n      sub\n      sub\n      dup2\n      mstore\n      swap1\n      0x40\n      mstore\n        /* \"Segments.sol\":12992:13100  styles = string(... */\n      swap3\n      pop\n        /* \"Segments.sol\":13172:13178  styles */\n      dup3\n        /* \"Segments.sol\":13180:13207  getNumberStyle(2, number.c) */\n      tag_53\n        /* \"Segments.sol\":13195:13196  2 */\n      0x02\n        /* \"Segments.sol\":13198:13204  number */\n      dup4\n        /* \"Segments.sol\":13198:13206  number.c */\n      0x40\n      add\n      mload\n        /* \"Segments.sol\":13180:13194  getNumberStyle */\n      tag_30\n        /* \"Segments.sol\":13180:13207  getNumberStyle(2, number.c) */\n      jump\t// in\n    tag_53:\n        /* \"Segments.sol\":13155:13208  abi.encodePacked(styles, getNumberStyle(2, number.c)) */\n      add(0x20, mload(0x40))\n      tag_54\n      swap3\n      swap2\n      swap1\n      tag_32\n      jump\t// in\n    tag_54:\n      mload(0x40)\n      0x20\n      dup2\n      dup4\n      sub\n      sub\n      dup2\n      mstore\n      swap1\n      0x40\n      mstore\n        /* \"Segments.sol\":13118:13226  styles = string(... */\n      swap3\n      pop\n        /* \"Segments.sol\":13298:13304  styles */\n      dup3\n        /* \"Segments.sol\":13306:13333  getNumberStyle(3, number.d) */\n      tag_55\n        /* \"Segments.sol\":13321:13322  3 */\n      0x03\n        /* \"Segments.sol\":13324:13330  number */\n      dup4\n        /* \"Segments.sol\":13324:13332  number.d */\n      0x60\n      add\n      mload\n        /* \"Segments.sol\":13306:13320  getNumberStyle */\n      tag_30\n        /* \"Segments.sol\":13306:13333  getNumberStyle(3, number.d) */\n      jump\t// in\n    tag_55:\n        /* \"Segments.sol\":13281:13334  abi.encodePacked(styles, getNumberStyle(3, number.d)) */\n      add(0x20, mload(0x40))\n      tag_56\n      swap3\n      swap2\n      swap1\n      tag_32\n      jump\t// in\n    tag_56:\n      mload(0x40)\n      0x20\n      dup2\n      dup4\n      sub\n      sub\n      dup2\n      mstore\n      swap1\n      0x40\n      mstore\n        /* \"Segments.sol\":13244:13352  styles = string(... */\n      swap3\n      pop\n        /* \"Segments.sol\":12831:13367  if (length == 4) {... */\n    tag_48:\n        /* \"Segments.sol\":12415:13367  if (length == 3) {... */\n    tag_47:\n        /* \"Segments.sol\":12125:13367  if (length == 2) {... */\n    tag_39:\n        /* \"Segments.sol\":11961:13367  if (length == 1) {... */\n    tag_33:\n        /* \"Segments.sol\":11822:13377  {... */\n      pop\n      pop\n        /* \"Segments.sol\":11798:13377  if (value == 0) {} else {... */\n    tag_24:\n        /* \"Segments.sol\":13417:13420  svg */\n      dup2\n        /* \"Segments.sol\":13422:13428  styles */\n      dup2\n        /* \"Segments.sol\":13400:13447  abi.encodePacked(svg, styles, \"</style></svg>\") */\n      add(0x20, mload(0x40))\n      tag_57\n      swap3\n      swap2\n      swap1\n      tag_58\n      jump\t// in\n    tag_57:\n      mload(0x40)\n      0x20\n      dup2\n      dup4\n      sub\n      sub\n      dup2\n      mstore\n      swap1\n      0x40\n      mstore\n        /* \"Segments.sol\":13386:13448  return string(abi.encodePacked(svg, styles, \"</style></svg>\")) */\n      swap2\n      pop\n      pop\n        /* \"Segments.sol\":8226:13455  function renderSvg(... */\n      swap3\n      swap2\n      pop\n      pop\n      jump\t// out\n        /* \"Utilities.sol\":1208:1779  function uint2str(... */\n    tag_14:\n        /* \"Utilities.sol\":1272:1299  string memory _uintAsString */\n      0x60\n        /* \"Utilities.sol\":1321:1322  0 */\n      0x00\n        /* \"Utilities.sol\":1315:1317  _i */\n      dup3\n        /* \"Utilities.sol\":1315:1322  _i == 0 */\n      sub\n        /* \"Utilities.sol\":1311:1359  if (_i == 0) {... */\n      tag_60\n      jumpi\n        /* \"Utilities.sol\":1338:1348  return \"0\" */\n      mload(0x40)\n      dup1\n      0x40\n      add\n      0x40\n      mstore\n      dup1\n      0x01\n      dup2\n      mstore\n      0x20\n      add\n      0x3000000000000000000000000000000000000000000000000000000000000000\n      dup2\n      mstore\n      pop\n      swap1\n      pop\n      jump(tag_59)\n        /* \"Utilities.sol\":1311:1359  if (_i == 0) {... */\n    tag_60:\n        /* \"Utilities.sol\":1368:1374  uint j */\n      0x00\n        /* \"Utilities.sol\":1377:1379  _i */\n      dup3\n        /* \"Utilities.sol\":1368:1379  uint j = _i */\n      swap1\n      pop\n        /* \"Utilities.sol\":1389:1397  uint len */\n      0x00\n        /* \"Utilities.sol\":1407:1473  while (j != 0) {... */\n    tag_61:\n        /* \"Utilities.sol\":1419:1420  0 */\n      0x00\n        /* \"Utilities.sol\":1414:1415  j */\n      dup3\n        /* \"Utilities.sol\":1414:1420  j != 0 */\n      eq\n        /* \"Utilities.sol\":1407:1473  while (j != 0) {... */\n      tag_62\n      jumpi\n        /* \"Utilities.sol\":1436:1441  len++ */\n      dup1\n      dup1\n      tag_63\n      swap1\n      tag_64\n      jump\t// in\n    tag_63:\n      swap2\n      pop\n      pop\n        /* \"Utilities.sol\":1460:1462  10 */\n      0x0a\n        /* \"Utilities.sol\":1455:1462  j /= 10 */\n      dup3\n      tag_65\n      swap2\n      swap1\n      tag_66\n      jump\t// in\n    tag_65:\n      swap2\n      pop\n        /* \"Utilities.sol\":1407:1473  while (j != 0) {... */\n      jump(tag_61)\n    tag_62:\n        /* \"Utilities.sol\":1482:1499  bytes memory bstr */\n      0x00\n        /* \"Utilities.sol\":1512:1515  len */\n      dup2\n        /* \"Utilities.sol\":1502:1516  new bytes(len) */\n      0xffffffffffffffff\n      dup2\n      gt\n      iszero\n      tag_67\n      jumpi\n      tag_68\n      tag_69\n      jump\t// in\n    tag_68:\n    tag_67:\n      mload(0x40)\n      swap1\n      dup1\n      dup3\n      mstore\n      dup1\n      0x1f\n      add\n      not(0x1f)\n      and\n      0x20\n      add\n      dup3\n      add\n      0x40\n      mstore\n      dup1\n      iszero\n      tag_70\n      jumpi\n      dup2\n      0x20\n      add\n      0x01\n      dup3\n      mul\n      dup1\n      calldatasize\n      dup4\n      calldatacopy\n      dup1\n      dup3\n      add\n      swap2\n      pop\n      pop\n      swap1\n      pop\n    tag_70:\n      pop\n        /* \"Utilities.sol\":1482:1516  bytes memory bstr = new bytes(len) */\n      swap1\n      pop\n        /* \"Utilities.sol\":1526:1532  uint k */\n      0x00\n        /* \"Utilities.sol\":1535:1538  len */\n      dup3\n        /* \"Utilities.sol\":1526:1538  uint k = len */\n      swap1\n      pop\n        /* \"Utilities.sol\":1548:1744  while (_i != 0) {... */\n    tag_71:\n        /* \"Utilities.sol\":1561:1562  0 */\n      0x00\n        /* \"Utilities.sol\":1555:1557  _i */\n      dup7\n        /* \"Utilities.sol\":1555:1562  _i != 0 */\n      eq\n        /* \"Utilities.sol\":1548:1744  while (_i != 0) {... */\n      tag_72\n      jumpi\n        /* \"Utilities.sol\":1586:1587  1 */\n      0x01\n        /* \"Utilities.sol\":1582:1583  k */\n      dup2\n        /* \"Utilities.sol\":1582:1587  k - 1 */\n      tag_73\n      swap2\n      swap1\n      tag_74\n      jump\t// in\n    tag_73:\n        /* \"Utilities.sol\":1578:1587  k = k - 1 */\n      swap1\n      pop\n        /* \"Utilities.sol\":1601:1611  uint8 temp */\n      0x00\n        /* \"Utilities.sol\":1643:1645  10 */\n      0x0a\n        /* \"Utilities.sol\":1637:1639  10 */\n      dup1\n        /* \"Utilities.sol\":1632:1634  _i */\n      dup9\n        /* \"Utilities.sol\":1632:1639  _i / 10 */\n      tag_75\n      swap2\n      swap1\n      tag_66\n      jump\t// in\n    tag_75:\n        /* \"Utilities.sol\":1631:1645  (_i / 10) * 10 */\n      tag_76\n      swap2\n      swap1\n      tag_77\n      jump\t// in\n    tag_76:\n        /* \"Utilities.sol\":1626:1628  _i */\n      dup8\n        /* \"Utilities.sol\":1626:1645  _i - (_i / 10) * 10 */\n      tag_78\n      swap2\n      swap1\n      tag_74\n      jump\t// in\n    tag_78:\n        /* \"Utilities.sol\":1615:1617  48 */\n      0x30\n        /* \"Utilities.sol\":1615:1646  48 + uint8(_i - (_i / 10) * 10) */\n      tag_79\n      swap2\n      swap1\n      tag_80\n      jump\t// in\n    tag_79:\n        /* \"Utilities.sol\":1601:1647  uint8 temp = (48 + uint8(_i - (_i / 10) * 10)) */\n      swap1\n      pop\n        /* \"Utilities.sol\":1661:1670  bytes1 b1 */\n      0x00\n        /* \"Utilities.sol\":1680:1684  temp */\n      dup2\n        /* \"Utilities.sol\":1673:1685  bytes1(temp) */\n      0xf8\n      shl\n        /* \"Utilities.sol\":1661:1685  bytes1 b1 = bytes1(temp) */\n      swap1\n      pop\n        /* \"Utilities.sol\":1709:1711  b1 */\n      dup1\n        /* \"Utilities.sol\":1699:1703  bstr */\n      dup5\n        /* \"Utilities.sol\":1704:1705  k */\n      dup5\n        /* \"Utilities.sol\":1699:1706  bstr[k] */\n      dup2\n      mload\n      dup2\n      lt\n      tag_81\n      jumpi\n      tag_82\n      tag_13\n      jump\t// in\n    tag_82:\n    tag_81:\n      0x20\n      add\n      add\n        /* \"Utilities.sol\":1699:1711  bstr[k] = b1 */\n      swap1\n      not(0xffffffffffffffffffffffffffffffffffffffffffffffffffffffffffffff)\n      and\n      swap1\n      dup2\n      0x00\n      byte\n      swap1\n      mstore8\n      pop\n        /* \"Utilities.sol\":1731:1733  10 */\n      0x0a\n        /* \"Utilities.sol\":1725:1733  _i /= 10 */\n      dup9\n      tag_83\n      swap2\n      swap1\n      tag_66\n      jump\t// in\n    tag_83:\n      swap8\n      pop\n        /* \"Utilities.sol\":1564:1744  {... */\n      pop\n      pop\n        /* \"Utilities.sol\":1548:1744  while (_i != 0) {... */\n      jump(tag_71)\n    tag_72:\n        /* \"Utilities.sol\":1767:1771  bstr */\n      dup2\n        /* \"Utilities.sol\":1753:1772  return string(bstr) */\n      swap5\n      pop\n      pop\n      pop\n      pop\n      pop\n        /* \"Utilities.sol\":1208:1779  function uint2str(... */\n    tag_59:\n      swap2\n      swap1\n      pop\n      jump\t// out\n        /* \"Segments.sol\":1360:2033  function getNumbers(... */\n    tag_27:\n        /* \"Segments.sol\":1450:1470  Number memory result */\n      tag_84\n      tag_85\n      jump\t// in\n    tag_84:\n        /* \"Segments.sol\":1496:1497  1 */\n      0x01\n        /* \"Segments.sol\":1486:1492  length */\n      dup3\n        /* \"Segments.sol\":1486:1497  length == 1 */\n      sub\n        /* \"Segments.sol\":1482:2004  if (length == 1) {... */\n      tag_87\n      jumpi\n        /* \"Segments.sol\":1524:1529  input */\n      dup3\n        /* \"Segments.sol\":1513:1519  result */\n      dup2\n        /* \"Segments.sol\":1513:1521  result.d */\n      0x60\n      add\n        /* \"Segments.sol\":1513:1529  result.d = input */\n      dup2\n      dup2\n      mstore\n      pop\n      pop\n        /* \"Segments.sol\":1482:2004  if (length == 1) {... */\n      jump(tag_88)\n    tag_87:\n        /* \"Segments.sol\":1560:1561  2 */\n      0x02\n        /* \"Segments.sol\":1550:1556  length */\n      dup3\n        /* \"Segments.sol\":1550:1561  length == 2 */\n      sub\n        /* \"Segments.sol\":1546:2004  if (length == 2) {... */\n      tag_89\n      jumpi\n        /* \"Segments.sol\":1597:1599  10 */\n      0x0a\n        /* \"Segments.sol\":1589:1594  input */\n      dup4\n        /* \"Segments.sol\":1589:1599  input / 10 */\n      tag_90\n      swap2\n      swap1\n      tag_66\n      jump\t// in\n    tag_90:\n        /* \"Segments.sol\":1577:1583  result */\n      dup2\n        /* \"Segments.sol\":1577:1585  result.c */\n      0x40\n      add\n        /* \"Segments.sol\":1577:1600  result.c = (input / 10) */\n      dup2\n      dup2\n      mstore\n      pop\n      pop\n        /* \"Segments.sol\":1634:1636  10 */\n      0x0a\n        /* \"Segments.sol\":1626:1631  input */\n      dup4\n        /* \"Segments.sol\":1626:1636  input % 10 */\n      tag_91\n      swap2\n      swap1\n      tag_92\n      jump\t// in\n    tag_91:\n        /* \"Segments.sol\":1614:1620  result */\n      dup2\n        /* \"Segments.sol\":1614:1622  result.d */\n      0x60\n      add\n        /* \"Segments.sol\":1614:1637  result.d = (input % 10) */\n      dup2\n      dup2\n      mstore\n      pop\n      pop\n        /* \"Segments.sol\":1546:2004  if (length == 2) {... */\n      jump(tag_93)\n    tag_89:\n        /* \"Segments.sol\":1668:1669  3 */\n      0x03\n        /* \"Segments.sol\":1658:1664  length */\n      dup3\n        /* \"Segments.sol\":1658:1669  length == 3 */\n      sub\n        /* \"Segments.sol\":1654:2004  if (length == 3) {... */\n      tag_94\n      jumpi\n        /* \"Segments.sol\":1705:1708  100 */\n      0x64\n        /* \"Segments.sol\":1697:1702  input */\n      dup4\n        /* \"Segments.sol\":1697:1708  input / 100 */\n      tag_95\n      swap2\n      swap1\n      tag_66\n      jump\t// in\n    tag_95:\n        /* \"Segments.sol\":1685:1691  result */\n      dup2\n        /* \"Segments.sol\":1685:1693  result.b */\n      0x20\n      add\n        /* \"Segments.sol\":1685:1709  result.b = (input / 100) */\n      dup2\n      dup2\n      mstore\n      pop\n      pop\n        /* \"Segments.sol\":1751:1753  10 */\n      0x0a\n        /* \"Segments.sol\":1744:1747  100 */\n      0x64\n        /* \"Segments.sol\":1736:1741  input */\n      dup5\n        /* \"Segments.sol\":1736:1747  input % 100 */\n      tag_96\n      swap2\n      swap1\n      tag_92\n      jump\t// in\n    tag_96:\n        /* \"Segments.sol\":1735:1753  (input % 100) / 10 */\n      tag_97\n      swap2\n      swap1\n      tag_66\n      jump\t// in\n    tag_97:\n        /* \"Segments.sol\":1723:1729  result */\n      dup2\n        /* \"Segments.sol\":1723:1731  result.c */\n      0x40\n      add\n        /* \"Segments.sol\":1723:1754  result.c = ((input % 100) / 10) */\n      dup2\n      dup2\n      mstore\n      pop\n      pop\n        /* \"Segments.sol\":1788:1790  10 */\n      0x0a\n        /* \"Segments.sol\":1780:1785  input */\n      dup4\n        /* \"Segments.sol\":1780:1790  input % 10 */\n      tag_98\n      swap2\n      swap1\n      tag_92\n      jump\t// in\n    tag_98:\n        /* \"Segments.sol\":1768:1774  result */\n      dup2\n        /* \"Segments.sol\":1768:1776  result.d */\n      0x60\n      add\n        /* \"Segments.sol\":1768:1791  result.d = (input % 10) */\n      dup2\n      dup2\n      mstore\n      pop\n      pop\n        /* \"Segments.sol\":1654:2004  if (length == 3) {... */\n      jump(tag_99)\n    tag_94:\n        /* \"Segments.sol\":1822:1823  4 */\n      0x04\n        /* \"Segments.sol\":1812:1818  length */\n      dup3\n        /* \"Segments.sol\":1812:1823  length == 4 */\n      sub\n        /* \"Segments.sol\":1808:2004  if (length == 4) {... */\n      tag_100\n      jumpi\n        /* \"Segments.sol\":1859:1863  1000 */\n      0x03e8\n        /* \"Segments.sol\":1851:1856  input */\n      dup4\n        /* \"Segments.sol\":1851:1863  input / 1000 */\n      tag_101\n      swap2\n      swap1\n      tag_66\n      jump\t// in\n    tag_101:\n        /* \"Segments.sol\":1839:1845  result */\n      dup2\n        /* \"Segments.sol\":1839:1847  result.a */\n      0x00\n      add\n        /* \"Segments.sol\":1839:1864  result.a = (input / 1000) */\n      dup2\n      dup2\n      mstore\n      pop\n      pop\n        /* \"Segments.sol\":1907:1910  100 */\n      0x64\n        /* \"Segments.sol\":1899:1903  1000 */\n      0x03e8\n        /* \"Segments.sol\":1891:1896  input */\n      dup5\n        /* \"Segments.sol\":1891:1903  input % 1000 */\n      tag_102\n      swap2\n      swap1\n      tag_92\n      jump\t// in\n    tag_102:\n        /* \"Segments.sol\":1890:1910  (input % 1000) / 100 */\n      tag_103\n      swap2\n      swap1\n      tag_66\n      jump\t// in\n    tag_103:\n        /* \"Segments.sol\":1878:1884  result */\n      dup2\n        /* \"Segments.sol\":1878:1886  result.b */\n      0x20\n      add\n        /* \"Segments.sol\":1878:1911  result.b = ((input % 1000) / 100) */\n      dup2\n      dup2\n      mstore\n      pop\n      pop\n        /* \"Segments.sol\":1953:1955  10 */\n      0x0a\n        /* \"Segments.sol\":1946:1949  100 */\n      0x64\n        /* \"Segments.sol\":1938:1943  input */\n      dup5\n        /* \"Segments.sol\":1938:1949  input % 100 */\n      tag_104\n      swap2\n      swap1\n      tag_92\n      jump\t// in\n    tag_104:\n        /* \"Segments.sol\":1937:1955  (input % 100) / 10 */\n      tag_105\n      swap2\n      swap1\n      tag_66\n      jump\t// in\n    tag_105:\n        /* \"Segments.sol\":1925:1931  result */\n      dup2\n        /* \"Segments.sol\":1925:1933  result.c */\n      0x40\n      add\n        /* \"Segments.sol\":1925:1956  result.c = ((input % 100) / 10) */\n      dup2\n      dup2\n      mstore\n      pop\n      pop\n        /* \"Segments.sol\":1990:1992  10 */\n      0x0a\n        /* \"Segments.sol\":1982:1987  input */\n      dup4\n        /* \"Segments.sol\":1982:1992  input % 10 */\n      tag_106\n      swap2\n      swap1\n      tag_92\n      jump\t// in\n    tag_106:\n        /* \"Segments.sol\":1970:1976  result */\n      dup2\n        /* \"Segments.sol\":1970:1978  result.d */\n      0x60\n      add\n        /* \"Segments.sol\":1970:1993  result.d = (input % 10) */\n      dup2\n      dup2\n      mstore\n      pop\n      pop\n        /* \"Segments.sol\":1808:2004  if (length == 4) {... */\n    tag_100:\n        /* \"Segments.sol\":1654:2004  if (length == 3) {... */\n    tag_99:\n        /* \"Segments.sol\":1546:2004  if (length == 2) {... */\n    tag_93:\n        /* \"Segments.sol\":1482:2004  if (length == 1) {... */\n    tag_88:\n        /* \"Segments.sol\":1360:2033  function getNumbers(... */\n      swap3\n      swap2\n      pop\n      pop\n      jump\t// out\n        /* \"Segments.sol\":2039:8220  function getNumberStyle(... */\n    tag_30:\n        /* \"Segments.sol\":2135:2148  string memory */\n      0x60\n        /* \"Segments.sol\":2160:2175  string memory p */\n      0x00\n        /* \"Segments.sol\":2178:2202  utils.uint2str(position) */\n      tag_108\n        /* \"Segments.sol\":2193:2201  position */\n      dup5\n        /* \"Segments.sol\":2178:2192  utils.uint2str */\n      tag_14\n        /* \"Segments.sol\":2178:2202  utils.uint2str(position) */\n      jump\t// in\n    tag_108:\n        /* \"Segments.sol\":2160:2202  string memory p = utils.uint2str(position) */\n      swap1\n      pop\n        /* \"Segments.sol\":2225:2226  0 */\n      0x00\n        /* \"Segments.sol\":2216:2221  input */\n      dup4\n        /* \"Segments.sol\":2216:2226  input == 0 */\n      sub\n        /* \"Segments.sol\":2212:8214  if (input == 0) {... */\n      tag_109\n      jumpi\n        /* \"Segments.sol\":2365:2366  p */\n      dup1\n        /* \"Segments.sol\":2452:2453  p */\n      dup2\n        /* \"Segments.sol\":2539:2540  p */\n      dup3\n        /* \"Segments.sol\":2626:2627  p */\n      dup4\n        /* \"Segments.sol\":2713:2714  p */\n      dup5\n        /* \"Segments.sol\":2800:2801  p */\n      dup6\n        /* \"Segments.sol\":2293:2869  abi.encodePacked(... */\n      add(0x20, mload(0x40))\n      tag_110\n      swap7\n      swap6\n      swap5\n      swap4\n      swap3\n      swap2\n      swap1\n      tag_111\n      jump\t// in\n    tag_110:\n      mload(0x40)\n      0x20\n      dup2\n      dup4\n      sub\n      sub\n      dup2\n      mstore\n      swap1\n      0x40\n      mstore\n        /* \"Segments.sol\":2242:2887  return... */\n      swap2\n      pop\n      pop\n      jump(tag_107)\n        /* \"Segments.sol\":2212:8214  if (input == 0) {... */\n    tag_109:\n        /* \"Segments.sol\":2917:2918  1 */\n      0x01\n        /* \"Segments.sol\":2908:2913  input */\n      dup4\n        /* \"Segments.sol\":2908:2918  input == 1 */\n      sub\n        /* \"Segments.sol\":2904:8214  if (input == 1) {... */\n      tag_113\n      jumpi\n        /* \"Segments.sol\":3057:3058  p */\n      dup1\n        /* \"Segments.sol\":3144:3145  p */\n      dup2\n        /* \"Segments.sol\":2985:3213  abi.encodePacked(... */\n      add(0x20, mload(0x40))\n      tag_114\n      swap3\n      swap2\n      swap1\n      tag_115\n      jump\t// in\n    tag_114:\n      mload(0x40)\n      0x20\n      dup2\n      dup4\n      sub\n      sub\n      dup2\n      mstore\n      swap1\n      0x40\n      mstore\n        /* \"Segments.sol\":2934:3231  return... */\n      swap2\n      pop\n      pop\n      jump(tag_107)\n        /* \"Segments.sol\":2904:8214  if (input == 1) {... */\n    tag_113:\n        /* \"Segments.sol\":3261:3262  2 */\n      0x02\n        /* \"Segments.sol\":3252:3257  input */\n      dup4\n        /* \"Segments.sol\":3252:3262  input == 2 */\n      sub\n        /* \"Segments.sol\":3248:8214  if (input == 2) {... */\n      tag_117\n      jumpi\n        /* \"Segments.sol\":3401:3402  p */\n      dup1\n        /* \"Segments.sol\":3488:3489  p */\n      dup2\n        /* \"Segments.sol\":3575:3576  p */\n      dup3\n        /* \"Segments.sol\":3662:3663  p */\n      dup4\n        /* \"Segments.sol\":3749:3750  p */\n      dup5\n        /* \"Segments.sol\":3329:3818  abi.encodePacked(... */\n      add(0x20, mload(0x40))\n      tag_118\n      swap6\n      swap5\n      swap4\n      swap3\n      swap2\n      swap1\n      tag_119\n      jump\t// in\n    tag_118:\n      mload(0x40)\n      0x20\n      dup2\n      dup4\n      sub\n      sub\n      dup2\n      mstore\n      swap1\n      0x40\n      mstore\n        /* \"Segments.sol\":3278:3836  return... */\n      swap2\n      pop\n      pop\n      jump(tag_107)\n        /* \"Segments.sol\":3248:8214  if (input == 2) {... */\n    tag_117:\n        /* \"Segments.sol\":3866:3867  3 */\n      0x03\n        /* \"Segments.sol\":3857:3862  input */\n      dup4\n        /* \"Segments.sol\":3857:3867  input == 3 */\n      sub\n        /* \"Segments.sol\":3853:8214  if (input == 3) {... */\n      tag_121\n      jumpi\n        /* \"Segments.sol\":4006:4007  p */\n      dup1\n        /* \"Segments.sol\":4093:4094  p */\n      dup2\n        /* \"Segments.sol\":4180:4181  p */\n      dup3\n        /* \"Segments.sol\":4267:4268  p */\n      dup4\n        /* \"Segments.sol\":4354:4355  p */\n      dup5\n        /* \"Segments.sol\":3934:4423  abi.encodePacked(... */\n      add(0x20, mload(0x40))\n      tag_122\n      swap6\n      swap5\n      swap4\n      swap3\n      swap2\n      swap1\n      tag_123\n      jump\t// in\n    tag_122:\n      mload(0x40)\n      0x20\n      dup2\n      dup4\n      sub\n      sub\n      dup2\n      mstore\n      swap1\n      0x40\n      mstore\n        /* \"Segments.sol\":3883:4441  return... */\n      swap2\n      pop\n      pop\n      jump(tag_107)\n        /* \"Segments.sol\":3853:8214  if (input == 3) {... */\n    tag_121:\n        /* \"Segments.sol\":4471:4472  4 */\n      0x04\n        /* \"Segments.sol\":4462:4467  input */\n      dup4\n        /* \"Segments.sol\":4462:4472  input == 4 */\n      sub\n        /* \"Segments.sol\":4458:8214  if (input == 4) {... */\n      tag_125\n      jumpi\n        /* \"Segments.sol\":4611:4612  p */\n      dup1\n        /* \"Segments.sol\":4698:4699  p */\n      dup2\n        /* \"Segments.sol\":4785:4786  p */\n      dup3\n        /* \"Segments.sol\":4872:4873  p */\n      dup4\n        /* \"Segments.sol\":4539:4941  abi.encodePacked(... */\n      add(0x20, mload(0x40))\n      tag_126\n      swap5\n      swap4\n      swap3\n      swap2\n      swap1\n      tag_127\n      jump\t// in\n    tag_126:\n      mload(0x40)\n      0x20\n      dup2\n      dup4\n      sub\n      sub\n      dup2\n      mstore\n      swap1\n      0x40\n      mstore\n        /* \"Segments.sol\":4488:4959  return... */\n      swap2\n      pop\n      pop\n      jump(tag_107)\n        /* \"Segments.sol\":4458:8214  if (input == 4) {... */\n    tag_125:\n        /* \"Segments.sol\":4989:4990  5 */\n      0x05\n        /* \"Segments.sol\":4980:4985  input */\n      dup4\n        /* \"Segments.sol\":4980:4990  input == 5 */\n      sub\n        /* \"Segments.sol\":4976:8214  if (input == 5) {... */\n      tag_129\n      jumpi\n        /* \"Segments.sol\":5129:5130  p */\n      dup1\n        /* \"Segments.sol\":5216:5217  p */\n      dup2\n        /* \"Segments.sol\":5303:5304  p */\n      dup3\n        /* \"Segments.sol\":5390:5391  p */\n      dup4\n        /* \"Segments.sol\":5477:5478  p */\n      dup5\n        /* \"Segments.sol\":5057:5546  abi.encodePacked(... */\n      add(0x20, mload(0x40))\n      tag_130\n      swap6\n      swap5\n      swap4\n      swap3\n      swap2\n      swap1\n      tag_131\n      jump\t// in\n    tag_130:\n      mload(0x40)\n      0x20\n      dup2\n      dup4\n      sub\n      sub\n      dup2\n      mstore\n      swap1\n      0x40\n      mstore\n        /* \"Segments.sol\":5006:5564  return... */\n      swap2\n      pop\n      pop\n      jump(tag_107)\n        /* \"Segments.sol\":4976:8214  if (input == 5) {... */\n    tag_129:\n        /* \"Segments.sol\":5594:5595  6 */\n      0x06\n        /* \"Segments.sol\":5585:5590  input */\n      dup4\n        /* \"Segments.sol\":5585:5595  input == 6 */\n      sub\n        /* \"Segments.sol\":5581:8214  if (input == 6) {... */\n      tag_133\n      jumpi\n        /* \"Segments.sol\":5734:5735  p */\n      dup1\n        /* \"Segments.sol\":5821:5822  p */\n      dup2\n        /* \"Segments.sol\":5908:5909  p */\n      dup3\n        /* \"Segments.sol\":5995:5996  p */\n      dup4\n        /* \"Segments.sol\":6082:6083  p */\n      dup5\n        /* \"Segments.sol\":6169:6170  p */\n      dup6\n        /* \"Segments.sol\":5662:6238  abi.encodePacked(... */\n      add(0x20, mload(0x40))\n      tag_134\n      swap7\n      swap6\n      swap5\n      swap4\n      swap3\n      swap2\n      swap1\n      tag_135\n      jump\t// in\n    tag_134:\n      mload(0x40)\n      0x20\n      dup2\n      dup4\n      sub\n      sub\n      dup2\n      mstore\n      swap1\n      0x40\n      mstore\n        /* \"Segments.sol\":5611:6256  return... */\n      swap2\n      pop\n      pop\n      jump(tag_107)\n        /* \"Segments.sol\":5581:8214  if (input == 6) {... */\n    tag_133:\n        /* \"Segments.sol\":6286:6287  7 */\n      0x07\n        /* \"Segments.sol\":6277:6282  input */\n      dup4\n        /* \"Segments.sol\":6277:6287  input == 7 */\n      sub\n        /* \"Segments.sol\":6273:8214  if (input == 7) {... */\n      tag_137\n      jumpi\n        /* \"Segments.sol\":6426:6427  p */\n      dup1\n        /* \"Segments.sol\":6513:6514  p */\n      dup2\n        /* \"Segments.sol\":6600:6601  p */\n      dup3\n        /* \"Segments.sol\":6354:6669  abi.encodePacked(... */\n      add(0x20, mload(0x40))\n      tag_138\n      swap4\n      swap3\n      swap2\n      swap1\n      tag_139\n      jump\t// in\n    tag_138:\n      mload(0x40)\n      0x20\n      dup2\n      dup4\n      sub\n      sub\n      dup2\n      mstore\n      swap1\n      0x40\n      mstore\n        /* \"Segments.sol\":6303:6687  return... */\n      swap2\n      pop\n      pop\n      jump(tag_107)\n        /* \"Segments.sol\":6273:8214  if (input == 7) {... */\n    tag_137:\n        /* \"Segments.sol\":6717:6718  8 */\n      0x08\n        /* \"Segments.sol\":6708:6713  input */\n      dup4\n        /* \"Segments.sol\":6708:6718  input == 8 */\n      sub\n        /* \"Segments.sol\":6704:8214  if (input == 8) {... */\n      tag_141\n      jumpi\n        /* \"Segments.sol\":6857:6858  p */\n      dup1\n        /* \"Segments.sol\":6944:6945  p */\n      dup2\n        /* \"Segments.sol\":7031:7032  p */\n      dup3\n        /* \"Segments.sol\":7118:7119  p */\n      dup4\n        /* \"Segments.sol\":7205:7206  p */\n      dup5\n        /* \"Segments.sol\":7292:7293  p */\n      dup6\n        /* \"Segments.sol\":7379:7380  p */\n      dup7\n        /* \"Segments.sol\":6785:7448  abi.encodePacked(... */\n      add(0x20, mload(0x40))\n      tag_142\n      swap8\n      swap7\n      swap6\n      swap5\n      swap4\n      swap3\n      swap2\n      swap1\n      tag_143\n      jump\t// in\n    tag_142:\n      mload(0x40)\n      0x20\n      dup2\n      dup4\n      sub\n      sub\n      dup2\n      mstore\n      swap1\n      0x40\n      mstore\n        /* \"Segments.sol\":6734:7466  return... */\n      swap2\n      pop\n      pop\n      jump(tag_107)\n        /* \"Segments.sol\":6704:8214  if (input == 8) {... */\n    tag_141:\n        /* \"Segments.sol\":7496:7497  9 */\n      0x09\n        /* \"Segments.sol\":7487:7492  input */\n      dup4\n        /* \"Segments.sol\":7487:7497  input == 9 */\n      sub\n        /* \"Segments.sol\":7483:8214  if (input == 9) {... */\n      tag_145\n      jumpi\n        /* \"Segments.sol\":7636:7637  p */\n      dup1\n        /* \"Segments.sol\":7723:7724  p */\n      dup2\n        /* \"Segments.sol\":7810:7811  p */\n      dup3\n        /* \"Segments.sol\":7897:7898  p */\n      dup4\n        /* \"Segments.sol\":7984:7985  p */\n      dup5\n        /* \"Segments.sol\":8071:8072  p */\n      dup6\n        /* \"Segments.sol\":7564:8140  abi.encodePacked(... */\n      add(0x20, mload(0x40))\n      tag_146\n      swap7\n      swap6\n      swap5\n      swap4\n      swap3\n      swap2\n      swap1\n      tag_147\n      jump\t// in\n    tag_146:\n      mload(0x40)\n      0x20\n      dup2\n      dup4\n      sub\n      sub\n      dup2\n      mstore\n      swap1\n      0x40\n      mstore\n        /* \"Segments.sol\":7513:8158  return... */\n      swap2\n      pop\n      pop\n      jump(tag_107)\n        /* \"Segments.sol\":7483:8214  if (input == 9) {... */\n    tag_145:\n        /* \"Segments.sol\":8189:8203  return \"error\" */\n      mload(0x40)\n      dup1\n      0x40\n      add\n      0x40\n      mstore\n      dup1\n      0x05\n      dup2\n      mstore\n      0x20\n      add\n      0x6572726f72000000000000000000000000000000000000000000000000000000\n      dup2\n      mstore\n      pop\n      swap2\n      pop\n      pop\n        /* \"Segments.sol\":2039:8220  function getNumberStyle(... */\n    tag_107:\n      swap3\n      swap2\n      pop\n      pop\n      jump\t// out\n    tag_85:\n      mload(0x40)\n      dup1\n      0x80\n      add\n      0x40\n      mstore\n      dup1\n      0x00\n      dup2\n      mstore\n      0x20\n      add\n      0x00\n      dup2\n      mstore\n      0x20\n      add\n      0x00\n      dup2\n      mstore\n      0x20\n      add\n      0x00\n      dup2\n      mstore\n      pop\n      swap1\n      jump\t// out\n        /* \"#utility.yul\":7:82   */\n    tag_149:\n        /* \"#utility.yul\":40:46   */\n      0x00\n        /* \"#utility.yul\":73:75   */\n      0x40\n        /* \"#utility.yul\":67:76   */\n      mload\n        /* \"#utility.yul\":57:76   */\n      swap1\n      pop\n        /* \"#utility.yul\":7:82   */\n      swap1\n      jump\t// out\n        /* \"#utility.yul\":88:205   */\n    tag_150:\n        /* \"#utility.yul\":197:198   */\n      0x00\n        /* \"#utility.yul\":194:195   */\n      dup1\n        /* \"#utility.yul\":187:199   */\n      revert\n        /* \"#utility.yul\":334:411   */\n    tag_152:\n        /* \"#utility.yul\":371:378   */\n      0x00\n        /* \"#utility.yul\":400:405   */\n      dup2\n        /* \"#utility.yul\":389:405   */\n      swap1\n      pop\n        /* \"#utility.yul\":334:411   */\n      swap2\n      swap1\n      pop\n      jump\t// out\n        /* \"#utility.yul\":417:539   */\n    tag_153:\n        /* \"#utility.yul\":490:514   */\n      tag_204\n        /* \"#utility.yul\":508:513   */\n      dup2\n        /* \"#utility.yul\":490:514   */\n      tag_152\n      jump\t// in\n    tag_204:\n        /* \"#utility.yul\":483:488   */\n      dup2\n        /* \"#utility.yul\":480:515   */\n      eq\n        /* \"#utility.yul\":470:533   */\n      tag_205\n      jumpi\n        /* \"#utility.yul\":529:530   */\n      0x00\n        /* \"#utility.yul\":526:527   */\n      dup1\n        /* \"#utility.yul\":519:531   */\n      revert\n        /* \"#utility.yul\":470:533   */\n    tag_205:\n        /* \"#utility.yul\":417:539   */\n      pop\n      jump\t// out\n        /* \"#utility.yul\":545:684   */\n    tag_154:\n        /* \"#utility.yul\":591:596   */\n      0x00\n        /* \"#utility.yul\":629:635   */\n      dup2\n        /* \"#utility.yul\":616:636   */\n      calldataload\n        /* \"#utility.yul\":607:636   */\n      swap1\n      pop\n        /* \"#utility.yul\":645:678   */\n      tag_207\n        /* \"#utility.yul\":672:677   */\n      dup2\n        /* \"#utility.yul\":645:678   */\n      tag_153\n      jump\t// in\n    tag_207:\n        /* \"#utility.yul\":545:684   */\n      swap3\n      swap2\n      pop\n      pop\n      jump\t// out\n        /* \"#utility.yul\":690:807   */\n    tag_155:\n        /* \"#utility.yul\":799:800   */\n      0x00\n        /* \"#utility.yul\":796:797   */\n      dup1\n        /* \"#utility.yul\":789:801   */\n      revert\n        /* \"#utility.yul\":813:915   */\n    tag_156:\n        /* \"#utility.yul\":854:860   */\n      0x00\n        /* \"#utility.yul\":905:907   */\n      0x1f\n        /* \"#utility.yul\":901:908   */\n      not\n        /* \"#utility.yul\":896:898   */\n      0x1f\n        /* \"#utility.yul\":889:894   */\n      dup4\n        /* \"#utility.yul\":885:899   */\n      add\n        /* \"#utility.yul\":881:909   */\n      and\n        /* \"#utility.yul\":871:909   */\n      swap1\n      pop\n        /* \"#utility.yul\":813:915   */\n      swap2\n      swap1\n      pop\n      jump\t// out\n        /* \"#utility.yul\":921:1101   */\n    tag_69:\n        /* \"#utility.yul\":969:1046   */\n      0x4e487b7100000000000000000000000000000000000000000000000000000000\n        /* \"#utility.yul\":966:967   */\n      0x00\n        /* \"#utility.yul\":959:1047   */\n      mstore\n        /* \"#utility.yul\":1066:1070   */\n      0x41\n        /* \"#utility.yul\":1063:1064   */\n      0x04\n        /* \"#utility.yul\":1056:1071   */\n      mstore\n        /* \"#utility.yul\":1090:1094   */\n      0x24\n        /* \"#utility.yul\":1087:1088   */\n      0x00\n        /* \"#utility.yul\":1080:1095   */\n      revert\n        /* \"#utility.yul\":1107:1388   */\n    tag_157:\n        /* \"#utility.yul\":1190:1217   */\n      tag_212\n        /* \"#utility.yul\":1212:1216   */\n      dup3\n        /* \"#utility.yul\":1190:1217   */\n      tag_156\n      jump\t// in\n    tag_212:\n        /* \"#utility.yul\":1182:1188   */\n      dup2\n        /* \"#utility.yul\":1178:1218   */\n      add\n        /* \"#utility.yul\":1320:1326   */\n      dup2\n        /* \"#utility.yul\":1308:1318   */\n      dup2\n        /* \"#utility.yul\":1305:1327   */\n      lt\n        /* \"#utility.yul\":1284:1302   */\n      0xffffffffffffffff\n        /* \"#utility.yul\":1272:1282   */\n      dup3\n        /* \"#utility.yul\":1269:1303   */\n      gt\n        /* \"#utility.yul\":1266:1328   */\n      or\n        /* \"#utility.yul\":1263:1351   */\n      iszero\n      tag_213\n      jumpi\n        /* \"#utility.yul\":1331:1349   */\n      tag_214\n      tag_69\n      jump\t// in\n    tag_214:\n        /* \"#utility.yul\":1263:1351   */\n    tag_213:\n        /* \"#utility.yul\":1371:1381   */\n      dup1\n        /* \"#utility.yul\":1367:1369   */\n      0x40\n        /* \"#utility.yul\":1360:1382   */\n      mstore\n        /* \"#utility.yul\":1150:1388   */\n      pop\n        /* \"#utility.yul\":1107:1388   */\n      pop\n      pop\n      jump\t// out\n        /* \"#utility.yul\":1394:1523   */\n    tag_158:\n        /* \"#utility.yul\":1428:1434   */\n      0x00\n        /* \"#utility.yul\":1455:1475   */\n      tag_216\n      tag_149\n      jump\t// in\n    tag_216:\n        /* \"#utility.yul\":1445:1475   */\n      swap1\n      pop\n        /* \"#utility.yul\":1484:1517   */\n      tag_217\n        /* \"#utility.yul\":1512:1516   */\n      dup3\n        /* \"#utility.yul\":1504:1510   */\n      dup3\n        /* \"#utility.yul\":1484:1517   */\n      tag_157\n      jump\t// in\n    tag_217:\n        /* \"#utility.yul\":1394:1523   */\n      swap2\n      swap1\n      pop\n      jump\t// out\n        /* \"#utility.yul\":1529:1778   */\n    tag_159:\n        /* \"#utility.yul\":1604:1608   */\n      0x00\n        /* \"#utility.yul\":1694:1712   */\n      0xffffffffffffffff\n        /* \"#utility.yul\":1686:1692   */\n      dup3\n        /* \"#utility.yul\":1683:1713   */\n      gt\n        /* \"#utility.yul\":1680:1736   */\n      iszero\n      tag_219\n      jumpi\n        /* \"#utility.yul\":1716:1734   */\n      tag_220\n      tag_69\n      jump\t// in\n    tag_220:\n        /* \"#utility.yul\":1680:1736   */\n    tag_219:\n        /* \"#utility.yul\":1766:1770   */\n      0x20\n        /* \"#utility.yul\":1758:1764   */\n      dup3\n        /* \"#utility.yul\":1754:1771   */\n      mul\n        /* \"#utility.yul\":1746:1771   */\n      swap1\n      pop\n        /* \"#utility.yul\":1529:1778   */\n      swap2\n      swap1\n      pop\n      jump\t// out\n        /* \"#utility.yul\":1784:1901   */\n    tag_160:\n        /* \"#utility.yul\":1893:1894   */\n      0x00\n        /* \"#utility.yul\":1890:1891   */\n      dup1\n        /* \"#utility.yul\":1883:1895   */\n      revert\n        /* \"#utility.yul\":1925:2568   */\n    tag_161:\n        /* \"#utility.yul\":2019:2024   */\n      0x00\n        /* \"#utility.yul\":2044:2123   */\n      tag_223\n        /* \"#utility.yul\":2060:2122   */\n      tag_224\n        /* \"#utility.yul\":2115:2121   */\n      dup5\n        /* \"#utility.yul\":2060:2122   */\n      tag_159\n      jump\t// in\n    tag_224:\n        /* \"#utility.yul\":2044:2123   */\n      tag_158\n      jump\t// in\n    tag_223:\n        /* \"#utility.yul\":2035:2123   */\n      swap1\n      pop\n        /* \"#utility.yul\":2143:2148   */\n      dup1\n        /* \"#utility.yul\":2196:2200   */\n      0x20\n        /* \"#utility.yul\":2188:2194   */\n      dup5\n        /* \"#utility.yul\":2184:2201   */\n      mul\n        /* \"#utility.yul\":2176:2182   */\n      dup4\n        /* \"#utility.yul\":2172:2202   */\n      add\n        /* \"#utility.yul\":2225:2228   */\n      dup6\n        /* \"#utility.yul\":2217:2223   */\n      dup2\n        /* \"#utility.yul\":2214:2229   */\n      gt\n        /* \"#utility.yul\":2211:2333   */\n      iszero\n      tag_225\n      jumpi\n        /* \"#utility.yul\":2244:2323   */\n      tag_226\n      tag_160\n      jump\t// in\n    tag_226:\n        /* \"#utility.yul\":2211:2333   */\n    tag_225:\n        /* \"#utility.yul\":2359:2365   */\n      dup4\n        /* \"#utility.yul\":2342:2562   */\n    tag_227:\n        /* \"#utility.yul\":2376:2382   */\n      dup2\n        /* \"#utility.yul\":2371:2374   */\n      dup2\n        /* \"#utility.yul\":2368:2383   */\n      lt\n        /* \"#utility.yul\":2342:2562   */\n      iszero\n      tag_229\n      jumpi\n        /* \"#utility.yul\":2451:2454   */\n      dup1\n        /* \"#utility.yul\":2480:2517   */\n      tag_230\n        /* \"#utility.yul\":2513:2516   */\n      dup9\n        /* \"#utility.yul\":2501:2511   */\n      dup3\n        /* \"#utility.yul\":2480:2517   */\n      tag_154\n      jump\t// in\n    tag_230:\n        /* \"#utility.yul\":2475:2478   */\n      dup5\n        /* \"#utility.yul\":2468:2518   */\n      mstore\n        /* \"#utility.yul\":2547:2551   */\n      0x20\n        /* \"#utility.yul\":2542:2545   */\n      dup5\n        /* \"#utility.yul\":2538:2552   */\n      add\n        /* \"#utility.yul\":2531:2552   */\n      swap4\n      pop\n        /* \"#utility.yul\":2418:2562   */\n      pop\n        /* \"#utility.yul\":2402:2406   */\n      0x20\n        /* \"#utility.yul\":2397:2400   */\n      dup2\n        /* \"#utility.yul\":2393:2407   */\n      add\n        /* \"#utility.yul\":2386:2407   */\n      swap1\n      pop\n        /* \"#utility.yul\":2342:2562   */\n      jump(tag_227)\n    tag_229:\n        /* \"#utility.yul\":2346:2367   */\n      pop\n        /* \"#utility.yul\":2025:2568   */\n      pop\n      pop\n        /* \"#utility.yul\":1925:2568   */\n      swap4\n      swap3\n      pop\n      pop\n      pop\n      jump\t// out\n        /* \"#utility.yul\":2592:2931   */\n    tag_162:\n        /* \"#utility.yul\":2661:2666   */\n      0x00\n        /* \"#utility.yul\":2710:2713   */\n      dup3\n        /* \"#utility.yul\":2703:2707   */\n      0x1f\n        /* \"#utility.yul\":2695:2701   */\n      dup4\n        /* \"#utility.yul\":2691:2708   */\n      add\n        /* \"#utility.yul\":2687:2714   */\n      slt\n        /* \"#utility.yul\":2677:2799   */\n      tag_232\n      jumpi\n        /* \"#utility.yul\":2718:2797   */\n      tag_233\n      tag_155\n      jump\t// in\n    tag_233:\n        /* \"#utility.yul\":2677:2799   */\n    tag_232:\n        /* \"#utility.yul\":2822:2826   */\n      0x03\n        /* \"#utility.yul\":2844:2925   */\n      tag_234\n        /* \"#utility.yul\":2921:2924   */\n      dup5\n        /* \"#utility.yul\":2913:2919   */\n      dup3\n        /* \"#utility.yul\":2905:2911   */\n      dup6\n        /* \"#utility.yul\":2844:2925   */\n      tag_161\n      jump\t// in\n    tag_234:\n        /* \"#utility.yul\":2835:2925   */\n      swap2\n      pop\n        /* \"#utility.yul\":2667:2931   */\n      pop\n        /* \"#utility.yul\":2592:2931   */\n      swap3\n      swap2\n      pop\n      pop\n      jump\t// out\n        /* \"#utility.yul\":2937:3458   */\n    tag_5:\n        /* \"#utility.yul\":3028:3034   */\n      0x00\n        /* \"#utility.yul\":3036:3042   */\n      dup1\n        /* \"#utility.yul\":3085:3088   */\n      0x80\n        /* \"#utility.yul\":3073:3082   */\n      dup4\n        /* \"#utility.yul\":3064:3071   */\n      dup6\n        /* \"#utility.yul\":3060:3083   */\n      sub\n        /* \"#utility.yul\":3056:3089   */\n      slt\n        /* \"#utility.yul\":3053:3173   */\n      iszero\n      tag_236\n      jumpi\n        /* \"#utility.yul\":3092:3171   */\n      tag_237\n      tag_150\n      jump\t// in\n    tag_237:\n        /* \"#utility.yul\":3053:3173   */\n    tag_236:\n        /* \"#utility.yul\":3212:3213   */\n      0x00\n        /* \"#utility.yul\":3237:3290   */\n      tag_238\n        /* \"#utility.yul\":3282:3289   */\n      dup6\n        /* \"#utility.yul\":3273:3279   */\n      dup3\n        /* \"#utility.yul\":3262:3271   */\n      dup7\n        /* \"#utility.yul\":3258:3280   */\n      add\n        /* \"#utility.yul\":3237:3290   */\n      tag_154\n      jump\t// in\n    tag_238:\n        /* \"#utility.yul\":3227:3290   */\n      swap3\n      pop\n        /* \"#utility.yul\":3183:3300   */\n      pop\n        /* \"#utility.yul\":3339:3341   */\n      0x20\n        /* \"#utility.yul\":3365:3441   */\n      tag_239\n        /* \"#utility.yul\":3433:3440   */\n      dup6\n        /* \"#utility.yul\":3424:3430   */\n      dup3\n        /* \"#utility.yul\":3413:3422   */\n      dup7\n        /* \"#utility.yul\":3409:3431   */\n      add\n        /* \"#utility.yul\":3365:3441   */\n      tag_162\n      jump\t// in\n    tag_239:\n        /* \"#utility.yul\":3355:3441   */\n      swap2\n      pop\n        /* \"#utility.yul\":3310:3451   */\n      pop\n        /* \"#utility.yul\":2937:3458   */\n      swap3\n      pop\n      swap3\n      swap1\n      pop\n      jump\t// out\n        /* \"#utility.yul\":3464:3563   */\n    tag_163:\n        /* \"#utility.yul\":3516:3522   */\n      0x00\n        /* \"#utility.yul\":3550:3555   */\n      dup2\n        /* \"#utility.yul\":3544:3556   */\n      mload\n        /* \"#utility.yul\":3534:3556   */\n      swap1\n      pop\n        /* \"#utility.yul\":3464:3563   */\n      swap2\n      swap1\n      pop\n      jump\t// out\n        /* \"#utility.yul\":3569:3746   */\n    tag_164:\n        /* \"#utility.yul\":3661:3672   */\n      0x00\n        /* \"#utility.yul\":3695:3701   */\n      dup3\n        /* \"#utility.yul\":3690:3693   */\n      dup3\n        /* \"#utility.yul\":3683:3702   */\n      mstore\n        /* \"#utility.yul\":3735:3739   */\n      0x20\n        /* \"#utility.yul\":3730:3733   */\n      dup3\n        /* \"#utility.yul\":3726:3740   */\n      add\n        /* \"#utility.yul\":3711:3740   */\n      swap1\n      pop\n        /* \"#utility.yul\":3569:3746   */\n      swap3\n      swap2\n      pop\n      pop\n      jump\t// out\n        /* \"#utility.yul\":3752:3998   */\n    tag_165:\n        /* \"#utility.yul\":3833:3834   */\n      0x00\n        /* \"#utility.yul\":3843:3956   */\n    tag_243:\n        /* \"#utility.yul\":3857:3863   */\n      dup4\n        /* \"#utility.yul\":3854:3855   */\n      dup2\n        /* \"#utility.yul\":3851:3864   */\n      lt\n        /* \"#utility.yul\":3843:3956   */\n      iszero\n      tag_245\n      jumpi\n        /* \"#utility.yul\":3942:3943   */\n      dup1\n        /* \"#utility.yul\":3937:3940   */\n      dup3\n        /* \"#utility.yul\":3933:3944   */\n      add\n        /* \"#utility.yul\":3927:3945   */\n      mload\n        /* \"#utility.yul\":3923:3924   */\n      dup2\n        /* \"#utility.yul\":3918:3921   */\n      dup5\n        /* \"#utility.yul\":3914:3925   */\n      add\n        /* \"#utility.yul\":3907:3946   */\n      mstore\n        /* \"#utility.yul\":3879:3881   */\n      0x20\n        /* \"#utility.yul\":3876:3877   */\n      dup2\n        /* \"#utility.yul\":3872:3882   */\n      add\n        /* \"#utility.yul\":3867:3882   */\n      swap1\n      pop\n        /* \"#utility.yul\":3843:3956   */\n      jump(tag_243)\n    tag_245:\n        /* \"#utility.yul\":3990:3991   */\n      0x00\n        /* \"#utility.yul\":3981:3987   */\n      dup5\n        /* \"#utility.yul\":3976:3979   */\n      dup5\n        /* \"#utility.yul\":3972:3988   */\n      add\n        /* \"#utility.yul\":3965:3992   */\n      mstore\n        /* \"#utility.yul\":3814:3998   */\n      pop\n        /* \"#utility.yul\":3752:3998   */\n      pop\n      pop\n      pop\n      jump\t// out\n        /* \"#utility.yul\":4004:4397   */\n    tag_166:\n        /* \"#utility.yul\":4100:4103   */\n      0x00\n        /* \"#utility.yul\":4128:4167   */\n      tag_247\n        /* \"#utility.yul\":4161:4166   */\n      dup3\n        /* \"#utility.yul\":4128:4167   */\n      tag_163\n      jump\t// in\n    tag_247:\n        /* \"#utility.yul\":4183:4262   */\n      tag_248\n        /* \"#utility.yul\":4255:4261   */\n      dup2\n        /* \"#utility.yul\":4250:4253   */\n      dup6\n        /* \"#utility.yul\":4183:4262   */\n      tag_164\n      jump\t// in\n    tag_248:\n        /* \"#utility.yul\":4176:4262   */\n      swap4\n      pop\n        /* \"#utility.yul\":4271:4336   */\n      tag_249\n        /* \"#utility.yul\":4329:4335   */\n      dup2\n        /* \"#utility.yul\":4324:4327   */\n      dup6\n        /* \"#utility.yul\":4317:4321   */\n      0x20\n        /* \"#utility.yul\":4310:4315   */\n      dup7\n        /* \"#utility.yul\":4306:4322   */\n      add\n        /* \"#utility.yul\":4271:4336   */\n      tag_165\n      jump\t// in\n    tag_249:\n        /* \"#utility.yul\":4361:4390   */\n      tag_250\n        /* \"#utility.yul\":4383:4389   */\n      dup2\n        /* \"#utility.yul\":4361:4390   */\n      tag_156\n      jump\t// in\n    tag_250:\n        /* \"#utility.yul\":4356:4359   */\n      dup5\n        /* \"#utility.yul\":4352:4391   */\n      add\n        /* \"#utility.yul\":4345:4391   */\n      swap2\n      pop\n        /* \"#utility.yul\":4104:4397   */\n      pop\n        /* \"#utility.yul\":4004:4397   */\n      swap3\n      swap2\n      pop\n      pop\n      jump\t// out\n        /* \"#utility.yul\":4403:4732   */\n    tag_8:\n        /* \"#utility.yul\":4524:4528   */\n      0x00\n        /* \"#utility.yul\":4562:4564   */\n      0x20\n        /* \"#utility.yul\":4551:4560   */\n      dup3\n        /* \"#utility.yul\":4547:4565   */\n      add\n        /* \"#utility.yul\":4539:4565   */\n      swap1\n      pop\n        /* \"#utility.yul\":4611:4620   */\n      dup2\n        /* \"#utility.yul\":4605:4609   */\n      dup2\n        /* \"#utility.yul\":4601:4621   */\n      sub\n        /* \"#utility.yul\":4597:4598   */\n      0x00\n        /* \"#utility.yul\":4586:4595   */\n      dup4\n        /* \"#utility.yul\":4582:4599   */\n      add\n        /* \"#utility.yul\":4575:4622   */\n      mstore\n        /* \"#utility.yul\":4639:4725   */\n      tag_252\n        /* \"#utility.yul\":4720:4724   */\n      dup2\n        /* \"#utility.yul\":4711:4717   */\n      dup5\n        /* \"#utility.yul\":4639:4725   */\n      tag_166\n      jump\t// in\n    tag_252:\n        /* \"#utility.yul\":4631:4725   */\n      swap1\n      pop\n        /* \"#utility.yul\":4403:4732   */\n      swap3\n      swap2\n      pop\n      pop\n      jump\t// out\n        /* \"#utility.yul\":4738:4918   */\n    tag_13:\n        /* \"#utility.yul\":4786:4863   */\n      0x4e487b7100000000000000000000000000000000000000000000000000000000\n        /* \"#utility.yul\":4783:4784   */\n      0x00\n        /* \"#utility.yul\":4776:4864   */\n      mstore\n        /* \"#utility.yul\":4883:4887   */\n      0x32\n        /* \"#utility.yul\":4880:4881   */\n      0x04\n        /* \"#utility.yul\":4873:4888   */\n      mstore\n        /* \"#utility.yul\":4907:4911   */\n      0x24\n        /* \"#utility.yul\":4904:4905   */\n      0x00\n        /* \"#utility.yul\":4897:4912   */\n      revert\n        /* \"#utility.yul\":4924:5072   */\n    tag_167:\n        /* \"#utility.yul\":5026:5037   */\n      0x00\n        /* \"#utility.yul\":5063:5066   */\n      dup2\n        /* \"#utility.yul\":5048:5066   */\n      swap1\n      pop\n        /* \"#utility.yul\":4924:5072   */\n      swap3\n      swap2\n      pop\n      pop\n      jump\t// out\n        /* \"#utility.yul\":5078:5247   */\n    tag_168:\n        /* \"#utility.yul\":5218:5231   */\n      0x2a7b66696c6c3a72676228000000000000000000000000000000000000000000\n        /* \"#utility.yul\":5214:5215   */\n      0x00\n        /* \"#utility.yul\":5206:5212   */\n      dup3\n        /* \"#utility.yul\":5202:5216   */\n      add\n        /* \"#utility.yul\":5195:5232   */\n      mstore\n        /* \"#utility.yul\":5078:5247   */\n      pop\n      jump\t// out\n        /* \"#utility.yul\":5261:5695   */\n    tag_169:\n        /* \"#utility.yul\":5421:5424   */\n      0x00\n        /* \"#utility.yul\":5450:5535   */\n      tag_257\n        /* \"#utility.yul\":5532:5534   */\n      0x0b\n        /* \"#utility.yul\":5527:5530   */\n      dup4\n        /* \"#utility.yul\":5450:5535   */\n      tag_167\n      jump\t// in\n    tag_257:\n        /* \"#utility.yul\":5443:5535   */\n      swap2\n      pop\n        /* \"#utility.yul\":5552:5645   */\n      tag_258\n        /* \"#utility.yul\":5641:5644   */\n      dup3\n        /* \"#utility.yul\":5552:5645   */\n      tag_168\n      jump\t// in\n    tag_258:\n        /* \"#utility.yul\":5678:5680   */\n      0x0b\n        /* \"#utility.yul\":5673:5676   */\n      dup3\n        /* \"#utility.yul\":5669:5681   */\n      add\n        /* \"#utility.yul\":5662:5681   */\n      swap1\n      pop\n        /* \"#utility.yul\":5261:5695   */\n      swap2\n      swap1\n      pop\n      jump\t// out\n        /* \"#utility.yul\":5709:6139   */\n    tag_170:\n        /* \"#utility.yul\":5815:5818   */\n      0x00\n        /* \"#utility.yul\":5851:5890   */\n      tag_260\n        /* \"#utility.yul\":5884:5889   */\n      dup3\n        /* \"#utility.yul\":5851:5890   */\n      tag_163\n      jump\t// in\n    tag_260:\n        /* \"#utility.yul\":5914:6003   */\n      tag_261\n        /* \"#utility.yul\":5996:6002   */\n      dup2\n        /* \"#utility.yul\":5991:5994   */\n      dup6\n        /* \"#utility.yul\":5914:6003   */\n      tag_167\n      jump\t// in\n    tag_261:\n        /* \"#utility.yul\":5907:6003   */\n      swap4\n      pop\n        /* \"#utility.yul\":6020:6085   */\n      tag_262\n        /* \"#utility.yul\":6078:6084   */\n      dup2\n        /* \"#utility.yul\":6073:6076   */\n      dup6\n        /* \"#utility.yul\":6066:6070   */\n      0x20\n        /* \"#utility.yul\":6059:6064   */\n      dup7\n        /* \"#utility.yul\":6055:6071   */\n      add\n        /* \"#utility.yul\":6020:6085   */\n      tag_165\n      jump\t// in\n    tag_262:\n        /* \"#utility.yul\":6118:6124   */\n      dup1\n        /* \"#utility.yul\":6113:6116   */\n      dup5\n        /* \"#utility.yul\":6109:6125   */\n      add\n        /* \"#utility.yul\":6102:6125   */\n      swap2\n      pop\n        /* \"#utility.yul\":5819:6139   */\n      pop\n        /* \"#utility.yul\":5709:6139   */\n      swap3\n      swap2\n      pop\n      pop\n      jump\t// out\n        /* \"#utility.yul\":6153:6320   */\n    tag_171:\n        /* \"#utility.yul\":6301:6304   */\n      0x2c00000000000000000000000000000000000000000000000000000000000000\n        /* \"#utility.yul\":6297:6298   */\n      0x00\n        /* \"#utility.yul\":6289:6295   */\n      dup3\n        /* \"#utility.yul\":6285:6299   */\n      add\n        /* \"#utility.yul\":6278:6305   */\n      mstore\n        /* \"#utility.yul\":6153:6320   */\n      pop\n      jump\t// out\n        /* \"#utility.yul\":6334:6766   */\n    tag_172:\n        /* \"#utility.yul\":6494:6497   */\n      0x00\n        /* \"#utility.yul\":6523:6607   */\n      tag_265\n        /* \"#utility.yul\":6605:6606   */\n      0x01\n        /* \"#utility.yul\":6600:6603   */\n      dup4\n        /* \"#utility.yul\":6523:6607   */\n      tag_167\n      jump\t// in\n    tag_265:\n        /* \"#utility.yul\":6516:6607   */\n      swap2\n      pop\n        /* \"#utility.yul\":6624:6717   */\n      tag_266\n        /* \"#utility.yul\":6713:6716   */\n      dup3\n        /* \"#utility.yul\":6624:6717   */\n      tag_171\n      jump\t// in\n    tag_266:\n        /* \"#utility.yul\":6750:6751   */\n      0x01\n        /* \"#utility.yul\":6745:6748   */\n      dup3\n        /* \"#utility.yul\":6741:6752   */\n      add\n        /* \"#utility.yul\":6734:6752   */\n      swap1\n      pop\n        /* \"#utility.yul\":6334:6766   */\n      swap2\n      swap1\n      pop\n      jump\t// out\n        /* \"#utility.yul\":6780:6949   */\n    tag_173:\n        /* \"#utility.yul\":6920:6941   */\n      0x297d2362677b66696c6c3a233043304330437d00000000000000000000000000\n        /* \"#utility.yul\":6916:6917   */\n      0x00\n        /* \"#utility.yul\":6908:6914   */\n      dup3\n        /* \"#utility.yul\":6904:6918   */\n      add\n        /* \"#utility.yul\":6897:6942   */\n      mstore\n        /* \"#utility.yul\":6780:6949   */\n      pop\n      jump\t// out\n        /* \"#utility.yul\":6955:7357   */\n    tag_174:\n        /* \"#utility.yul\":7115:7118   */\n      0x00\n        /* \"#utility.yul\":7136:7221   */\n      tag_269\n        /* \"#utility.yul\":7218:7220   */\n      0x13\n        /* \"#utility.yul\":7213:7216   */\n      dup4\n        /* \"#utility.yul\":7136:7221   */\n      tag_167\n      jump\t// in\n    tag_269:\n        /* \"#utility.yul\":7129:7221   */\n      swap2\n      pop\n        /* \"#utility.yul\":7230:7323   */\n      tag_270\n        /* \"#utility.yul\":7319:7322   */\n      dup3\n        /* \"#utility.yul\":7230:7323   */\n      tag_173\n      jump\t// in\n    tag_270:\n        /* \"#utility.yul\":7348:7350   */\n      0x13\n        /* \"#utility.yul\":7343:7346   */\n      dup3\n        /* \"#utility.yul\":7339:7351   */\n      add\n        /* \"#utility.yul\":7332:7351   */\n      swap1\n      pop\n        /* \"#utility.yul\":6955:7357   */\n      swap2\n      swap1\n      pop\n      jump\t// out\n        /* \"#utility.yul\":7363:9022   */\n    tag_22:\n        /* \"#utility.yul\":7995:7998   */\n      0x00\n        /* \"#utility.yul\":8017:8165   */\n      tag_272\n        /* \"#utility.yul\":8161:8164   */\n      dup3\n        /* \"#utility.yul\":8017:8165   */\n      tag_169\n      jump\t// in\n    tag_272:\n        /* \"#utility.yul\":8010:8165   */\n      swap2\n      pop\n        /* \"#utility.yul\":8182:8277   */\n      tag_273\n        /* \"#utility.yul\":8273:8276   */\n      dup3\n        /* \"#utility.yul\":8264:8270   */\n      dup7\n        /* \"#utility.yul\":8182:8277   */\n      tag_170\n      jump\t// in\n    tag_273:\n        /* \"#utility.yul\":8175:8277   */\n      swap2\n      pop\n        /* \"#utility.yul\":8294:8442   */\n      tag_274\n        /* \"#utility.yul\":8438:8441   */\n      dup3\n        /* \"#utility.yul\":8294:8442   */\n      tag_172\n      jump\t// in\n    tag_274:\n        /* \"#utility.yul\":8287:8442   */\n      swap2\n      pop\n        /* \"#utility.yul\":8459:8554   */\n      tag_275\n        /* \"#utility.yul\":8550:8553   */\n      dup3\n        /* \"#utility.yul\":8541:8547   */\n      dup6\n        /* \"#utility.yul\":8459:8554   */\n      tag_170\n      jump\t// in\n    tag_275:\n        /* \"#utility.yul\":8452:8554   */\n      swap2\n      pop\n        /* \"#utility.yul\":8571:8719   */\n      tag_276\n        /* \"#utility.yul\":8715:8718   */\n      dup3\n        /* \"#utility.yul\":8571:8719   */\n      tag_172\n      jump\t// in\n    tag_276:\n        /* \"#utility.yul\":8564:8719   */\n      swap2\n      pop\n        /* \"#utility.yul\":8736:8831   */\n      tag_277\n        /* \"#utility.yul\":8827:8830   */\n      dup3\n        /* \"#utility.yul\":8818:8824   */\n      dup5\n        /* \"#utility.yul\":8736:8831   */\n      tag_170\n      jump\t// in\n    tag_277:\n        /* \"#utility.yul\":8729:8831   */\n      swap2\n      pop\n        /* \"#utility.yul\":8848:8996   */\n      tag_278\n        /* \"#utility.yul\":8992:8995   */\n      dup3\n        /* \"#utility.yul\":8848:8996   */\n      tag_174\n      jump\t// in\n    tag_278:\n        /* \"#utility.yul\":8841:8996   */\n      swap2\n      pop\n        /* \"#utility.yul\":9013:9016   */\n      dup2\n        /* \"#utility.yul\":9006:9016   */\n      swap1\n      pop\n        /* \"#utility.yul\":7363:9022   */\n      swap5\n      swap4\n      pop\n      pop\n      pop\n      pop\n      jump\t// out\n        /* \"#utility.yul\":9028:9463   */\n    tag_32:\n        /* \"#utility.yul\":9208:9211   */\n      0x00\n        /* \"#utility.yul\":9230:9325   */\n      tag_280\n        /* \"#utility.yul\":9321:9324   */\n      dup3\n        /* \"#utility.yul\":9312:9318   */\n      dup6\n        /* \"#utility.yul\":9230:9325   */\n      tag_170\n      jump\t// in\n    tag_280:\n        /* \"#utility.yul\":9223:9325   */\n      swap2\n      pop\n        /* \"#utility.yul\":9342:9437   */\n      tag_281\n        /* \"#utility.yul\":9433:9436   */\n      dup3\n        /* \"#utility.yul\":9424:9430   */\n      dup5\n        /* \"#utility.yul\":9342:9437   */\n      tag_170\n      jump\t// in\n    tag_281:\n        /* \"#utility.yul\":9335:9437   */\n      swap2\n      pop\n        /* \"#utility.yul\":9454:9457   */\n      dup2\n        /* \"#utility.yul\":9447:9457   */\n      swap1\n      pop\n        /* \"#utility.yul\":9028:9463   */\n      swap4\n      swap3\n      pop\n      pop\n      pop\n      jump\t// out\n        /* \"#utility.yul\":9469:9633   */\n    tag_175:\n        /* \"#utility.yul\":9609:9625   */\n      0x3c2f7374796c653e3c2f7376673e000000000000000000000000000000000000\n        /* \"#utility.yul\":9605:9606   */\n      0x00\n        /* \"#utility.yul\":9597:9603   */\n      dup3\n        /* \"#utility.yul\":9593:9607   */\n      add\n        /* \"#utility.yul\":9586:9626   */\n      mstore\n        /* \"#utility.yul\":9469:9633   */\n      pop\n      jump\t// out\n        /* \"#utility.yul\":9639:10041   */\n    tag_176:\n        /* \"#utility.yul\":9799:9802   */\n      0x00\n        /* \"#utility.yul\":9820:9905   */\n      tag_284\n        /* \"#utility.yul\":9902:9904   */\n      0x0e\n        /* \"#utility.yul\":9897:9900   */\n      dup4\n        /* \"#utility.yul\":9820:9905   */\n      tag_167\n      jump\t// in\n    tag_284:\n        /* \"#utility.yul\":9813:9905   */\n      swap2\n      pop\n        /* \"#utility.yul\":9914:10007   */\n      tag_285\n        /* \"#utility.yul\":10003:10006   */\n      dup3\n        /* \"#utility.yul\":9914:10007   */\n      tag_175\n      jump\t// in\n    tag_285:\n        /* \"#utility.yul\":10032:10034   */\n      0x0e\n        /* \"#utility.yul\":10027:10030   */\n      dup3\n        /* \"#utility.yul\":10023:10035   */\n      add\n        /* \"#utility.yul\":10016:10035   */\n      swap1\n      pop\n        /* \"#utility.yul\":9639:10041   */\n      swap2\n      swap1\n      pop\n      jump\t// out\n        /* \"#utility.yul\":10047:10748   */\n    tag_58:\n        /* \"#utility.yul\":10328:10331   */\n      0x00\n        /* \"#utility.yul\":10350:10445   */\n      tag_287\n        /* \"#utility.yul\":10441:10444   */\n      dup3\n        /* \"#utility.yul\":10432:10438   */\n      dup6\n        /* \"#utility.yul\":10350:10445   */\n      tag_170\n      jump\t// in\n    tag_287:\n        /* \"#utility.yul\":10343:10445   */\n      swap2\n      pop\n        /* \"#utility.yul\":10462:10557   */\n      tag_288\n        /* \"#utility.yul\":10553:10556   */\n      dup3\n        /* \"#utility.yul\":10544:10550   */\n      dup5\n        /* \"#utility.yul\":10462:10557   */\n      tag_170\n      jump\t// in\n    tag_288:\n        /* \"#utility.yul\":10455:10557   */\n      swap2\n      pop\n        /* \"#utility.yul\":10574:10722   */\n      tag_289\n        /* \"#utility.yul\":10718:10721   */\n      dup3\n        /* \"#utility.yul\":10574:10722   */\n      tag_176\n      jump\t// in\n    tag_289:\n        /* \"#utility.yul\":10567:10722   */\n      swap2\n      pop\n        /* \"#utility.yul\":10739:10742   */\n      dup2\n        /* \"#utility.yul\":10732:10742   */\n      swap1\n      pop\n        /* \"#utility.yul\":10047:10748   */\n      swap4\n      swap3\n      pop\n      pop\n      pop\n      jump\t// out\n        /* \"#utility.yul\":10754:10934   */\n    tag_177:\n        /* \"#utility.yul\":10802:10879   */\n      0x4e487b7100000000000000000000000000000000000000000000000000000000\n        /* \"#utility.yul\":10799:10800   */\n      0x00\n        /* \"#utility.yul\":10792:10880   */\n      mstore\n        /* \"#utility.yul\":10899:10903   */\n      0x11\n        /* \"#utility.yul\":10896:10897   */\n      0x04\n        /* \"#utility.yul\":10889:10904   */\n      mstore\n        /* \"#utility.yul\":10923:10927   */\n      0x24\n        /* \"#utility.yul\":10920:10921   */\n      0x00\n        /* \"#utility.yul\":10913:10928   */\n      revert\n        /* \"#utility.yul\":10940:11173   */\n    tag_64:\n        /* \"#utility.yul\":10979:10982   */\n      0x00\n        /* \"#utility.yul\":11002:11026   */\n      tag_292\n        /* \"#utility.yul\":11020:11025   */\n      dup3\n        /* \"#utility.yul\":11002:11026   */\n      tag_152\n      jump\t// in\n    tag_292:\n        /* \"#utility.yul\":10993:11026   */\n      swap2\n      pop\n        /* \"#utility.yul\":11048:11114   */\n      0xffffffffffffffffffffffffffffffffffffffffffffffffffffffffffffffff\n        /* \"#utility.yul\":11041:11046   */\n      dup3\n        /* \"#utility.yul\":11038:11115   */\n      sub\n        /* \"#utility.yul\":11035:11138   */\n      tag_293\n      jumpi\n        /* \"#utility.yul\":11118:11136   */\n      tag_294\n      tag_177\n      jump\t// in\n    tag_294:\n        /* \"#utility.yul\":11035:11138   */\n    tag_293:\n        /* \"#utility.yul\":11165:11166   */\n      0x01\n        /* \"#utility.yul\":11158:11163   */\n      dup3\n        /* \"#utility.yul\":11154:11167   */\n      add\n        /* \"#utility.yul\":11147:11167   */\n      swap1\n      pop\n        /* \"#utility.yul\":10940:11173   */\n      swap2\n      swap1\n      pop\n      jump\t// out\n        /* \"#utility.yul\":11179:11359   */\n    tag_178:\n        /* \"#utility.yul\":11227:11304   */\n      0x4e487b7100000000000000000000000000000000000000000000000000000000\n        /* \"#utility.yul\":11224:11225   */\n      0x00\n        /* \"#utility.yul\":11217:11305   */\n      mstore\n        /* \"#utility.yul\":11324:11328   */\n      0x12\n        /* \"#utility.yul\":11321:11322   */\n      0x04\n        /* \"#utility.yul\":11314:11329   */\n      mstore\n        /* \"#utility.yul\":11348:11352   */\n      0x24\n        /* \"#utility.yul\":11345:11346   */\n      0x00\n        /* \"#utility.yul\":11338:11353   */\n      revert\n        /* \"#utility.yul\":11365:11550   */\n    tag_66:\n        /* \"#utility.yul\":11405:11406   */\n      0x00\n        /* \"#utility.yul\":11422:11442   */\n      tag_297\n        /* \"#utility.yul\":11440:11441   */\n      dup3\n        /* \"#utility.yul\":11422:11442   */\n      tag_152\n      jump\t// in\n    tag_297:\n        /* \"#utility.yul\":11417:11442   */\n      swap2\n      pop\n        /* \"#utility.yul\":11456:11476   */\n      tag_298\n        /* \"#utility.yul\":11474:11475   */\n      dup4\n        /* \"#utility.yul\":11456:11476   */\n      tag_152\n      jump\t// in\n    tag_298:\n        /* \"#utility.yul\":11451:11476   */\n      swap3\n      pop\n        /* \"#utility.yul\":11495:11496   */\n      dup3\n        /* \"#utility.yul\":11485:11520   */\n      tag_299\n      jumpi\n        /* \"#utility.yul\":11500:11518   */\n      tag_300\n      tag_178\n      jump\t// in\n    tag_300:\n        /* \"#utility.yul\":11485:11520   */\n    tag_299:\n        /* \"#utility.yul\":11542:11543   */\n      dup3\n        /* \"#utility.yul\":11539:11540   */\n      dup3\n        /* \"#utility.yul\":11535:11544   */\n      div\n        /* \"#utility.yul\":11530:11544   */\n      swap1\n      pop\n        /* \"#utility.yul\":11365:11550   */\n      swap3\n      swap2\n      pop\n      pop\n      jump\t// out\n        /* \"#utility.yul\":11556:11750   */\n    tag_74:\n        /* \"#utility.yul\":11596:11600   */\n      0x00\n        /* \"#utility.yul\":11616:11636   */\n      tag_302\n        /* \"#utility.yul\":11634:11635   */\n      dup3\n        /* \"#utility.yul\":11616:11636   */\n      tag_152\n      jump\t// in\n    tag_302:\n        /* \"#utility.yul\":11611:11636   */\n      swap2\n      pop\n        /* \"#utility.yul\":11650:11670   */\n      tag_303\n        /* \"#utility.yul\":11668:11669   */\n      dup4\n        /* \"#utility.yul\":11650:11670   */\n      tag_152\n      jump\t// in\n    tag_303:\n        /* \"#utility.yul\":11645:11670   */\n      swap3\n      pop\n        /* \"#utility.yul\":11694:11695   */\n      dup3\n        /* \"#utility.yul\":11691:11692   */\n      dup3\n        /* \"#utility.yul\":11687:11696   */\n      sub\n        /* \"#utility.yul\":11679:11696   */\n      swap1\n      pop\n        /* \"#utility.yul\":11718:11719   */\n      dup2\n        /* \"#utility.yul\":11712:11716   */\n      dup2\n        /* \"#utility.yul\":11709:11720   */\n      gt\n        /* \"#utility.yul\":11706:11743   */\n      iszero\n      tag_304\n      jumpi\n        /* \"#utility.yul\":11723:11741   */\n      tag_305\n      tag_177\n      jump\t// in\n    tag_305:\n        /* \"#utility.yul\":11706:11743   */\n    tag_304:\n        /* \"#utility.yul\":11556:11750   */\n      swap3\n      swap2\n      pop\n      pop\n      jump\t// out\n        /* \"#utility.yul\":11756:12166   */\n    tag_77:\n        /* \"#utility.yul\":11796:11803   */\n      0x00\n        /* \"#utility.yul\":11819:11839   */\n      tag_307\n        /* \"#utility.yul\":11837:11838   */\n      dup3\n        /* \"#utility.yul\":11819:11839   */\n      tag_152\n      jump\t// in\n    tag_307:\n        /* \"#utility.yul\":11814:11839   */\n      swap2\n      pop\n        /* \"#utility.yul\":11853:11873   */\n      tag_308\n        /* \"#utility.yul\":11871:11872   */\n      dup4\n        /* \"#utility.yul\":11853:11873   */\n      tag_152\n      jump\t// in\n    tag_308:\n        /* \"#utility.yul\":11848:11873   */\n      swap3\n      pop\n        /* \"#utility.yul\":11908:11909   */\n      dup3\n        /* \"#utility.yul\":11905:11906   */\n      dup3\n        /* \"#utility.yul\":11901:11910   */\n      mul\n        /* \"#utility.yul\":11930:11960   */\n      tag_309\n        /* \"#utility.yul\":11948:11959   */\n      dup2\n        /* \"#utility.yul\":11930:11960   */\n      tag_152\n      jump\t// in\n    tag_309:\n        /* \"#utility.yul\":11919:11960   */\n      swap2\n      pop\n        /* \"#utility.yul\":12109:12110   */\n      dup3\n        /* \"#utility.yul\":12100:12107   */\n      dup3\n        /* \"#utility.yul\":12096:12111   */\n      div\n        /* \"#utility.yul\":12093:12094   */\n      dup5\n        /* \"#utility.yul\":12090:12112   */\n      eq\n        /* \"#utility.yul\":12070:12071   */\n      dup4\n        /* \"#utility.yul\":12063:12072   */\n      iszero\n        /* \"#utility.yul\":12043:12126   */\n      or\n        /* \"#utility.yul\":12020:12159   */\n      tag_310\n      jumpi\n        /* \"#utility.yul\":12139:12157   */\n      tag_311\n      tag_177\n      jump\t// in\n    tag_311:\n        /* \"#utility.yul\":12020:12159   */\n    tag_310:\n        /* \"#utility.yul\":11804:12166   */\n      pop\n        /* \"#utility.yul\":11756:12166   */\n      swap3\n      swap2\n      pop\n      pop\n      jump\t// out\n        /* \"#utility.yul\":12172:12258   */\n    tag_179:\n        /* \"#utility.yul\":12207:12214   */\n      0x00\n        /* \"#utility.yul\":12247:12251   */\n      0xff\n        /* \"#utility.yul\":12240:12245   */\n      dup3\n        /* \"#utility.yul\":12236:12252   */\n      and\n        /* \"#utility.yul\":12225:12252   */\n      swap1\n      pop\n        /* \"#utility.yul\":12172:12258   */\n      swap2\n      swap1\n      pop\n      jump\t// out\n        /* \"#utility.yul\":12264:12452   */\n    tag_80:\n        /* \"#utility.yul\":12302:12305   */\n      0x00\n        /* \"#utility.yul\":12321:12339   */\n      tag_314\n        /* \"#utility.yul\":12337:12338   */\n      dup3\n        /* \"#utility.yul\":12321:12339   */\n      tag_179\n      jump\t// in\n    tag_314:\n        /* \"#utility.yul\":12316:12339   */\n      swap2\n      pop\n        /* \"#utility.yul\":12353:12371   */\n      tag_315\n        /* \"#utility.yul\":12369:12370   */\n      dup4\n        /* \"#utility.yul\":12353:12371   */\n      tag_179\n      jump\t// in\n    tag_315:\n        /* \"#utility.yul\":12348:12371   */\n      swap3\n      pop\n        /* \"#utility.yul\":12394:12395   */\n      dup3\n        /* \"#utility.yul\":12391:12392   */\n      dup3\n        /* \"#utility.yul\":12387:12396   */\n      add\n        /* \"#utility.yul\":12380:12396   */\n      swap1\n      pop\n        /* \"#utility.yul\":12417:12421   */\n      0xff\n        /* \"#utility.yul\":12412:12415   */\n      dup2\n        /* \"#utility.yul\":12409:12422   */\n      gt\n        /* \"#utility.yul\":12406:12445   */\n      iszero\n      tag_316\n      jumpi\n        /* \"#utility.yul\":12425:12443   */\n      tag_317\n      tag_177\n      jump\t// in\n    tag_317:\n        /* \"#utility.yul\":12406:12445   */\n    tag_316:\n        /* \"#utility.yul\":12264:12452   */\n      swap3\n      swap2\n      pop\n      pop\n      jump\t// out\n        /* \"#utility.yul\":12458:12634   */\n    tag_92:\n        /* \"#utility.yul\":12490:12491   */\n      0x00\n        /* \"#utility.yul\":12507:12527   */\n      tag_319\n        /* \"#utility.yul\":12525:12526   */\n      dup3\n        /* \"#utility.yul\":12507:12527   */\n      tag_152\n      jump\t// in\n    tag_319:\n        /* \"#utility.yul\":12502:12527   */\n      swap2\n      pop\n        /* \"#utility.yul\":12541:12561   */\n      tag_320\n        /* \"#utility.yul\":12559:12560   */\n      dup4\n        /* \"#utility.yul\":12541:12561   */\n      tag_152\n      jump\t// in\n    tag_320:\n        /* \"#utility.yul\":12536:12561   */\n      swap3\n      pop\n        /* \"#utility.yul\":12580:12581   */\n      dup3\n        /* \"#utility.yul\":12570:12605   */\n      tag_321\n      jumpi\n        /* \"#utility.yul\":12585:12603   */\n      tag_322\n      tag_178\n      jump\t// in\n    tag_322:\n        /* \"#utility.yul\":12570:12605   */\n    tag_321:\n        /* \"#utility.yul\":12626:12627   */\n      dup3\n        /* \"#utility.yul\":12623:12624   */\n      dup3\n        /* \"#utility.yul\":12619:12628   */\n      mod\n        /* \"#utility.yul\":12614:12628   */\n      swap1\n      pop\n        /* \"#utility.yul\":12458:12634   */\n      swap3\n      swap2\n      pop\n      pop\n      jump\t// out\n        /* \"#utility.yul\":12640:12792   */\n    tag_180:\n        /* \"#utility.yul\":12780:12784   */\n      0x2370000000000000000000000000000000000000000000000000000000000000\n        /* \"#utility.yul\":12776:12777   */\n      0x00\n        /* \"#utility.yul\":12768:12774   */\n      dup3\n        /* \"#utility.yul\":12764:12778   */\n      add\n        /* \"#utility.yul\":12757:12785   */\n      mstore\n        /* \"#utility.yul\":12640:12792   */\n      pop\n      jump\t// out\n        /* \"#utility.yul\":12798:13198   */\n    tag_181:\n        /* \"#utility.yul\":12958:12961   */\n      0x00\n        /* \"#utility.yul\":12979:13063   */\n      tag_325\n        /* \"#utility.yul\":13061:13062   */\n      0x02\n        /* \"#utility.yul\":13056:13059   */\n      dup4\n        /* \"#utility.yul\":12979:13063   */\n      tag_167\n      jump\t// in\n    tag_325:\n        /* \"#utility.yul\":12972:13063   */\n      swap2\n      pop\n        /* \"#utility.yul\":13072:13165   */\n      tag_326\n        /* \"#utility.yul\":13161:13164   */\n      dup3\n        /* \"#utility.yul\":13072:13165   */\n      tag_180\n      jump\t// in\n    tag_326:\n        /* \"#utility.yul\":13190:13191   */\n      0x02\n        /* \"#utility.yul\":13185:13188   */\n      dup3\n        /* \"#utility.yul\":13181:13192   */\n      add\n        /* \"#utility.yul\":13174:13192   */\n      swap1\n      pop\n        /* \"#utility.yul\":12798:13198   */\n      swap2\n      swap1\n      pop\n      jump\t// out\n        /* \"#utility.yul\":13204:13356   */\n    tag_182:\n        /* \"#utility.yul\":13344:13348   */\n      0x312c000000000000000000000000000000000000000000000000000000000000\n        /* \"#utility.yul\":13340:13341   */\n      0x00\n        /* \"#utility.yul\":13332:13338   */\n      dup3\n        /* \"#utility.yul\":13328:13342   */\n      add\n        /* \"#utility.yul\":13321:13349   */\n      mstore\n        /* \"#utility.yul\":13204:13356   */\n      pop\n      jump\t// out\n        /* \"#utility.yul\":13362:13762   */\n    tag_183:\n        /* \"#utility.yul\":13522:13525   */\n      0x00\n        /* \"#utility.yul\":13543:13627   */\n      tag_329\n        /* \"#utility.yul\":13625:13626   */\n      0x02\n        /* \"#utility.yul\":13620:13623   */\n      dup4\n        /* \"#utility.yul\":13543:13627   */\n      tag_167\n      jump\t// in\n    tag_329:\n        /* \"#utility.yul\":13536:13627   */\n      swap2\n      pop\n        /* \"#utility.yul\":13636:13729   */\n      tag_330\n        /* \"#utility.yul\":13725:13728   */\n      dup3\n        /* \"#utility.yul\":13636:13729   */\n      tag_182\n      jump\t// in\n    tag_330:\n        /* \"#utility.yul\":13754:13755   */\n      0x02\n        /* \"#utility.yul\":13749:13752   */\n      dup3\n        /* \"#utility.yul\":13745:13756   */\n      add\n        /* \"#utility.yul\":13738:13756   */\n      swap1\n      pop\n        /* \"#utility.yul\":13362:13762   */\n      swap2\n      swap1\n      pop\n      jump\t// out\n        /* \"#utility.yul\":13768:13920   */\n    tag_184:\n        /* \"#utility.yul\":13908:13912   */\n      0x322c000000000000000000000000000000000000000000000000000000000000\n        /* \"#utility.yul\":13904:13905   */\n      0x00\n        /* \"#utility.yul\":13896:13902   */\n      dup3\n        /* \"#utility.yul\":13892:13906   */\n      add\n        /* \"#utility.yul\":13885:13913   */\n      mstore\n        /* \"#utility.yul\":13768:13920   */\n      pop\n      jump\t// out\n        /* \"#utility.yul\":13926:14326   */\n    tag_185:\n        /* \"#utility.yul\":14086:14089   */\n      0x00\n        /* \"#utility.yul\":14107:14191   */\n      tag_333\n        /* \"#utility.yul\":14189:14190   */\n      0x02\n        /* \"#utility.yul\":14184:14187   */\n      dup4\n        /* \"#utility.yul\":14107:14191   */\n      tag_167\n      jump\t// in\n    tag_333:\n        /* \"#utility.yul\":14100:14191   */\n      swap2\n      pop\n        /* \"#utility.yul\":14200:14293   */\n      tag_334\n        /* \"#utility.yul\":14289:14292   */\n      dup3\n        /* \"#utility.yul\":14200:14293   */\n      tag_184\n      jump\t// in\n    tag_334:\n        /* \"#utility.yul\":14318:14319   */\n      0x02\n        /* \"#utility.yul\":14313:14316   */\n      dup3\n        /* \"#utility.yul\":14309:14320   */\n      add\n        /* \"#utility.yul\":14302:14320   */\n      swap1\n      pop\n        /* \"#utility.yul\":13926:14326   */\n      swap2\n      swap1\n      pop\n      jump\t// out\n        /* \"#utility.yul\":14332:14484   */\n    tag_186:\n        /* \"#utility.yul\":14472:14476   */\n      0x332c000000000000000000000000000000000000000000000000000000000000\n        /* \"#utility.yul\":14468:14469   */\n      0x00\n        /* \"#utility.yul\":14460:14466   */\n      dup3\n        /* \"#utility.yul\":14456:14470   */\n      add\n        /* \"#utility.yul\":14449:14477   */\n      mstore\n        /* \"#utility.yul\":14332:14484   */\n      pop\n      jump\t// out\n        /* \"#utility.yul\":14490:14890   */\n    tag_187:\n        /* \"#utility.yul\":14650:14653   */\n      0x00\n        /* \"#utility.yul\":14671:14755   */\n      tag_337\n        /* \"#utility.yul\":14753:14754   */\n      0x02\n        /* \"#utility.yul\":14748:14751   */\n      dup4\n        /* \"#utility.yul\":14671:14755   */\n      tag_167\n      jump\t// in\n    tag_337:\n        /* \"#utility.yul\":14664:14755   */\n      swap2\n      pop\n        /* \"#utility.yul\":14764:14857   */\n      tag_338\n        /* \"#utility.yul\":14853:14856   */\n      dup3\n        /* \"#utility.yul\":14764:14857   */\n      tag_186\n      jump\t// in\n    tag_338:\n        /* \"#utility.yul\":14882:14883   */\n      0x02\n        /* \"#utility.yul\":14877:14880   */\n      dup3\n        /* \"#utility.yul\":14873:14884   */\n      add\n        /* \"#utility.yul\":14866:14884   */\n      swap1\n      pop\n        /* \"#utility.yul\":14490:14890   */\n      swap2\n      swap1\n      pop\n      jump\t// out\n        /* \"#utility.yul\":14896:15048   */\n    tag_188:\n        /* \"#utility.yul\":15036:15040   */\n      0x352c000000000000000000000000000000000000000000000000000000000000\n        /* \"#utility.yul\":15032:15033   */\n      0x00\n        /* \"#utility.yul\":15024:15030   */\n      dup3\n        /* \"#utility.yul\":15020:15034   */\n      add\n        /* \"#utility.yul\":15013:15041   */\n      mstore\n        /* \"#utility.yul\":14896:15048   */\n      pop\n      jump\t// out\n        /* \"#utility.yul\":15054:15454   */\n    tag_189:\n        /* \"#utility.yul\":15214:15217   */\n      0x00\n        /* \"#utility.yul\":15235:15319   */\n      tag_341\n        /* \"#utility.yul\":15317:15318   */\n      0x02\n        /* \"#utility.yul\":15312:15315   */\n      dup4\n        /* \"#utility.yul\":15235:15319   */\n      tag_167\n      jump\t// in\n    tag_341:\n        /* \"#utility.yul\":15228:15319   */\n      swap2\n      pop\n        /* \"#utility.yul\":15328:15421   */\n      tag_342\n        /* \"#utility.yul\":15417:15420   */\n      dup3\n        /* \"#utility.yul\":15328:15421   */\n      tag_188\n      jump\t// in\n    tag_342:\n        /* \"#utility.yul\":15446:15447   */\n      0x02\n        /* \"#utility.yul\":15441:15444   */\n      dup3\n        /* \"#utility.yul\":15437:15448   */\n      add\n        /* \"#utility.yul\":15430:15448   */\n      swap1\n      pop\n        /* \"#utility.yul\":15054:15454   */\n      swap2\n      swap1\n      pop\n      jump\t// out\n        /* \"#utility.yul\":15460:15612   */\n    tag_190:\n        /* \"#utility.yul\":15600:15604   */\n      0x362c000000000000000000000000000000000000000000000000000000000000\n        /* \"#utility.yul\":15596:15597   */\n      0x00\n        /* \"#utility.yul\":15588:15594   */\n      dup3\n        /* \"#utility.yul\":15584:15598   */\n      add\n        /* \"#utility.yul\":15577:15605   */\n      mstore\n        /* \"#utility.yul\":15460:15612   */\n      pop\n      jump\t// out\n        /* \"#utility.yul\":15618:16018   */\n    tag_191:\n        /* \"#utility.yul\":15778:15781   */\n      0x00\n        /* \"#utility.yul\":15799:15883   */\n      tag_345\n        /* \"#utility.yul\":15881:15882   */\n      0x02\n        /* \"#utility.yul\":15876:15879   */\n      dup4\n        /* \"#utility.yul\":15799:15883   */\n      tag_167\n      jump\t// in\n    tag_345:\n        /* \"#utility.yul\":15792:15883   */\n      swap2\n      pop\n        /* \"#utility.yul\":15892:15985   */\n      tag_346\n        /* \"#utility.yul\":15981:15984   */\n      dup3\n        /* \"#utility.yul\":15892:15985   */\n      tag_190\n      jump\t// in\n    tag_346:\n        /* \"#utility.yul\":16010:16011   */\n      0x02\n        /* \"#utility.yul\":16005:16008   */\n      dup3\n        /* \"#utility.yul\":16001:16012   */\n      add\n        /* \"#utility.yul\":15994:16012   */\n      swap1\n      pop\n        /* \"#utility.yul\":15618:16018   */\n      swap2\n      swap1\n      pop\n      jump\t// out\n        /* \"#utility.yul\":16024:16192   */\n    tag_192:\n        /* \"#utility.yul\":16164:16184   */\n      0x37207b66696c6c2d6f7061636974793a317d0000000000000000000000000000\n        /* \"#utility.yul\":16160:16161   */\n      0x00\n        /* \"#utility.yul\":16152:16158   */\n      dup3\n        /* \"#utility.yul\":16148:16162   */\n      add\n        /* \"#utility.yul\":16141:16185   */\n      mstore\n        /* \"#utility.yul\":16024:16192   */\n      pop\n      jump\t// out\n        /* \"#utility.yul\":16198:16600   */\n    tag_193:\n        /* \"#utility.yul\":16358:16361   */\n      0x00\n        /* \"#utility.yul\":16379:16464   */\n      tag_349\n        /* \"#utility.yul\":16461:16463   */\n      0x12\n        /* \"#utility.yul\":16456:16459   */\n      dup4\n        /* \"#utility.yul\":16379:16464   */\n      tag_167\n      jump\t// in\n    tag_349:\n        /* \"#utility.yul\":16372:16464   */\n      swap2\n      pop\n        /* \"#utility.yul\":16473:16566   */\n      tag_350\n        /* \"#utility.yul\":16562:16565   */\n      dup3\n        /* \"#utility.yul\":16473:16566   */\n      tag_192\n      jump\t// in\n    tag_350:\n        /* \"#utility.yul\":16591:16593   */\n      0x12\n        /* \"#utility.yul\":16586:16589   */\n      dup3\n        /* \"#utility.yul\":16582:16594   */\n      add\n        /* \"#utility.yul\":16575:16594   */\n      swap1\n      pop\n        /* \"#utility.yul\":16198:16600   */\n      swap2\n      swap1\n      pop\n      jump\t// out\n        /* \"#utility.yul\":16606:20873   */\n    tag_111:\n        /* \"#utility.yul\":18190:18193   */\n      0x00\n        /* \"#utility.yul\":18212:18360   */\n      tag_352\n        /* \"#utility.yul\":18356:18359   */\n      dup3\n        /* \"#utility.yul\":18212:18360   */\n      tag_181\n      jump\t// in\n    tag_352:\n        /* \"#utility.yul\":18205:18360   */\n      swap2\n      pop\n        /* \"#utility.yul\":18377:18472   */\n      tag_353\n        /* \"#utility.yul\":18468:18471   */\n      dup3\n        /* \"#utility.yul\":18459:18465   */\n      dup10\n        /* \"#utility.yul\":18377:18472   */\n      tag_170\n      jump\t// in\n    tag_353:\n        /* \"#utility.yul\":18370:18472   */\n      swap2\n      pop\n        /* \"#utility.yul\":18489:18637   */\n      tag_354\n        /* \"#utility.yul\":18633:18636   */\n      dup3\n        /* \"#utility.yul\":18489:18637   */\n      tag_183\n      jump\t// in\n    tag_354:\n        /* \"#utility.yul\":18482:18637   */\n      swap2\n      pop\n        /* \"#utility.yul\":18654:18802   */\n      tag_355\n        /* \"#utility.yul\":18798:18801   */\n      dup3\n        /* \"#utility.yul\":18654:18802   */\n      tag_181\n      jump\t// in\n    tag_355:\n        /* \"#utility.yul\":18647:18802   */\n      swap2\n      pop\n        /* \"#utility.yul\":18819:18914   */\n      tag_356\n        /* \"#utility.yul\":18910:18913   */\n      dup3\n        /* \"#utility.yul\":18901:18907   */\n      dup9\n        /* \"#utility.yul\":18819:18914   */\n      tag_170\n      jump\t// in\n    tag_356:\n        /* \"#utility.yul\":18812:18914   */\n      swap2\n      pop\n        /* \"#utility.yul\":18931:19079   */\n      tag_357\n        /* \"#utility.yul\":19075:19078   */\n      dup3\n        /* \"#utility.yul\":18931:19079   */\n      tag_185\n      jump\t// in\n    tag_357:\n        /* \"#utility.yul\":18924:19079   */\n      swap2\n      pop\n        /* \"#utility.yul\":19096:19244   */\n      tag_358\n        /* \"#utility.yul\":19240:19243   */\n      dup3\n        /* \"#utility.yul\":19096:19244   */\n      tag_181\n      jump\t// in\n    tag_358:\n        /* \"#utility.yul\":19089:19244   */\n      swap2\n      pop\n        /* \"#utility.yul\":19261:19356   */\n      tag_359\n        /* \"#utility.yul\":19352:19355   */\n      dup3\n        /* \"#utility.yul\":19343:19349   */\n      dup8\n        /* \"#utility.yul\":19261:19356   */\n      tag_170\n      jump\t// in\n    tag_359:\n        /* \"#utility.yul\":19254:19356   */\n      swap2\n      pop\n        /* \"#utility.yul\":19373:19521   */\n      tag_360\n        /* \"#utility.yul\":19517:19520   */\n      dup3\n        /* \"#utility.yul\":19373:19521   */\n      tag_187\n      jump\t// in\n    tag_360:\n        /* \"#utility.yul\":19366:19521   */\n      swap2\n      pop\n        /* \"#utility.yul\":19538:19686   */\n      tag_361\n        /* \"#utility.yul\":19682:19685   */\n      dup3\n        /* \"#utility.yul\":19538:19686   */\n      tag_181\n      jump\t// in\n    tag_361:\n        /* \"#utility.yul\":19531:19686   */\n      swap2\n      pop\n        /* \"#utility.yul\":19703:19798   */\n      tag_362\n        /* \"#utility.yul\":19794:19797   */\n      dup3\n        /* \"#utility.yul\":19785:19791   */\n      dup7\n        /* \"#utility.yul\":19703:19798   */\n      tag_170\n      jump\t// in\n    tag_362:\n        /* \"#utility.yul\":19696:19798   */\n      swap2\n      pop\n        /* \"#utility.yul\":19815:19963   */\n      tag_363\n        /* \"#utility.yul\":19959:19962   */\n      dup3\n        /* \"#utility.yul\":19815:19963   */\n      tag_189\n      jump\t// in\n    tag_363:\n        /* \"#utility.yul\":19808:19963   */\n      swap2\n      pop\n        /* \"#utility.yul\":19980:20128   */\n      tag_364\n        /* \"#utility.yul\":20124:20127   */\n      dup3\n        /* \"#utility.yul\":19980:20128   */\n      tag_181\n      jump\t// in\n    tag_364:\n        /* \"#utility.yul\":19973:20128   */\n      swap2\n      pop\n        /* \"#utility.yul\":20145:20240   */\n      tag_365\n        /* \"#utility.yul\":20236:20239   */\n      dup3\n        /* \"#utility.yul\":20227:20233   */\n      dup6\n        /* \"#utility.yul\":20145:20240   */\n      tag_170\n      jump\t// in\n    tag_365:\n        /* \"#utility.yul\":20138:20240   */\n      swap2\n      pop\n        /* \"#utility.yul\":20257:20405   */\n      tag_366\n        /* \"#utility.yul\":20401:20404   */\n      dup3\n        /* \"#utility.yul\":20257:20405   */\n      tag_191\n      jump\t// in\n    tag_366:\n        /* \"#utility.yul\":20250:20405   */\n      swap2\n      pop\n        /* \"#utility.yul\":20422:20570   */\n      tag_367\n        /* \"#utility.yul\":20566:20569   */\n      dup3\n        /* \"#utility.yul\":20422:20570   */\n      tag_181\n      jump\t// in\n    tag_367:\n        /* \"#utility.yul\":20415:20570   */\n      swap2\n      pop\n        /* \"#utility.yul\":20587:20682   */\n      tag_368\n        /* \"#utility.yul\":20678:20681   */\n      dup3\n        /* \"#utility.yul\":20669:20675   */\n      dup5\n        /* \"#utility.yul\":20587:20682   */\n      tag_170\n      jump\t// in\n    tag_368:\n        /* \"#utility.yul\":20580:20682   */\n      swap2\n      pop\n        /* \"#utility.yul\":20699:20847   */\n      tag_369\n        /* \"#utility.yul\":20843:20846   */\n      dup3\n        /* \"#utility.yul\":20699:20847   */\n      tag_193\n      jump\t// in\n    tag_369:\n        /* \"#utility.yul\":20692:20847   */\n      swap2\n      pop\n        /* \"#utility.yul\":20864:20867   */\n      dup2\n        /* \"#utility.yul\":20857:20867   */\n      swap1\n      pop\n        /* \"#utility.yul\":16606:20873   */\n      swap8\n      swap7\n      pop\n      pop\n      pop\n      pop\n      pop\n      pop\n      pop\n      jump\t// out\n        /* \"#utility.yul\":20879:21047   */\n    tag_194:\n        /* \"#utility.yul\":21019:21039   */\n      0x36207b66696c6c2d6f7061636974793a317d0000000000000000000000000000\n        /* \"#utility.yul\":21015:21016   */\n      0x00\n        /* \"#utility.yul\":21007:21013   */\n      dup3\n        /* \"#utility.yul\":21003:21017   */\n      add\n        /* \"#utility.yul\":20996:21040   */\n      mstore\n        /* \"#utility.yul\":20879:21047   */\n      pop\n      jump\t// out\n        /* \"#utility.yul\":21053:21455   */\n    tag_195:\n        /* \"#utility.yul\":21213:21216   */\n      0x00\n        /* \"#utility.yul\":21234:21319   */\n      tag_372\n        /* \"#utility.yul\":21316:21318   */\n      0x12\n        /* \"#utility.yul\":21311:21314   */\n      dup4\n        /* \"#utility.yul\":21234:21319   */\n      tag_167\n      jump\t// in\n    tag_372:\n        /* \"#utility.yul\":21227:21319   */\n      swap2\n      pop\n        /* \"#utility.yul\":21328:21421   */\n      tag_373\n        /* \"#utility.yul\":21417:21420   */\n      dup3\n        /* \"#utility.yul\":21328:21421   */\n      tag_194\n      jump\t// in\n    tag_373:\n        /* \"#utility.yul\":21446:21448   */\n      0x12\n        /* \"#utility.yul\":21441:21444   */\n      dup3\n        /* \"#utility.yul\":21437:21449   */\n      add\n        /* \"#utility.yul\":21430:21449   */\n      swap1\n      pop\n        /* \"#utility.yul\":21053:21455   */\n      swap2\n      swap1\n      pop\n      jump\t// out\n        /* \"#utility.yul\":21461:22960   */\n    tag_115:\n        /* \"#utility.yul\":22045:22048   */\n      0x00\n        /* \"#utility.yul\":22067:22215   */\n      tag_375\n        /* \"#utility.yul\":22211:22214   */\n      dup3\n        /* \"#utility.yul\":22067:22215   */\n      tag_181\n      jump\t// in\n    tag_375:\n        /* \"#utility.yul\":22060:22215   */\n      swap2\n      pop\n        /* \"#utility.yul\":22232:22327   */\n      tag_376\n        /* \"#utility.yul\":22323:22326   */\n      dup3\n        /* \"#utility.yul\":22314:22320   */\n      dup6\n        /* \"#utility.yul\":22232:22327   */\n      tag_170\n      jump\t// in\n    tag_376:\n        /* \"#utility.yul\":22225:22327   */\n      swap2\n      pop\n        /* \"#utility.yul\":22344:22492   */\n      tag_377\n        /* \"#utility.yul\":22488:22491   */\n      dup3\n        /* \"#utility.yul\":22344:22492   */\n      tag_187\n      jump\t// in\n    tag_377:\n        /* \"#utility.yul\":22337:22492   */\n      swap2\n      pop\n        /* \"#utility.yul\":22509:22657   */\n      tag_378\n        /* \"#utility.yul\":22653:22656   */\n      dup3\n        /* \"#utility.yul\":22509:22657   */\n      tag_181\n      jump\t// in\n    tag_378:\n        /* \"#utility.yul\":22502:22657   */\n      swap2\n      pop\n        /* \"#utility.yul\":22674:22769   */\n      tag_379\n        /* \"#utility.yul\":22765:22768   */\n      dup3\n        /* \"#utility.yul\":22756:22762   */\n      dup5\n        /* \"#utility.yul\":22674:22769   */\n      tag_170\n      jump\t// in\n    tag_379:\n        /* \"#utility.yul\":22667:22769   */\n      swap2\n      pop\n        /* \"#utility.yul\":22786:22934   */\n      tag_380\n        /* \"#utility.yul\":22930:22933   */\n      dup3\n        /* \"#utility.yul\":22786:22934   */\n      tag_195\n      jump\t// in\n    tag_380:\n        /* \"#utility.yul\":22779:22934   */\n      swap2\n      pop\n        /* \"#utility.yul\":22951:22954   */\n      dup2\n        /* \"#utility.yul\":22944:22954   */\n      swap1\n      pop\n        /* \"#utility.yul\":21461:22960   */\n      swap4\n      swap3\n      pop\n      pop\n      pop\n      jump\t// out\n        /* \"#utility.yul\":22966:23118   */\n    tag_196:\n        /* \"#utility.yul\":23106:23110   */\n      0x342c000000000000000000000000000000000000000000000000000000000000\n        /* \"#utility.yul\":23102:23103   */\n      0x00\n        /* \"#utility.yul\":23094:23100   */\n      dup3\n        /* \"#utility.yul\":23090:23104   */\n      add\n        /* \"#utility.yul\":23083:23111   */\n      mstore\n        /* \"#utility.yul\":22966:23118   */\n      pop\n      jump\t// out\n        /* \"#utility.yul\":23124:23524   */\n    tag_197:\n        /* \"#utility.yul\":23284:23287   */\n      0x00\n        /* \"#utility.yul\":23305:23389   */\n      tag_383\n        /* \"#utility.yul\":23387:23388   */\n      0x02\n        /* \"#utility.yul\":23382:23385   */\n      dup4\n        /* \"#utility.yul\":23305:23389   */\n      tag_167\n      jump\t// in\n    tag_383:\n        /* \"#utility.yul\":23298:23389   */\n      swap2\n      pop\n        /* \"#utility.yul\":23398:23491   */\n      tag_384\n        /* \"#utility.yul\":23487:23490   */\n      dup3\n        /* \"#utility.yul\":23398:23491   */\n      tag_196\n      jump\t// in\n    tag_384:\n        /* \"#utility.yul\":23516:23517   */\n      0x02\n        /* \"#utility.yul\":23511:23514   */\n      dup3\n        /* \"#utility.yul\":23507:23518   */\n      add\n        /* \"#utility.yul\":23500:23518   */\n      swap1\n      pop\n        /* \"#utility.yul\":23124:23524   */\n      swap2\n      swap1\n      pop\n      jump\t// out\n        /* \"#utility.yul\":23530:27105   */\n    tag_119:\n        /* \"#utility.yul\":24864:24867   */\n      0x00\n        /* \"#utility.yul\":24886:25034   */\n      tag_386\n        /* \"#utility.yul\":25030:25033   */\n      dup3\n        /* \"#utility.yul\":24886:25034   */\n      tag_181\n      jump\t// in\n    tag_386:\n        /* \"#utility.yul\":24879:25034   */\n      swap2\n      pop\n        /* \"#utility.yul\":25051:25146   */\n      tag_387\n        /* \"#utility.yul\":25142:25145   */\n      dup3\n        /* \"#utility.yul\":25133:25139   */\n      dup9\n        /* \"#utility.yul\":25051:25146   */\n      tag_170\n      jump\t// in\n    tag_387:\n        /* \"#utility.yul\":25044:25146   */\n      swap2\n      pop\n        /* \"#utility.yul\":25163:25311   */\n      tag_388\n        /* \"#utility.yul\":25307:25310   */\n      dup3\n        /* \"#utility.yul\":25163:25311   */\n      tag_183\n      jump\t// in\n    tag_388:\n        /* \"#utility.yul\":25156:25311   */\n      swap2\n      pop\n        /* \"#utility.yul\":25328:25476   */\n      tag_389\n        /* \"#utility.yul\":25472:25475   */\n      dup3\n        /* \"#utility.yul\":25328:25476   */\n      tag_181\n      jump\t// in\n    tag_389:\n        /* \"#utility.yul\":25321:25476   */\n      swap2\n      pop\n        /* \"#utility.yul\":25493:25588   */\n      tag_390\n        /* \"#utility.yul\":25584:25587   */\n      dup3\n        /* \"#utility.yul\":25575:25581   */\n      dup8\n        /* \"#utility.yul\":25493:25588   */\n      tag_170\n      jump\t// in\n    tag_390:\n        /* \"#utility.yul\":25486:25588   */\n      swap2\n      pop\n        /* \"#utility.yul\":25605:25753   */\n      tag_391\n        /* \"#utility.yul\":25749:25752   */\n      dup3\n        /* \"#utility.yul\":25605:25753   */\n      tag_187\n      jump\t// in\n    tag_391:\n        /* \"#utility.yul\":25598:25753   */\n      swap2\n      pop\n        /* \"#utility.yul\":25770:25918   */\n      tag_392\n        /* \"#utility.yul\":25914:25917   */\n      dup3\n        /* \"#utility.yul\":25770:25918   */\n      tag_181\n      jump\t// in\n    tag_392:\n        /* \"#utility.yul\":25763:25918   */\n      swap2\n      pop\n        /* \"#utility.yul\":25935:26030   */\n      tag_393\n        /* \"#utility.yul\":26026:26029   */\n      dup3\n        /* \"#utility.yul\":26017:26023   */\n      dup7\n        /* \"#utility.yul\":25935:26030   */\n      tag_170\n      jump\t// in\n    tag_393:\n        /* \"#utility.yul\":25928:26030   */\n      swap2\n      pop\n        /* \"#utility.yul\":26047:26195   */\n      tag_394\n        /* \"#utility.yul\":26191:26194   */\n      dup3\n        /* \"#utility.yul\":26047:26195   */\n      tag_197\n      jump\t// in\n    tag_394:\n        /* \"#utility.yul\":26040:26195   */\n      swap2\n      pop\n        /* \"#utility.yul\":26212:26360   */\n      tag_395\n        /* \"#utility.yul\":26356:26359   */\n      dup3\n        /* \"#utility.yul\":26212:26360   */\n      tag_181\n      jump\t// in\n    tag_395:\n        /* \"#utility.yul\":26205:26360   */\n      swap2\n      pop\n        /* \"#utility.yul\":26377:26472   */\n      tag_396\n        /* \"#utility.yul\":26468:26471   */\n      dup3\n        /* \"#utility.yul\":26459:26465   */\n      dup6\n        /* \"#utility.yul\":26377:26472   */\n      tag_170\n      jump\t// in\n    tag_396:\n        /* \"#utility.yul\":26370:26472   */\n      swap2\n      pop\n        /* \"#utility.yul\":26489:26637   */\n      tag_397\n        /* \"#utility.yul\":26633:26636   */\n      dup3\n        /* \"#utility.yul\":26489:26637   */\n      tag_189\n      jump\t// in\n    tag_397:\n        /* \"#utility.yul\":26482:26637   */\n      swap2\n      pop\n        /* \"#utility.yul\":26654:26802   */\n      tag_398\n        /* \"#utility.yul\":26798:26801   */\n      dup3\n        /* \"#utility.yul\":26654:26802   */\n      tag_181\n      jump\t// in\n    tag_398:\n        /* \"#utility.yul\":26647:26802   */\n      swap2\n      pop\n        /* \"#utility.yul\":26819:26914   */\n      tag_399\n        /* \"#utility.yul\":26910:26913   */\n      dup3\n        /* \"#utility.yul\":26901:26907   */\n      dup5\n        /* \"#utility.yul\":26819:26914   */\n      tag_170\n      jump\t// in\n    tag_399:\n        /* \"#utility.yul\":26812:26914   */\n      swap2\n      pop\n        /* \"#utility.yul\":26931:27079   */\n      tag_400\n        /* \"#utility.yul\":27075:27078   */\n      dup3\n        /* \"#utility.yul\":26931:27079   */\n      tag_193\n      jump\t// in\n    tag_400:\n        /* \"#utility.yul\":26924:27079   */\n      swap2\n      pop\n        /* \"#utility.yul\":27096:27099   */\n      dup2\n        /* \"#utility.yul\":27089:27099   */\n      swap1\n      pop\n        /* \"#utility.yul\":23530:27105   */\n      swap7\n      swap6\n      pop\n      pop\n      pop\n      pop\n      pop\n      pop\n      jump\t// out\n        /* \"#utility.yul\":27111:30686   */\n    tag_123:\n        /* \"#utility.yul\":28445:28448   */\n      0x00\n        /* \"#utility.yul\":28467:28615   */\n      tag_402\n        /* \"#utility.yul\":28611:28614   */\n      dup3\n        /* \"#utility.yul\":28467:28615   */\n      tag_181\n      jump\t// in\n    tag_402:\n        /* \"#utility.yul\":28460:28615   */\n      swap2\n      pop\n        /* \"#utility.yul\":28632:28727   */\n      tag_403\n        /* \"#utility.yul\":28723:28726   */\n      dup3\n        /* \"#utility.yul\":28714:28720   */\n      dup9\n        /* \"#utility.yul\":28632:28727   */\n      tag_170\n      jump\t// in\n    tag_403:\n        /* \"#utility.yul\":28625:28727   */\n      swap2\n      pop\n        /* \"#utility.yul\":28744:28892   */\n      tag_404\n        /* \"#utility.yul\":28888:28891   */\n      dup3\n        /* \"#utility.yul\":28744:28892   */\n      tag_183\n      jump\t// in\n    tag_404:\n        /* \"#utility.yul\":28737:28892   */\n      swap2\n      pop\n        /* \"#utility.yul\":28909:29057   */\n      tag_405\n        /* \"#utility.yul\":29053:29056   */\n      dup3\n        /* \"#utility.yul\":28909:29057   */\n      tag_181\n      jump\t// in\n    tag_405:\n        /* \"#utility.yul\":28902:29057   */\n      swap2\n      pop\n        /* \"#utility.yul\":29074:29169   */\n      tag_406\n        /* \"#utility.yul\":29165:29168   */\n      dup3\n        /* \"#utility.yul\":29156:29162   */\n      dup8\n        /* \"#utility.yul\":29074:29169   */\n      tag_170\n      jump\t// in\n    tag_406:\n        /* \"#utility.yul\":29067:29169   */\n      swap2\n      pop\n        /* \"#utility.yul\":29186:29334   */\n      tag_407\n        /* \"#utility.yul\":29330:29333   */\n      dup3\n        /* \"#utility.yul\":29186:29334   */\n      tag_187\n      jump\t// in\n    tag_407:\n        /* \"#utility.yul\":29179:29334   */\n      swap2\n      pop\n        /* \"#utility.yul\":29351:29499   */\n      tag_408\n        /* \"#utility.yul\":29495:29498   */\n      dup3\n        /* \"#utility.yul\":29351:29499   */\n      tag_181\n      jump\t// in\n    tag_408:\n        /* \"#utility.yul\":29344:29499   */\n      swap2\n      pop\n        /* \"#utility.yul\":29516:29611   */\n      tag_409\n        /* \"#utility.yul\":29607:29610   */\n      dup3\n        /* \"#utility.yul\":29598:29604   */\n      dup7\n        /* \"#utility.yul\":29516:29611   */\n      tag_170\n      jump\t// in\n    tag_409:\n        /* \"#utility.yul\":29509:29611   */\n      swap2\n      pop\n        /* \"#utility.yul\":29628:29776   */\n      tag_410\n        /* \"#utility.yul\":29772:29775   */\n      dup3\n        /* \"#utility.yul\":29628:29776   */\n      tag_197\n      jump\t// in\n    tag_410:\n        /* \"#utility.yul\":29621:29776   */\n      swap2\n      pop\n        /* \"#utility.yul\":29793:29941   */\n      tag_411\n        /* \"#utility.yul\":29937:29940   */\n      dup3\n        /* \"#utility.yul\":29793:29941   */\n      tag_181\n      jump\t// in\n    tag_411:\n        /* \"#utility.yul\":29786:29941   */\n      swap2\n      pop\n        /* \"#utility.yul\":29958:30053   */\n      tag_412\n        /* \"#utility.yul\":30049:30052   */\n      dup3\n        /* \"#utility.yul\":30040:30046   */\n      dup6\n        /* \"#utility.yul\":29958:30053   */\n      tag_170\n      jump\t// in\n    tag_412:\n        /* \"#utility.yul\":29951:30053   */\n      swap2\n      pop\n        /* \"#utility.yul\":30070:30218   */\n      tag_413\n        /* \"#utility.yul\":30214:30217   */\n      dup3\n        /* \"#utility.yul\":30070:30218   */\n      tag_191\n      jump\t// in\n    tag_413:\n        /* \"#utility.yul\":30063:30218   */\n      swap2\n      pop\n        /* \"#utility.yul\":30235:30383   */\n      tag_414\n        /* \"#utility.yul\":30379:30382   */\n      dup3\n        /* \"#utility.yul\":30235:30383   */\n      tag_181\n      jump\t// in\n    tag_414:\n        /* \"#utility.yul\":30228:30383   */\n      swap2\n      pop\n        /* \"#utility.yul\":30400:30495   */\n      tag_415\n        /* \"#utility.yul\":30491:30494   */\n      dup3\n        /* \"#utility.yul\":30482:30488   */\n      dup5\n        /* \"#utility.yul\":30400:30495   */\n      tag_170\n      jump\t// in\n    tag_415:\n        /* \"#utility.yul\":30393:30495   */\n      swap2\n      pop\n        /* \"#utility.yul\":30512:30660   */\n      tag_416\n        /* \"#utility.yul\":30656:30659   */\n      dup3\n        /* \"#utility.yul\":30512:30660   */\n      tag_193\n      jump\t// in\n    tag_416:\n        /* \"#utility.yul\":30505:30660   */\n      swap2\n      pop\n        /* \"#utility.yul\":30677:30680   */\n      dup2\n        /* \"#utility.yul\":30670:30680   */\n      swap1\n      pop\n        /* \"#utility.yul\":27111:30686   */\n      swap7\n      swap6\n      pop\n      pop\n      pop\n      pop\n      pop\n      pop\n      jump\t// out\n        /* \"#utility.yul\":30692:33575   */\n    tag_127:\n        /* \"#utility.yul\":31776:31779   */\n      0x00\n        /* \"#utility.yul\":31798:31946   */\n      tag_418\n        /* \"#utility.yul\":31942:31945   */\n      dup3\n        /* \"#utility.yul\":31798:31946   */\n      tag_181\n      jump\t// in\n    tag_418:\n        /* \"#utility.yul\":31791:31946   */\n      swap2\n      pop\n        /* \"#utility.yul\":31963:32058   */\n      tag_419\n        /* \"#utility.yul\":32054:32057   */\n      dup3\n        /* \"#utility.yul\":32045:32051   */\n      dup8\n        /* \"#utility.yul\":31963:32058   */\n      tag_170\n      jump\t// in\n    tag_419:\n        /* \"#utility.yul\":31956:32058   */\n      swap2\n      pop\n        /* \"#utility.yul\":32075:32223   */\n      tag_420\n        /* \"#utility.yul\":32219:32222   */\n      dup3\n        /* \"#utility.yul\":32075:32223   */\n      tag_185\n      jump\t// in\n    tag_420:\n        /* \"#utility.yul\":32068:32223   */\n      swap2\n      pop\n        /* \"#utility.yul\":32240:32388   */\n      tag_421\n        /* \"#utility.yul\":32384:32387   */\n      dup3\n        /* \"#utility.yul\":32240:32388   */\n      tag_181\n      jump\t// in\n    tag_421:\n        /* \"#utility.yul\":32233:32388   */\n      swap2\n      pop\n        /* \"#utility.yul\":32405:32500   */\n      tag_422\n        /* \"#utility.yul\":32496:32499   */\n      dup3\n        /* \"#utility.yul\":32487:32493   */\n      dup7\n        /* \"#utility.yul\":32405:32500   */\n      tag_170\n      jump\t// in\n    tag_422:\n        /* \"#utility.yul\":32398:32500   */\n      swap2\n      pop\n        /* \"#utility.yul\":32517:32665   */\n      tag_423\n        /* \"#utility.yul\":32661:32664   */\n      dup3\n        /* \"#utility.yul\":32517:32665   */\n      tag_187\n      jump\t// in\n    tag_423:\n        /* \"#utility.yul\":32510:32665   */\n      swap2\n      pop\n        /* \"#utility.yul\":32682:32830   */\n      tag_424\n        /* \"#utility.yul\":32826:32829   */\n      dup3\n        /* \"#utility.yul\":32682:32830   */\n      tag_181\n      jump\t// in\n    tag_424:\n        /* \"#utility.yul\":32675:32830   */\n      swap2\n      pop\n        /* \"#utility.yul\":32847:32942   */\n      tag_425\n        /* \"#utility.yul\":32938:32941   */\n      dup3\n        /* \"#utility.yul\":32929:32935   */\n      dup6\n        /* \"#utility.yul\":32847:32942   */\n      tag_170\n      jump\t// in\n    tag_425:\n        /* \"#utility.yul\":32840:32942   */\n      swap2\n      pop\n        /* \"#utility.yul\":32959:33107   */\n      tag_426\n        /* \"#utility.yul\":33103:33106   */\n      dup3\n        /* \"#utility.yul\":32959:33107   */\n      tag_197\n      jump\t// in\n    tag_426:\n        /* \"#utility.yul\":32952:33107   */\n      swap2\n      pop\n        /* \"#utility.yul\":33124:33272   */\n      tag_427\n        /* \"#utility.yul\":33268:33271   */\n      dup3\n        /* \"#utility.yul\":33124:33272   */\n      tag_181\n      jump\t// in\n    tag_427:\n        /* \"#utility.yul\":33117:33272   */\n      swap2\n      pop\n        /* \"#utility.yul\":33289:33384   */\n      tag_428\n        /* \"#utility.yul\":33380:33383   */\n      dup3\n        /* \"#utility.yul\":33371:33377   */\n      dup5\n        /* \"#utility.yul\":33289:33384   */\n      tag_170\n      jump\t// in\n    tag_428:\n        /* \"#utility.yul\":33282:33384   */\n      swap2\n      pop\n        /* \"#utility.yul\":33401:33549   */\n      tag_429\n        /* \"#utility.yul\":33545:33548   */\n      dup3\n        /* \"#utility.yul\":33401:33549   */\n      tag_195\n      jump\t// in\n    tag_429:\n        /* \"#utility.yul\":33394:33549   */\n      swap2\n      pop\n        /* \"#utility.yul\":33566:33569   */\n      dup2\n        /* \"#utility.yul\":33559:33569   */\n      swap1\n      pop\n        /* \"#utility.yul\":30692:33575   */\n      swap6\n      swap5\n      pop\n      pop\n      pop\n      pop\n      pop\n      jump\t// out\n        /* \"#utility.yul\":33581:37156   */\n    tag_131:\n        /* \"#utility.yul\":34915:34918   */\n      0x00\n        /* \"#utility.yul\":34937:35085   */\n      tag_431\n        /* \"#utility.yul\":35081:35084   */\n      dup3\n        /* \"#utility.yul\":34937:35085   */\n      tag_181\n      jump\t// in\n    tag_431:\n        /* \"#utility.yul\":34930:35085   */\n      swap2\n      pop\n        /* \"#utility.yul\":35102:35197   */\n      tag_432\n        /* \"#utility.yul\":35193:35196   */\n      dup3\n        /* \"#utility.yul\":35184:35190   */\n      dup9\n        /* \"#utility.yul\":35102:35197   */\n      tag_170\n      jump\t// in\n    tag_432:\n        /* \"#utility.yul\":35095:35197   */\n      swap2\n      pop\n        /* \"#utility.yul\":35214:35362   */\n      tag_433\n        /* \"#utility.yul\":35358:35361   */\n      dup3\n        /* \"#utility.yul\":35214:35362   */\n      tag_183\n      jump\t// in\n    tag_433:\n        /* \"#utility.yul\":35207:35362   */\n      swap2\n      pop\n        /* \"#utility.yul\":35379:35527   */\n      tag_434\n        /* \"#utility.yul\":35523:35526   */\n      dup3\n        /* \"#utility.yul\":35379:35527   */\n      tag_181\n      jump\t// in\n    tag_434:\n        /* \"#utility.yul\":35372:35527   */\n      swap2\n      pop\n        /* \"#utility.yul\":35544:35639   */\n      tag_435\n        /* \"#utility.yul\":35635:35638   */\n      dup3\n        /* \"#utility.yul\":35626:35632   */\n      dup8\n        /* \"#utility.yul\":35544:35639   */\n      tag_170\n      jump\t// in\n    tag_435:\n        /* \"#utility.yul\":35537:35639   */\n      swap2\n      pop\n        /* \"#utility.yul\":35656:35804   */\n      tag_436\n        /* \"#utility.yul\":35800:35803   */\n      dup3\n        /* \"#utility.yul\":35656:35804   */\n      tag_185\n      jump\t// in\n    tag_436:\n        /* \"#utility.yul\":35649:35804   */\n      swap2\n      pop\n        /* \"#utility.yul\":35821:35969   */\n      tag_437\n        /* \"#utility.yul\":35965:35968   */\n      dup3\n        /* \"#utility.yul\":35821:35969   */\n      tag_181\n      jump\t// in\n    tag_437:\n        /* \"#utility.yul\":35814:35969   */\n      swap2\n      pop\n        /* \"#utility.yul\":35986:36081   */\n      tag_438\n        /* \"#utility.yul\":36077:36080   */\n      dup3\n        /* \"#utility.yul\":36068:36074   */\n      dup7\n        /* \"#utility.yul\":35986:36081   */\n      tag_170\n      jump\t// in\n    tag_438:\n        /* \"#utility.yul\":35979:36081   */\n      swap2\n      pop\n        /* \"#utility.yul\":36098:36246   */\n      tag_439\n        /* \"#utility.yul\":36242:36245   */\n      dup3\n        /* \"#utility.yul\":36098:36246   */\n      tag_197\n      jump\t// in\n    tag_439:\n        /* \"#utility.yul\":36091:36246   */\n      swap2\n      pop\n        /* \"#utility.yul\":36263:36411   */\n      tag_440\n        /* \"#utility.yul\":36407:36410   */\n      dup3\n        /* \"#utility.yul\":36263:36411   */\n      tag_181\n      jump\t// in\n    tag_440:\n        /* \"#utility.yul\":36256:36411   */\n      swap2\n      pop\n        /* \"#utility.yul\":36428:36523   */\n      tag_441\n        /* \"#utility.yul\":36519:36522   */\n      dup3\n        /* \"#utility.yul\":36510:36516   */\n      dup6\n        /* \"#utility.yul\":36428:36523   */\n      tag_170\n      jump\t// in\n    tag_441:\n        /* \"#utility.yul\":36421:36523   */\n      swap2\n      pop\n        /* \"#utility.yul\":36540:36688   */\n      tag_442\n        /* \"#utility.yul\":36684:36687   */\n      dup3\n        /* \"#utility.yul\":36540:36688   */\n      tag_191\n      jump\t// in\n    tag_442:\n        /* \"#utility.yul\":36533:36688   */\n      swap2\n      pop\n        /* \"#utility.yul\":36705:36853   */\n      tag_443\n        /* \"#utility.yul\":36849:36852   */\n      dup3\n        /* \"#utility.yul\":36705:36853   */\n      tag_181\n      jump\t// in\n    tag_443:\n        /* \"#utility.yul\":36698:36853   */\n      swap2\n      pop\n        /* \"#utility.yul\":36870:36965   */\n      tag_444\n        /* \"#utility.yul\":36961:36964   */\n      dup3\n        /* \"#utility.yul\":36952:36958   */\n      dup5\n        /* \"#utility.yul\":36870:36965   */\n      tag_170\n      jump\t// in\n    tag_444:\n        /* \"#utility.yul\":36863:36965   */\n      swap2\n      pop\n        /* \"#utility.yul\":36982:37130   */\n      tag_445\n        /* \"#utility.yul\":37126:37129   */\n      dup3\n        /* \"#utility.yul\":36982:37130   */\n      tag_193\n      jump\t// in\n    tag_445:\n        /* \"#utility.yul\":36975:37130   */\n      swap2\n      pop\n        /* \"#utility.yul\":37147:37150   */\n      dup2\n        /* \"#utility.yul\":37140:37150   */\n      swap1\n      pop\n        /* \"#utility.yul\":33581:37156   */\n      swap7\n      swap6\n      pop\n      pop\n      pop\n      pop\n      pop\n      pop\n      jump\t// out\n        /* \"#utility.yul\":37162:41429   */\n    tag_135:\n        /* \"#utility.yul\":38746:38749   */\n      0x00\n        /* \"#utility.yul\":38768:38916   */\n      tag_447\n        /* \"#utility.yul\":38912:38915   */\n      dup3\n        /* \"#utility.yul\":38768:38916   */\n      tag_181\n      jump\t// in\n    tag_447:\n        /* \"#utility.yul\":38761:38916   */\n      swap2\n      pop\n        /* \"#utility.yul\":38933:39028   */\n      tag_448\n        /* \"#utility.yul\":39024:39027   */\n      dup3\n        /* \"#utility.yul\":39015:39021   */\n      dup10\n        /* \"#utility.yul\":38933:39028   */\n      tag_170\n      jump\t// in\n    tag_448:\n        /* \"#utility.yul\":38926:39028   */\n      swap2\n      pop\n        /* \"#utility.yul\":39045:39193   */\n      tag_449\n        /* \"#utility.yul\":39189:39192   */\n      dup3\n        /* \"#utility.yul\":39045:39193   */\n      tag_183\n      jump\t// in\n    tag_449:\n        /* \"#utility.yul\":39038:39193   */\n      swap2\n      pop\n        /* \"#utility.yul\":39210:39358   */\n      tag_450\n        /* \"#utility.yul\":39354:39357   */\n      dup3\n        /* \"#utility.yul\":39210:39358   */\n      tag_181\n      jump\t// in\n    tag_450:\n        /* \"#utility.yul\":39203:39358   */\n      swap2\n      pop\n        /* \"#utility.yul\":39375:39470   */\n      tag_451\n        /* \"#utility.yul\":39466:39469   */\n      dup3\n        /* \"#utility.yul\":39457:39463   */\n      dup9\n        /* \"#utility.yul\":39375:39470   */\n      tag_170\n      jump\t// in\n    tag_451:\n        /* \"#utility.yul\":39368:39470   */\n      swap2\n      pop\n        /* \"#utility.yul\":39487:39635   */\n      tag_452\n        /* \"#utility.yul\":39631:39634   */\n      dup3\n        /* \"#utility.yul\":39487:39635   */\n      tag_185\n      jump\t// in\n    tag_452:\n        /* \"#utility.yul\":39480:39635   */\n      swap2\n      pop\n        /* \"#utility.yul\":39652:39800   */\n      tag_453\n        /* \"#utility.yul\":39796:39799   */\n      dup3\n        /* \"#utility.yul\":39652:39800   */\n      tag_181\n      jump\t// in\n    tag_453:\n        /* \"#utility.yul\":39645:39800   */\n      swap2\n      pop\n        /* \"#utility.yul\":39817:39912   */\n      tag_454\n        /* \"#utility.yul\":39908:39911   */\n      dup3\n        /* \"#utility.yul\":39899:39905   */\n      dup8\n        /* \"#utility.yul\":39817:39912   */\n      tag_170\n      jump\t// in\n    tag_454:\n        /* \"#utility.yul\":39810:39912   */\n      swap2\n      pop\n        /* \"#utility.yul\":39929:40077   */\n      tag_455\n        /* \"#utility.yul\":40073:40076   */\n      dup3\n        /* \"#utility.yul\":39929:40077   */\n      tag_197\n      jump\t// in\n    tag_455:\n        /* \"#utility.yul\":39922:40077   */\n      swap2\n      pop\n        /* \"#utility.yul\":40094:40242   */\n      tag_456\n        /* \"#utility.yul\":40238:40241   */\n      dup3\n        /* \"#utility.yul\":40094:40242   */\n      tag_181\n      jump\t// in\n    tag_456:\n        /* \"#utility.yul\":40087:40242   */\n      swap2\n      pop\n        /* \"#utility.yul\":40259:40354   */\n      tag_457\n        /* \"#utility.yul\":40350:40353   */\n      dup3\n        /* \"#utility.yul\":40341:40347   */\n      dup7\n        /* \"#utility.yul\":40259:40354   */\n      tag_170\n      jump\t// in\n    tag_457:\n        /* \"#utility.yul\":40252:40354   */\n      swap2\n      pop\n        /* \"#utility.yul\":40371:40519   */\n      tag_458\n        /* \"#utility.yul\":40515:40518   */\n      dup3\n        /* \"#utility.yul\":40371:40519   */\n      tag_189\n      jump\t// in\n    tag_458:\n        /* \"#utility.yul\":40364:40519   */\n      swap2\n      pop\n        /* \"#utility.yul\":40536:40684   */\n      tag_459\n        /* \"#utility.yul\":40680:40683   */\n      dup3\n        /* \"#utility.yul\":40536:40684   */\n      tag_181\n      jump\t// in\n    tag_459:\n        /* \"#utility.yul\":40529:40684   */\n      swap2\n      pop\n        /* \"#utility.yul\":40701:40796   */\n      tag_460\n        /* \"#utility.yul\":40792:40795   */\n      dup3\n        /* \"#utility.yul\":40783:40789   */\n      dup6\n        /* \"#utility.yul\":40701:40796   */\n      tag_170\n      jump\t// in\n    tag_460:\n        /* \"#utility.yul\":40694:40796   */\n      swap2\n      pop\n        /* \"#utility.yul\":40813:40961   */\n      tag_461\n        /* \"#utility.yul\":40957:40960   */\n      dup3\n        /* \"#utility.yul\":40813:40961   */\n      tag_191\n      jump\t// in\n    tag_461:\n        /* \"#utility.yul\":40806:40961   */\n      swap2\n      pop\n        /* \"#utility.yul\":40978:41126   */\n      tag_462\n        /* \"#utility.yul\":41122:41125   */\n      dup3\n        /* \"#utility.yul\":40978:41126   */\n      tag_181\n      jump\t// in\n    tag_462:\n        /* \"#utility.yul\":40971:41126   */\n      swap2\n      pop\n        /* \"#utility.yul\":41143:41238   */\n      tag_463\n        /* \"#utility.yul\":41234:41237   */\n      dup3\n        /* \"#utility.yul\":41225:41231   */\n      dup5\n        /* \"#utility.yul\":41143:41238   */\n      tag_170\n      jump\t// in\n    tag_463:\n        /* \"#utility.yul\":41136:41238   */\n      swap2\n      pop\n        /* \"#utility.yul\":41255:41403   */\n      tag_464\n        /* \"#utility.yul\":41399:41402   */\n      dup3\n        /* \"#utility.yul\":41255:41403   */\n      tag_193\n      jump\t// in\n    tag_464:\n        /* \"#utility.yul\":41248:41403   */\n      swap2\n      pop\n        /* \"#utility.yul\":41420:41423   */\n      dup2\n        /* \"#utility.yul\":41413:41423   */\n      swap1\n      pop\n        /* \"#utility.yul\":37162:41429   */\n      swap8\n      swap7\n      pop\n      pop\n      pop\n      pop\n      pop\n      pop\n      pop\n      jump\t// out\n        /* \"#utility.yul\":41435:43626   */\n    tag_139:\n        /* \"#utility.yul\":42269:42272   */\n      0x00\n        /* \"#utility.yul\":42291:42439   */\n      tag_466\n        /* \"#utility.yul\":42435:42438   */\n      dup3\n        /* \"#utility.yul\":42291:42439   */\n      tag_181\n      jump\t// in\n    tag_466:\n        /* \"#utility.yul\":42284:42439   */\n      swap2\n      pop\n        /* \"#utility.yul\":42456:42551   */\n      tag_467\n        /* \"#utility.yul\":42547:42550   */\n      dup3\n        /* \"#utility.yul\":42538:42544   */\n      dup7\n        /* \"#utility.yul\":42456:42551   */\n      tag_170\n      jump\t// in\n    tag_467:\n        /* \"#utility.yul\":42449:42551   */\n      swap2\n      pop\n        /* \"#utility.yul\":42568:42716   */\n      tag_468\n        /* \"#utility.yul\":42712:42715   */\n      dup3\n        /* \"#utility.yul\":42568:42716   */\n      tag_183\n      jump\t// in\n    tag_468:\n        /* \"#utility.yul\":42561:42716   */\n      swap2\n      pop\n        /* \"#utility.yul\":42733:42881   */\n      tag_469\n        /* \"#utility.yul\":42877:42880   */\n      dup3\n        /* \"#utility.yul\":42733:42881   */\n      tag_181\n      jump\t// in\n    tag_469:\n        /* \"#utility.yul\":42726:42881   */\n      swap2\n      pop\n        /* \"#utility.yul\":42898:42993   */\n      tag_470\n        /* \"#utility.yul\":42989:42992   */\n      dup3\n        /* \"#utility.yul\":42980:42986   */\n      dup6\n        /* \"#utility.yul\":42898:42993   */\n      tag_170\n      jump\t// in\n    tag_470:\n        /* \"#utility.yul\":42891:42993   */\n      swap2\n      pop\n        /* \"#utility.yul\":43010:43158   */\n      tag_471\n        /* \"#utility.yul\":43154:43157   */\n      dup3\n        /* \"#utility.yul\":43010:43158   */\n      tag_187\n      jump\t// in\n    tag_471:\n        /* \"#utility.yul\":43003:43158   */\n      swap2\n      pop\n        /* \"#utility.yul\":43175:43323   */\n      tag_472\n        /* \"#utility.yul\":43319:43322   */\n      dup3\n        /* \"#utility.yul\":43175:43323   */\n      tag_181\n      jump\t// in\n    tag_472:\n        /* \"#utility.yul\":43168:43323   */\n      swap2\n      pop\n        /* \"#utility.yul\":43340:43435   */\n      tag_473\n        /* \"#utility.yul\":43431:43434   */\n      dup3\n        /* \"#utility.yul\":43422:43428   */\n      dup5\n        /* \"#utility.yul\":43340:43435   */\n      tag_170\n      jump\t// in\n    tag_473:\n        /* \"#utility.yul\":43333:43435   */\n      swap2\n      pop\n        /* \"#utility.yul\":43452:43600   */\n      tag_474\n        /* \"#utility.yul\":43596:43599   */\n      dup3\n        /* \"#utility.yul\":43452:43600   */\n      tag_195\n      jump\t// in\n    tag_474:\n        /* \"#utility.yul\":43445:43600   */\n      swap2\n      pop\n        /* \"#utility.yul\":43617:43620   */\n      dup2\n        /* \"#utility.yul\":43610:43620   */\n      swap1\n      pop\n        /* \"#utility.yul\":41435:43626   */\n      swap5\n      swap4\n      pop\n      pop\n      pop\n      pop\n      jump\t// out\n        /* \"#utility.yul\":43632:48591   */\n    tag_143:\n        /* \"#utility.yul\":45466:45469   */\n      0x00\n        /* \"#utility.yul\":45488:45636   */\n      tag_476\n        /* \"#utility.yul\":45632:45635   */\n      dup3\n        /* \"#utility.yul\":45488:45636   */\n      tag_181\n      jump\t// in\n    tag_476:\n        /* \"#utility.yul\":45481:45636   */\n      swap2\n      pop\n        /* \"#utility.yul\":45653:45748   */\n      tag_477\n        /* \"#utility.yul\":45744:45747   */\n      dup3\n        /* \"#utility.yul\":45735:45741   */\n      dup11\n        /* \"#utility.yul\":45653:45748   */\n      tag_170\n      jump\t// in\n    tag_477:\n        /* \"#utility.yul\":45646:45748   */\n      swap2\n      pop\n        /* \"#utility.yul\":45765:45913   */\n      tag_478\n        /* \"#utility.yul\":45909:45912   */\n      dup3\n        /* \"#utility.yul\":45765:45913   */\n      tag_183\n      jump\t// in\n    tag_478:\n        /* \"#utility.yul\":45758:45913   */\n      swap2\n      pop\n        /* \"#utility.yul\":45930:46078   */\n      tag_479\n        /* \"#utility.yul\":46074:46077   */\n      dup3\n        /* \"#utility.yul\":45930:46078   */\n      tag_181\n      jump\t// in\n    tag_479:\n        /* \"#utility.yul\":45923:46078   */\n      swap2\n      pop\n        /* \"#utility.yul\":46095:46190   */\n      tag_480\n        /* \"#utility.yul\":46186:46189   */\n      dup3\n        /* \"#utility.yul\":46177:46183   */\n      dup10\n        /* \"#utility.yul\":46095:46190   */\n      tag_170\n      jump\t// in\n    tag_480:\n        /* \"#utility.yul\":46088:46190   */\n      swap2\n      pop\n        /* \"#utility.yul\":46207:46355   */\n      tag_481\n        /* \"#utility.yul\":46351:46354   */\n      dup3\n        /* \"#utility.yul\":46207:46355   */\n      tag_185\n      jump\t// in\n    tag_481:\n        /* \"#utility.yul\":46200:46355   */\n      swap2\n      pop\n        /* \"#utility.yul\":46372:46520   */\n      tag_482\n        /* \"#utility.yul\":46516:46519   */\n      dup3\n        /* \"#utility.yul\":46372:46520   */\n      tag_181\n      jump\t// in\n    tag_482:\n        /* \"#utility.yul\":46365:46520   */\n      swap2\n      pop\n        /* \"#utility.yul\":46537:46632   */\n      tag_483\n        /* \"#utility.yul\":46628:46631   */\n      dup3\n        /* \"#utility.yul\":46619:46625   */\n      dup9\n        /* \"#utility.yul\":46537:46632   */\n      tag_170\n      jump\t// in\n    tag_483:\n        /* \"#utility.yul\":46530:46632   */\n      swap2\n      pop\n        /* \"#utility.yul\":46649:46797   */\n      tag_484\n        /* \"#utility.yul\":46793:46796   */\n      dup3\n        /* \"#utility.yul\":46649:46797   */\n      tag_187\n      jump\t// in\n    tag_484:\n        /* \"#utility.yul\":46642:46797   */\n      swap2\n      pop\n        /* \"#utility.yul\":46814:46962   */\n      tag_485\n        /* \"#utility.yul\":46958:46961   */\n      dup3\n        /* \"#utility.yul\":46814:46962   */\n      tag_181\n      jump\t// in\n    tag_485:\n        /* \"#utility.yul\":46807:46962   */\n      swap2\n      pop\n        /* \"#utility.yul\":46979:47074   */\n      tag_486\n        /* \"#utility.yul\":47070:47073   */\n      dup3\n        /* \"#utility.yul\":47061:47067   */\n      dup8\n        /* \"#utility.yul\":46979:47074   */\n      tag_170\n      jump\t// in\n    tag_486:\n        /* \"#utility.yul\":46972:47074   */\n      swap2\n      pop\n        /* \"#utility.yul\":47091:47239   */\n      tag_487\n        /* \"#utility.yul\":47235:47238   */\n      dup3\n        /* \"#utility.yul\":47091:47239   */\n      tag_197\n      jump\t// in\n    tag_487:\n        /* \"#utility.yul\":47084:47239   */\n      swap2\n      pop\n        /* \"#utility.yul\":47256:47404   */\n      tag_488\n        /* \"#utility.yul\":47400:47403   */\n      dup3\n        /* \"#utility.yul\":47256:47404   */\n      tag_181\n      jump\t// in\n    tag_488:\n        /* \"#utility.yul\":47249:47404   */\n      swap2\n      pop\n        /* \"#utility.yul\":47421:47516   */\n      tag_489\n        /* \"#utility.yul\":47512:47515   */\n      dup3\n        /* \"#utility.yul\":47503:47509   */\n      dup7\n        /* \"#utility.yul\":47421:47516   */\n      tag_170\n      jump\t// in\n    tag_489:\n        /* \"#utility.yul\":47414:47516   */\n      swap2\n      pop\n        /* \"#utility.yul\":47533:47681   */\n      tag_490\n        /* \"#utility.yul\":47677:47680   */\n      dup3\n        /* \"#utility.yul\":47533:47681   */\n      tag_189\n      jump\t// in\n    tag_490:\n        /* \"#utility.yul\":47526:47681   */\n      swap2\n      pop\n        /* \"#utility.yul\":47698:47846   */\n      tag_491\n        /* \"#utility.yul\":47842:47845   */\n      dup3\n        /* \"#utility.yul\":47698:47846   */\n      tag_181\n      jump\t// in\n    tag_491:\n        /* \"#utility.yul\":47691:47846   */\n      swap2\n      pop\n        /* \"#utility.yul\":47863:47958   */\n      tag_492\n        /* \"#utility.yul\":47954:47957   */\n      dup3\n        /* \"#utility.yul\":47945:47951   */\n      dup6\n        /* \"#utility.yul\":47863:47958   */\n      tag_170\n      jump\t// in\n    tag_492:\n        /* \"#utility.yul\":47856:47958   */\n      swap2\n      pop\n        /* \"#utility.yul\":47975:48123   */\n      tag_493\n        /* \"#utility.yul\":48119:48122   */\n      dup3\n        /* \"#utility.yul\":47975:48123   */\n      tag_191\n      jump\t// in\n    tag_493:\n        /* \"#utility.yul\":47968:48123   */\n      swap2\n      pop\n        /* \"#utility.yul\":48140:48288   */\n      tag_494\n        /* \"#utility.yul\":48284:48287   */\n      dup3\n        /* \"#utility.yul\":48140:48288   */\n      tag_181\n      jump\t// in\n    tag_494:\n        /* \"#utility.yul\":48133:48288   */\n      swap2\n      pop\n        /* \"#utility.yul\":48305:48400   */\n      tag_495\n        /* \"#utility.yul\":48396:48399   */\n      dup3\n        /* \"#utility.yul\":48387:48393   */\n      dup5\n        /* \"#utility.yul\":48305:48400   */\n      tag_170\n      jump\t// in\n    tag_495:\n        /* \"#utility.yul\":48298:48400   */\n      swap2\n      pop\n        /* \"#utility.yul\":48417:48565   */\n      tag_496\n        /* \"#utility.yul\":48561:48564   */\n      dup3\n        /* \"#utility.yul\":48417:48565   */\n      tag_193\n      jump\t// in\n    tag_496:\n        /* \"#utility.yul\":48410:48565   */\n      swap2\n      pop\n        /* \"#utility.yul\":48582:48585   */\n      dup2\n        /* \"#utility.yul\":48575:48585   */\n      swap1\n      pop\n        /* \"#utility.yul\":43632:48591   */\n      swap9\n      swap8\n      pop\n      pop\n      pop\n      pop\n      pop\n      pop\n      pop\n      pop\n      jump\t// out\n        /* \"#utility.yul\":48597:52864   */\n    tag_147:\n        /* \"#utility.yul\":50181:50184   */\n      0x00\n        /* \"#utility.yul\":50203:50351   */\n      tag_498\n        /* \"#utility.yul\":50347:50350   */\n      dup3\n        /* \"#utility.yul\":50203:50351   */\n      tag_181\n      jump\t// in\n    tag_498:\n        /* \"#utility.yul\":50196:50351   */\n      swap2\n      pop\n        /* \"#utility.yul\":50368:50463   */\n      tag_499\n        /* \"#utility.yul\":50459:50462   */\n      dup3\n        /* \"#utility.yul\":50450:50456   */\n      dup10\n        /* \"#utility.yul\":50368:50463   */\n      tag_170\n      jump\t// in\n    tag_499:\n        /* \"#utility.yul\":50361:50463   */\n      swap2\n      pop\n        /* \"#utility.yul\":50480:50628   */\n      tag_500\n        /* \"#utility.yul\":50624:50627   */\n      dup3\n        /* \"#utility.yul\":50480:50628   */\n      tag_183\n      jump\t// in\n    tag_500:\n        /* \"#utility.yul\":50473:50628   */\n      swap2\n      pop\n        /* \"#utility.yul\":50645:50793   */\n      tag_501\n        /* \"#utility.yul\":50789:50792   */\n      dup3\n        /* \"#utility.yul\":50645:50793   */\n      tag_181\n      jump\t// in\n    tag_501:\n        /* \"#utility.yul\":50638:50793   */\n      swap2\n      pop\n        /* \"#utility.yul\":50810:50905   */\n      tag_502\n        /* \"#utility.yul\":50901:50904   */\n      dup3\n        /* \"#utility.yul\":50892:50898   */\n      dup9\n        /* \"#utility.yul\":50810:50905   */\n      tag_170\n      jump\t// in\n    tag_502:\n        /* \"#utility.yul\":50803:50905   */\n      swap2\n      pop\n        /* \"#utility.yul\":50922:51070   */\n      tag_503\n        /* \"#utility.yul\":51066:51069   */\n      dup3\n        /* \"#utility.yul\":50922:51070   */\n      tag_185\n      jump\t// in\n    tag_503:\n        /* \"#utility.yul\":50915:51070   */\n      swap2\n      pop\n        /* \"#utility.yul\":51087:51235   */\n      tag_504\n        /* \"#utility.yul\":51231:51234   */\n      dup3\n        /* \"#utility.yul\":51087:51235   */\n      tag_181\n      jump\t// in\n    tag_504:\n        /* \"#utility.yul\":51080:51235   */\n      swap2\n      pop\n        /* \"#utility.yul\":51252:51347   */\n      tag_505\n        /* \"#utility.yul\":51343:51346   */\n      dup3\n        /* \"#utility.yul\":51334:51340   */\n      dup8\n        /* \"#utility.yul\":51252:51347   */\n      tag_170\n      jump\t// in\n    tag_505:\n        /* \"#utility.yul\":51245:51347   */\n      swap2\n      pop\n        /* \"#utility.yul\":51364:51512   */\n      tag_506\n        /* \"#utility.yul\":51508:51511   */\n      dup3\n        /* \"#utility.yul\":51364:51512   */\n      tag_187\n      jump\t// in\n    tag_506:\n        /* \"#utility.yul\":51357:51512   */\n      swap2\n      pop\n        /* \"#utility.yul\":51529:51677   */\n      tag_507\n        /* \"#utility.yul\":51673:51676   */\n      dup3\n        /* \"#utility.yul\":51529:51677   */\n      tag_181\n      jump\t// in\n    tag_507:\n        /* \"#utility.yul\":51522:51677   */\n      swap2\n      pop\n        /* \"#utility.yul\":51694:51789   */\n      tag_508\n        /* \"#utility.yul\":51785:51788   */\n      dup3\n        /* \"#utility.yul\":51776:51782   */\n      dup7\n        /* \"#utility.yul\":51694:51789   */\n      tag_170\n      jump\t// in\n    tag_508:\n        /* \"#utility.yul\":51687:51789   */\n      swap2\n      pop\n        /* \"#utility.yul\":51806:51954   */\n      tag_509\n        /* \"#utility.yul\":51950:51953   */\n      dup3\n        /* \"#utility.yul\":51806:51954   */\n      tag_197\n      jump\t// in\n    tag_509:\n        /* \"#utility.yul\":51799:51954   */\n      swap2\n      pop\n        /* \"#utility.yul\":51971:52119   */\n      tag_510\n        /* \"#utility.yul\":52115:52118   */\n      dup3\n        /* \"#utility.yul\":51971:52119   */\n      tag_181\n      jump\t// in\n    tag_510:\n        /* \"#utility.yul\":51964:52119   */\n      swap2\n      pop\n        /* \"#utility.yul\":52136:52231   */\n      tag_511\n        /* \"#utility.yul\":52227:52230   */\n      dup3\n        /* \"#utility.yul\":52218:52224   */\n      dup6\n        /* \"#utility.yul\":52136:52231   */\n      tag_170\n      jump\t// in\n    tag_511:\n        /* \"#utility.yul\":52129:52231   */\n      swap2\n      pop\n        /* \"#utility.yul\":52248:52396   */\n      tag_512\n        /* \"#utility.yul\":52392:52395   */\n      dup3\n        /* \"#utility.yul\":52248:52396   */\n      tag_191\n      jump\t// in\n    tag_512:\n        /* \"#utility.yul\":52241:52396   */\n      swap2\n      pop\n        /* \"#utility.yul\":52413:52561   */\n      tag_513\n        /* \"#utility.yul\":52557:52560   */\n      dup3\n        /* \"#utility.yul\":52413:52561   */\n      tag_181\n      jump\t// in\n    tag_513:\n        /* \"#utility.yul\":52406:52561   */\n      swap2\n      pop\n        /* \"#utility.yul\":52578:52673   */\n      tag_514\n        /* \"#utility.yul\":52669:52672   */\n      dup3\n        /* \"#utility.yul\":52660:52666   */\n      dup5\n        /* \"#utility.yul\":52578:52673   */\n      tag_170\n      jump\t// in\n    tag_514:\n        /* \"#utility.yul\":52571:52673   */\n      swap2\n      pop\n        /* \"#utility.yul\":52690:52838   */\n      tag_515\n        /* \"#utility.yul\":52834:52837   */\n      dup3\n        /* \"#utility.yul\":52690:52838   */\n      tag_193\n      jump\t// in\n    tag_515:\n        /* \"#utility.yul\":52683:52838   */\n      swap2\n      pop\n        /* \"#utility.yul\":52855:52858   */\n      dup2\n        /* \"#utility.yul\":52848:52858   */\n      swap1\n      pop\n        /* \"#utility.yul\":48597:52864   */\n      swap8\n      swap7\n      pop\n      pop\n      pop\n      pop\n      pop\n      pop\n      pop\n      jump\t// out\n    stop\n    data_cf67d41fd6dccc42ff330b2991c1584bfc9bd3f923b6d29c3bf5ec28a290b2f6 3c7376672076696577426f783d223020302033303020333030222066696c6c3d226e6f6e652220786d6c6e733d22687474703a2f2f7777772e77332e6f72672f323030302f737667223e3c726563742069643d226267222077696474683d2233303022206865696768743d22333030222066696c6c3d2223304330433043222f3e3c706174682069643d227030312220643d224d313030203131394c313033203132324c313030203132354c3830203132354c3737203132324c3830203131394c313030203131395a222066696c6c3d227768697465222066696c6c2d6f7061636974793d22302e3035222f3e3c706174682069643d227030322220643d224d3733203132364c3736203132334c373920313236563134364c3736203134394c373320313436563132365a222066696c6c3d227768697465222066696c6c2d6f7061636974793d22302e3035222f3e3c706174682069643d227030332220643d224d313031203132364c313034203132334c31303720313236563134364c313034203134394c31303120313436563132365a222066696c6c3d227768697465222066696c6c2d6f7061636974793d22302e3035222f3e3c706174682069643d227030342220643d224d313030203134374c313033203135304c313030203135334c3830203135334c3737203135304c3830203134374c313030203134375a222066696c6c3d227768697465222066696c6c2d6f7061636974793d22302e3035222f3e3c706174682069643d227030352220643d224d3733203135344c3736203135314c373920313534563137344c3736203137374c373320313734563135345a222066696c6c3d227768697465222066696c6c2d6f7061636974793d22302e3035222f3e3c706174682069643d227030362220643d224d313031203135344c313034203135314c31303720313534563137344c313034203137374c31303120313734563135345a222066696c6c3d227768697465222066696c6c2d6f7061636974793d22302e3035222f3e3c706174682069643d227030372220643d224d313030203137354c313033203137384c313030203138314c3830203138314c3737203137384c3830203137354c313030203137355a222066696c6c3d227768697465222066696c6c2d6f7061636974793d22302e3035222f3e3c706174682069643d227031312220643d224d313430203131394c313433203132324c313430203132354c313230203132354c313137203132324c313230203131394c313430203131395a222066696c6c3d227768697465222066696c6c2d6f7061636974793d22302e3035222f3e3c706174682069643d227031322220643d224d313133203132364c313136203132334c31313920313236563134364c313136203134394c31313320313436563132365a222066696c6c3d227768697465222066696c6c2d6f7061636974793d22302e3035222f3e3c706174682069643d227031332220643d224d313431203132364c313434203132334c31343720313236563134364c313434203134394c31343120313436563132365a222066696c6c3d227768697465222066696c6c2d6f7061636974793d22302e3035222f3e3c706174682069643d227031342220643d224d313430203134374c313433203135304c313430203135334c313230203135334c313137203135304c313230203134374c313430203134375a222066696c6c3d227768697465222066696c6c2d6f7061636974793d22302e3035222f3e3c706174682069643d227031352220643d224d313133203135344c313136203135314c31313920313534563137344c313136203137374c31313320313734563135345a222066696c6c3d227768697465222066696c6c2d6f7061636974793d22302e3035222f3e3c706174682069643d227031362220643d224d313431203135344c313434203135314c31343720313534563137344c313434203137374c31343120313734563135345a222066696c6c3d227768697465222066696c6c2d6f7061636974793d22302e3035222f3e3c706174682069643d227031372220643d224d313430203137354c313433203137384c313430203138314c313230203138314c313137203137384c313230203137354c313430203137355a222066696c6c3d227768697465222066696c6c2d6f7061636974793d22302e3035222f3e3c706174682069643d227032312220643d224d313830203131394c313833203132324c313830203132354c313630203132354c313537203132324c313630203131394c313830203131395a222066696c6c3d227768697465222066696c6c2d6f7061636974793d22302e3035222f3e3c706174682069643d227032322220643d224d313533203132364c313536203132334c31353920313236563134364c313536203134394c31353320313436563132365a222066696c6c3d227768697465222066696c6c2d6f7061636974793d22302e3035222f3e3c706174682069643d227032332220643d224d313831203132364c313834203132334c31383720313236563134364c313834203134394c31383120313436563132365a222066696c6c3d227768697465222066696c6c2d6f7061636974793d22302e3035222f3e3c706174682069643d227032342220643d224d313830203134374c313833203135304c313830203135334c313630203135334c313537203135304c313630203134374c313830203134375a222066696c6c3d227768697465222066696c6c2d6f7061636974793d22302e3035222f3e3c706174682069643d227032352220643d224d313533203135344c313536203135314c31353920313534563137344c313536203137374c31353320313734563135345a222066696c6c3d227768697465222066696c6c2d6f7061636974793d22302e3035222f3e3c706174682069643d227032362220643d224d313831203135344c313834203135314c31383720313534563137344c313834203137374c31383120313734563135345a222066696c6c3d227768697465222066696c6c2d6f7061636974793d22302e3035222f3e3c706174682069643d227032372220643d224d313830203137354c313833203137384c313830203138314c313630203138314c313537203137384c313630203137354c313830203137355a222066696c6c3d227768697465222066696c6c2d6f7061636974793d22302e3035222f3e3c706174682069643d227033312220643d224d323230203131394c323233203132324c323230203132354c323030203132354c313937203132324c323030203131394c323230203131395a222066696c6c3d227768697465222066696c6c2d6f7061636974793d22302e3035222f3e3c706174682069643d227033322220643d224d313933203132364c313936203132334c31393920313236563134364c313936203134394c31393320313436563132365a222066696c6c3d227768697465222066696c6c2d6f7061636974793d22302e3035222f3e3c706174682069643d227033332220643d224d323231203132364c323234203132334c32323720313236563134364c323234203134394c32323120313436563132365a222066696c6c3d227768697465222066696c6c2d6f7061636974793d22302e3035222f3e3c706174682069643d227033342220643d224d323230203134374c323233203135304c323230203135334c323030203135334c313937203135304c323030203134374c323230203134375a222066696c6c3d227768697465222066696c6c2d6f7061636974793d22302e3035222f3e3c706174682069643d227033352220643d224d313933203135344c313936203135314c31393920313534563137344c313936203137374c31393320313734563135345a222066696c6c3d227768697465222066696c6c2d6f7061636974793d22302e3035222f3e3c706174682069643d227033362220643d224d323231203135344c323234203135314c32323720313534563137344c323234203137374c32323120313734563135345a222066696c6c3d227768697465222066696c6c2d6f7061636974793d22302e3035222f3e3c706174682069643d227033372220643d224d323230203137354c323233203137384c323230203138314c323030203138314c313937203137384c323030203137354c323230203137355a222066696c6c3d227768697465222066696c6c2d6f7061636974793d22302e3035222f3e3c7374796c653e\n\n    auxdata: 0xa26469706673582212207c4b28e917f602c73e292140d0e1ae9dbd4625823a68c30c14d268d2516bcfad64736f6c63430008120033\n}\n",
				"bytecode": {
					"linkReferences": {},
					"object": "61257a610053600b82828239805160001a607314610046577f4e487b7100000000000000000000000000000000000000000000000000000000600052600060045260246000fd5b30600052607381538281f3fe73000000000000000000000000000000000000000030146080604052600436106100355760003560e01c8063154680291461003a575b600080fd5b610054600480360381019061004f9190610a7c565b61006a565b6040516100619190610b3b565b60405180910390f35b606060405180610c400160405280610c19815260200161192c610c199139905060006100ad836000600381106100a3576100a2610b5d565b5b602002015161038c565b6100ce846001600381106100c4576100c3610b5d565b5b602002015161038c565b6100ef856002600381106100e5576100e4610b5d565b5b602002015161038c565b60405160200161010193929190610cac565b604051602081830303815290604052905060008403156103615760006101268561038c565b51905060006101358683610514565b905060018203610176578261014f6003836060015161064b565b604051602001610160929190610d09565b604051602081830303815290604052925061035e565b600282036101e7578261018e6002836040015161064b565b60405160200161019f929190610d09565b6040516020818303038152906040529250826101c06003836060015161064b565b6040516020016101d1929190610d09565b604051602081830303815290604052925061035d565b6003820361028a57826101ff6001836020015161064b565b604051602001610210929190610d09565b6040516020818303038152906040529250826102316002836040015161064b565b604051602001610242929190610d09565b6040516020818303038152906040529250826102636003836060015161064b565b604051602001610274929190610d09565b604051602081830303815290604052925061035c565b6004820361035b57826102a26000836000015161064b565b6040516020016102b3929190610d09565b6040516020818303038152906040529250826102d46001836020015161064b565b6040516020016102e5929190610d09565b6040516020818303038152906040529250826103066002836040015161064b565b604051602001610317929190610d09565b6040516020818303038152906040529250826103386003836060015161064b565b604051602001610349929190610d09565b60405160208183030381529060405292505b5b5b5b50505b8181604051602001610374929190610d79565b60405160208183030381529060405291505092915050565b6060600082036103d3576040518060400160405280600181526020017f3000000000000000000000000000000000000000000000000000000000000000815250905061050f565b600082905060005b600082146104055780806103ee90610dd7565b915050600a826103fe9190610e4e565b91506103db565b60008167ffffffffffffffff8111156104215761042061094b565b5b6040519080825280601f01601f1916602001820160405280156104535781602001600182028036833780820191505090505b50905060008290505b60008614610507576001816104719190610e7f565b90506000600a80886104839190610e4e565b61048d9190610eb3565b876104989190610e7f565b60306104a49190610f02565b905060008160f81b9050808484815181106104c2576104c1610b5d565b5b60200101907effffffffffffffffffffffffffffffffffffffffffffffffffffffffffffff1916908160001a905350600a886104fe9190610e4e565b9750505061045c565b819450505050505b919050565b61051c6108c8565b600182036105335782816060018181525050610645565b6002820361056c57600a836105489190610e4e565b816040018181525050600a8361055e9190610f37565b816060018181525050610644565b600382036105c7576064836105819190610e4e565b816020018181525050600a6064846105999190610f37565b6105a39190610e4e565b816040018181525050600a836105b99190610f37565b816060018181525050610643565b60048203610642576103e8836105dd9190610e4e565b81600001818152505060646103e8846105f69190610f37565b6106009190610e4e565b816020018181525050600a6064846106189190610f37565b6106229190610e4e565b816040018181525050600a836106389190610f37565b8160600181815250505b5b5b5b92915050565b606060006106588461038c565b9050600083036106945780818283848560405160200161067d9695949392919061117c565b6040516020818303038152906040529150506108c2565b600183036106c65780816040516020016106af9291906112a4565b6040516020818303038152906040529150506108c2565b600283036106fe5780818283846040516020016106e7959493929190611340565b6040516020818303038152906040529150506108c2565b6003830361073657808182838460405160200161071f9594939291906113f9565b6040516020818303038152906040529150506108c2565b6004830361076c578081828360405160200161075594939291906114b2565b6040516020818303038152906040529150506108c2565b600583036107a457808182838460405160200161078d959493929190611548565b6040516020818303038152906040529150506108c2565b600683036107de578081828384856040516020016107c796959493929190611601565b6040516020818303038152906040529150506108c2565b60078303610812578081826040516020016107fb939291906116dd565b6040516020818303038152906040529150506108c2565b6008830361084e57808182838485866040516020016108379796959493929190611750565b6040516020818303038152906040529150506108c2565b60098303610888578081828384856040516020016108719695949392919061184f565b6040516020818303038152906040529150506108c2565b6040518060400160405280600581526020017f6572726f720000000000000000000000000000000000000000000000000000008152509150505b92915050565b6040518060800160405280600081526020016000815260200160008152602001600081525090565b6000604051905090565b600080fd5b6000819050919050565b610912816108ff565b811461091d57600080fd5b50565b60008135905061092f81610909565b92915050565b600080fd5b6000601f19601f8301169050919050565b7f4e487b7100000000000000000000000000000000000000000000000000000000600052604160045260246000fd5b6109838261093a565b810181811067ffffffffffffffff821117156109a2576109a161094b565b5b80604052505050565b60006109b56108f0565b90506109c1828261097a565b919050565b600067ffffffffffffffff8211156109e1576109e061094b565b5b602082029050919050565b600080fd5b6000610a046109ff846109c6565b6109ab565b90508060208402830185811115610a1e57610a1d6109ec565b5b835b81811015610a475780610a338882610920565b845260208401935050602081019050610a20565b5050509392505050565b600082601f830112610a6657610a65610935565b5b6003610a738482856109f1565b91505092915050565b60008060808385031215610a9357610a926108fa565b5b6000610aa185828601610920565b9250506020610ab285828601610a51565b9150509250929050565b600081519050919050565b600082825260208201905092915050565b60005b83811015610af6578082015181840152602081019050610adb565b60008484015250505050565b6000610b0d82610abc565b610b178185610ac7565b9350610b27818560208601610ad8565b610b308161093a565b840191505092915050565b60006020820190508181036000830152610b558184610b02565b905092915050565b7f4e487b7100000000000000000000000000000000000000000000000000000000600052603260045260246000fd5b600081905092915050565b7f2a7b66696c6c3a72676228000000000000000000000000000000000000000000600082015250565b6000610bcd600b83610b8c565b9150610bd882610b97565b600b82019050919050565b6000610bee82610abc565b610bf88185610b8c565b9350610c08818560208601610ad8565b80840191505092915050565b7f2c00000000000000000000000000000000000000000000000000000000000000600082015250565b6000610c4a600183610b8c565b9150610c5582610c14565b600182019050919050565b7f297d2362677b66696c6c3a233043304330437d00000000000000000000000000600082015250565b6000610c96601383610b8c565b9150610ca182610c60565b601382019050919050565b6000610cb782610bc0565b9150610cc38286610be3565b9150610cce82610c3d565b9150610cda8285610be3565b9150610ce582610c3d565b9150610cf18284610be3565b9150610cfc82610c89565b9150819050949350505050565b6000610d158285610be3565b9150610d218284610be3565b91508190509392505050565b7f3c2f7374796c653e3c2f7376673e000000000000000000000000000000000000600082015250565b6000610d63600e83610b8c565b9150610d6e82610d2d565b600e82019050919050565b6000610d858285610be3565b9150610d918284610be3565b9150610d9c82610d56565b91508190509392505050565b7f4e487b7100000000000000000000000000000000000000000000000000000000600052601160045260246000fd5b6000610de2826108ff565b91507fffffffffffffffffffffffffffffffffffffffffffffffffffffffffffffffff8203610e1457610e13610da8565b5b600182019050919050565b7f4e487b7100000000000000000000000000000000000000000000000000000000600052601260045260246000fd5b6000610e59826108ff565b9150610e64836108ff565b925082610e7457610e73610e1f565b5b828204905092915050565b6000610e8a826108ff565b9150610e95836108ff565b9250828203905081811115610ead57610eac610da8565b5b92915050565b6000610ebe826108ff565b9150610ec9836108ff565b9250828202610ed7816108ff565b91508282048414831517610eee57610eed610da8565b5b5092915050565b600060ff82169050919050565b6000610f0d82610ef5565b9150610f1883610ef5565b9250828201905060ff811115610f3157610f30610da8565b5b92915050565b6000610f42826108ff565b9150610f4d836108ff565b925082610f5d57610f5c610e1f565b5b828206905092915050565b7f2370000000000000000000000000000000000000000000000000000000000000600082015250565b6000610f9e600283610b8c565b9150610fa982610f68565b600282019050919050565b7f312c000000000000000000000000000000000000000000000000000000000000600082015250565b6000610fea600283610b8c565b9150610ff582610fb4565b600282019050919050565b7f322c000000000000000000000000000000000000000000000000000000000000600082015250565b6000611036600283610b8c565b915061104182611000565b600282019050919050565b7f332c000000000000000000000000000000000000000000000000000000000000600082015250565b6000611082600283610b8c565b915061108d8261104c565b600282019050919050565b7f352c000000000000000000000000000000000000000000000000000000000000600082015250565b60006110ce600283610b8c565b91506110d982611098565b600282019050919050565b7f362c000000000000000000000000000000000000000000000000000000000000600082015250565b600061111a600283610b8c565b9150611125826110e4565b600282019050919050565b7f37207b66696c6c2d6f7061636974793a317d0000000000000000000000000000600082015250565b6000611166601283610b8c565b915061117182611130565b601282019050919050565b600061118782610f91565b91506111938289610be3565b915061119e82610fdd565b91506111a982610f91565b91506111b58288610be3565b91506111c082611029565b91506111cb82610f91565b91506111d78287610be3565b91506111e282611075565b91506111ed82610f91565b91506111f98286610be3565b9150611204826110c1565b915061120f82610f91565b915061121b8285610be3565b91506112268261110d565b915061123182610f91565b915061123d8284610be3565b915061124882611159565b9150819050979650505050505050565b7f36207b66696c6c2d6f7061636974793a317d0000000000000000000000000000600082015250565b600061128e601283610b8c565b915061129982611258565b601282019050919050565b60006112af82610f91565b91506112bb8285610be3565b91506112c682611075565b91506112d182610f91565b91506112dd8284610be3565b91506112e882611281565b91508190509392505050565b7f342c000000000000000000000000000000000000000000000000000000000000600082015250565b600061132a600283610b8c565b9150611335826112f4565b600282019050919050565b600061134b82610f91565b91506113578288610be3565b915061136282610fdd565b915061136d82610f91565b91506113798287610be3565b915061138482611075565b915061138f82610f91565b915061139b8286610be3565b91506113a68261131d565b91506113b182610f91565b91506113bd8285610be3565b91506113c8826110c1565b91506113d382610f91565b91506113df8284610be3565b91506113ea82611159565b91508190509695505050505050565b600061140482610f91565b91506114108288610be3565b915061141b82610fdd565b915061142682610f91565b91506114328287610be3565b915061143d82611075565b915061144882610f91565b91506114548286610be3565b915061145f8261131d565b915061146a82610f91565b91506114768285610be3565b91506114818261110d565b915061148c82610f91565b91506114988284610be3565b91506114a382611159565b91508190509695505050505050565b60006114bd82610f91565b91506114c98287610be3565b91506114d482611029565b91506114df82610f91565b91506114eb8286610be3565b91506114f682611075565b915061150182610f91565b915061150d8285610be3565b91506115188261131d565b915061152382610f91565b915061152f8284610be3565b915061153a82611281565b915081905095945050505050565b600061155382610f91565b915061155f8288610be3565b915061156a82610fdd565b915061157582610f91565b91506115818287610be3565b915061158c82611029565b915061159782610f91565b91506115a38286610be3565b91506115ae8261131d565b91506115b982610f91565b91506115c58285610be3565b91506115d08261110d565b91506115db82610f91565b91506115e78284610be3565b91506115f282611159565b91508190509695505050505050565b600061160c82610f91565b91506116188289610be3565b915061162382610fdd565b915061162e82610f91565b915061163a8288610be3565b915061164582611029565b915061165082610f91565b915061165c8287610be3565b91506116678261131d565b915061167282610f91565b915061167e8286610be3565b9150611689826110c1565b915061169482610f91565b91506116a08285610be3565b91506116ab8261110d565b91506116b682610f91565b91506116c28284610be3565b91506116cd82611159565b9150819050979650505050505050565b60006116e882610f91565b91506116f48286610be3565b91506116ff82610fdd565b915061170a82610f91565b91506117168285610be3565b915061172182611075565b915061172c82610f91565b91506117388284610be3565b915061174382611281565b9150819050949350505050565b600061175b82610f91565b9150611767828a610be3565b915061177282610fdd565b915061177d82610f91565b91506117898289610be3565b915061179482611029565b915061179f82610f91565b91506117ab8288610be3565b91506117b682611075565b91506117c182610f91565b91506117cd8287610be3565b91506117d88261131d565b91506117e382610f91565b91506117ef8286610be3565b91506117fa826110c1565b915061180582610f91565b91506118118285610be3565b915061181c8261110d565b915061182782610f91565b91506118338284610be3565b915061183e82611159565b915081905098975050505050505050565b600061185a82610f91565b91506118668289610be3565b915061187182610fdd565b915061187c82610f91565b91506118888288610be3565b915061189382611029565b915061189e82610f91565b91506118aa8287610be3565b91506118b582611075565b91506118c082610f91565b91506118cc8286610be3565b91506118d78261131d565b91506118e282610f91565b91506118ee8285610be3565b91506118f98261110d565b915061190482610f91565b91506119108284610be3565b915061191b82611159565b915081905097965050505050505056fe3c7376672076696577426f783d223020302033303020333030222066696c6c3d226e6f6e652220786d6c6e733d22687474703a2f2f7777772e77332e6f72672f323030302f737667223e3c726563742069643d226267222077696474683d2233303022206865696768743d22333030222066696c6c3d2223304330433043222f3e3c706174682069643d227030312220643d224d313030203131394c313033203132324c313030203132354c3830203132354c3737203132324c3830203131394c313030203131395a222066696c6c3d227768697465222066696c6c2d6f7061636974793d22302e3035222f3e3c706174682069643d227030322220643d224d3733203132364c3736203132334c373920313236563134364c3736203134394c373320313436563132365a222066696c6c3d227768697465222066696c6c2d6f7061636974793d22302e3035222f3e3c706174682069643d227030332220643d224d313031203132364c313034203132334c31303720313236563134364c313034203134394c31303120313436563132365a222066696c6c3d227768697465222066696c6c2d6f7061636974793d22302e3035222f3e3c706174682069643d227030342220643d224d313030203134374c313033203135304c313030203135334c3830203135334c3737203135304c3830203134374c313030203134375a222066696c6c3d227768697465222066696c6c2d6f7061636974793d22302e3035222f3e3c706174682069643d227030352220643d224d3733203135344c3736203135314c373920313534563137344c3736203137374c373320313734563135345a222066696c6c3d227768697465222066696c6c2d6f7061636974793d22302e3035222f3e3c706174682069643d227030362220643d224d313031203135344c313034203135314c31303720313534563137344c313034203137374c31303120313734563135345a222066696c6c3d227768697465222066696c6c2d6f7061636974793d22302e3035222f3e3c706174682069643d227030372220643d224d313030203137354c313033203137384c313030203138314c3830203138314c3737203137384c3830203137354c313030203137355a222066696c6c3d227768697465222066696c6c2d6f7061636974793d22302e3035222f3e3c706174682069643d227031312220643d224d313430203131394c313433203132324c313430203132354c313230203132354c313137203132324c313230203131394c313430203131395a222066696c6c3d227768697465222066696c6c2d6f7061636974793d22302e3035222f3e3c706174682069643d227031322220643d224d313133203132364c313136203132334c31313920313236563134364c313136203134394c31313320313436563132365a222066696c6c3d227768697465222066696c6c2d6f7061636974793d22302e3035222f3e3c706174682069643d227031332220643d224d313431203132364c313434203132334c31343720313236563134364c313434203134394c31343120313436563132365a222066696c6c3d227768697465222066696c6c2d6f7061636974793d22302e3035222f3e3c706174682069643d227031342220643d224d313430203134374c313433203135304c313430203135334c313230203135334c313137203135304c313230203134374c313430203134375a222066696c6c3d227768697465222066696c6c2d6f7061636974793d22302e3035222f3e3c706174682069643d227031352220643d224d313133203135344c313136203135314c31313920313534563137344c313136203137374c31313320313734563135345a222066696c6c3d227768697465222066696c6c2d6f7061636974793d22302e3035222f3e3c706174682069643d227031362220643d224d313431203135344c313434203135314c31343720313534563137344c313434203137374c31343120313734563135345a222066696c6c3d227768697465222066696c6c2d6f7061636974793d22302e3035222f3e3c706174682069643d227031372220643d224d313430203137354c313433203137384c313430203138314c313230203138314c313137203137384c313230203137354c313430203137355a222066696c6c3d227768697465222066696c6c2d6f7061636974793d22302e3035222f3e3c706174682069643d227032312220643d224d313830203131394c313833203132324c313830203132354c313630203132354c313537203132324c313630203131394c313830203131395a222066696c6c3d227768697465222066696c6c2d6f7061636974793d22302e3035222f3e3c706174682069643d227032322220643d224d313533203132364c313536203132334c31353920313236563134364c313536203134394c31353320313436563132365a222066696c6c3d227768697465222066696c6c2d6f7061636974793d22302e3035222f3e3c706174682069643d227032332220643d224d313831203132364c313834203132334c31383720313236563134364c313834203134394c31383120313436563132365a222066696c6c3d227768697465222066696c6c2d6f7061636974793d22302e3035222f3e3c706174682069643d227032342220643d224d313830203134374c313833203135304c313830203135334c313630203135334c313537203135304c313630203134374c313830203134375a222066696c6c3d227768697465222066696c6c2d6f7061636974793d22302e3035222f3e3c706174682069643d227032352220643d224d313533203135344c313536203135314c31353920313534563137344c313536203137374c31353320313734563135345a222066696c6c3d227768697465222066696c6c2d6f7061636974793d22302e3035222f3e3c706174682069643d227032362220643d224d313831203135344c313834203135314c31383720313534563137344c313834203137374c31383120313734563135345a222066696c6c3d227768697465222066696c6c2d6f7061636974793d22302e3035222f3e3c706174682069643d227032372220643d224d313830203137354c313833203137384c313830203138314c313630203138314c313537203137384c313630203137354c313830203137355a222066696c6c3d227768697465222066696c6c2d6f7061636974793d22302e3035222f3e3c706174682069643d227033312220643d224d323230203131394c323233203132324c323230203132354c323030203132354c313937203132324c323030203131394c323230203131395a222066696c6c3d227768697465222066696c6c2d6f7061636974793d22302e3035222f3e3c706174682069643d227033322220643d224d313933203132364c313936203132334c31393920313236563134364c313936203134394c31393320313436563132365a222066696c6c3d227768697465222066696c6c2d6f7061636974793d22302e3035222f3e3c706174682069643d227033332220643d224d323231203132364c323234203132334c32323720313236563134364c323234203134394c32323120313436563132365a222066696c6c3d227768697465222066696c6c2d6f7061636974793d22302e3035222f3e3c706174682069643d227033342220643d224d323230203134374c323233203135304c323230203135334c323030203135334c313937203135304c323030203134374c323230203134375a222066696c6c3d227768697465222066696c6c2d6f7061636974793d22302e3035222f3e3c706174682069643d227033352220643d224d313933203135344c313936203135314c31393920313534563137344c313936203137374c31393320313734563135345a222066696c6c3d227768697465222066696c6c2d6f7061636974793d22302e3035222f3e3c706174682069643d227033362220643d224d323231203135344c323234203135314c32323720313534563137344c323234203137374c32323120313734563135345a222066696c6c3d227768697465222066696c6c2d6f7061636974793d22302e3035222f3e3c706174682069643d227033372220643d224d323230203137354c323233203137384c323230203138314c323030203138314c313937203137384c323030203137354c323230203137355a222066696c6c3d227768697465222066696c6c2d6f7061636974793d22302e3035222f3e3c7374796c653ea26469706673582212207c4b28e917f602c73e292140d0e1ae9dbd4625823a68c30c14d268d2516bcfad64736f6c63430008120033",
					"opcodes": "PUSH2 0x257A PUSH2 0x53 PUSH1 0xB DUP3 DUP3 DUP3 CODECOPY DUP1 MLOAD PUSH1 0x0 BYTE PUSH1 0x73 EQ PUSH2 0x46 JUMPI PUSH32 0x4E487B7100000000000000000000000000000000000000000000000000000000 PUSH1 0x0 MSTORE PUSH1 0x0 PUSH1 0x4 MSTORE PUSH1 0x24 PUSH1 0x0 REVERT JUMPDEST ADDRESS PUSH1 0x0 MSTORE PUSH1 0x73 DUP2 MSTORE8 DUP3 DUP2 RETURN INVALID PUSH20 0x0 ADDRESS EQ PUSH1 0x80 PUSH1 0x40 MSTORE PUSH1 0x4 CALLDATASIZE LT PUSH2 0x35 JUMPI PUSH1 0x0 CALLDATALOAD PUSH1 0xE0 SHR DUP1 PUSH4 0x15468029 EQ PUSH2 0x3A JUMPI JUMPDEST PUSH1 0x0 DUP1 REVERT JUMPDEST PUSH2 0x54 PUSH1 0x4 DUP1 CALLDATASIZE SUB DUP2 ADD SWAP1 PUSH2 0x4F SWAP2 SWAP1 PUSH2 0xA7C JUMP JUMPDEST PUSH2 0x6A JUMP JUMPDEST PUSH1 0x40 MLOAD PUSH2 0x61 SWAP2 SWAP1 PUSH2 0xB3B JUMP JUMPDEST PUSH1 0x40 MLOAD DUP1 SWAP2 SUB SWAP1 RETURN JUMPDEST PUSH1 0x60 PUSH1 0x40 MLOAD DUP1 PUSH2 0xC40 ADD PUSH1 0x40 MSTORE DUP1 PUSH2 0xC19 DUP2 MSTORE PUSH1 0x20 ADD PUSH2 0x192C PUSH2 0xC19 SWAP2 CODECOPY SWAP1 POP PUSH1 0x0 PUSH2 0xAD DUP4 PUSH1 0x0 PUSH1 0x3 DUP2 LT PUSH2 0xA3 JUMPI PUSH2 0xA2 PUSH2 0xB5D JUMP JUMPDEST JUMPDEST PUSH1 0x20 MUL ADD MLOAD PUSH2 0x38C JUMP JUMPDEST PUSH2 0xCE DUP5 PUSH1 0x1 PUSH1 0x3 DUP2 LT PUSH2 0xC4 JUMPI PUSH2 0xC3 PUSH2 0xB5D JUMP JUMPDEST JUMPDEST PUSH1 0x20 MUL ADD MLOAD PUSH2 0x38C JUMP JUMPDEST PUSH2 0xEF DUP6 PUSH1 0x2 PUSH1 0x3 DUP2 LT PUSH2 0xE5 JUMPI PUSH2 0xE4 PUSH2 0xB5D JUMP JUMPDEST JUMPDEST PUSH1 0x20 MUL ADD MLOAD PUSH2 0x38C JUMP JUMPDEST PUSH1 0x40 MLOAD PUSH1 0x20 ADD PUSH2 0x101 SWAP4 SWAP3 SWAP2 SWAP1 PUSH2 0xCAC JUMP JUMPDEST PUSH1 0x40 MLOAD PUSH1 0x20 DUP2 DUP4 SUB SUB DUP2 MSTORE SWAP1 PUSH1 0x40 MSTORE SWAP1 POP PUSH1 0x0 DUP5 SUB ISZERO PUSH2 0x361 JUMPI PUSH1 0x0 PUSH2 0x126 DUP6 PUSH2 0x38C JUMP JUMPDEST MLOAD SWAP1 POP PUSH1 0x0 PUSH2 0x135 DUP7 DUP4 PUSH2 0x514 JUMP JUMPDEST SWAP1 POP PUSH1 0x1 DUP3 SUB PUSH2 0x176 JUMPI DUP3 PUSH2 0x14F PUSH1 0x3 DUP4 PUSH1 0x60 ADD MLOAD PUSH2 0x64B JUMP JUMPDEST PUSH1 0x40 MLOAD PUSH1 0x20 ADD PUSH2 0x160 SWAP3 SWAP2 SWAP1 PUSH2 0xD09 JUMP JUMPDEST PUSH1 0x40 MLOAD PUSH1 0x20 DUP2 DUP4 SUB SUB DUP2 MSTORE SWAP1 PUSH1 0x40 MSTORE SWAP3 POP PUSH2 0x35E JUMP JUMPDEST PUSH1 0x2 DUP3 SUB PUSH2 0x1E7 JUMPI DUP3 PUSH2 0x18E PUSH1 0x2 DUP4 PUSH1 0x40 ADD MLOAD PUSH2 0x64B JUMP JUMPDEST PUSH1 0x40 MLOAD PUSH1 0x20 ADD PUSH2 0x19F SWAP3 SWAP2 SWAP1 PUSH2 0xD09 JUMP JUMPDEST PUSH1 0x40 MLOAD PUSH1 0x20 DUP2 DUP4 SUB SUB DUP2 MSTORE SWAP1 PUSH1 0x40 MSTORE SWAP3 POP DUP3 PUSH2 0x1C0 PUSH1 0x3 DUP4 PUSH1 0x60 ADD MLOAD PUSH2 0x64B JUMP JUMPDEST PUSH1 0x40 MLOAD PUSH1 0x20 ADD PUSH2 0x1D1 SWAP3 SWAP2 SWAP1 PUSH2 0xD09 JUMP JUMPDEST PUSH1 0x40 MLOAD PUSH1 0x20 DUP2 DUP4 SUB SUB DUP2 MSTORE SWAP1 PUSH1 0x40 MSTORE SWAP3 POP PUSH2 0x35D JUMP JUMPDEST PUSH1 0x3 DUP3 SUB PUSH2 0x28A JUMPI DUP3 PUSH2 0x1FF PUSH1 0x1 DUP4 PUSH1 0x20 ADD MLOAD PUSH2 0x64B JUMP JUMPDEST PUSH1 0x40 MLOAD PUSH1 0x20 ADD PUSH2 0x210 SWAP3 SWAP2 SWAP1 PUSH2 0xD09 JUMP JUMPDEST PUSH1 0x40 MLOAD PUSH1 0x20 DUP2 DUP4 SUB SUB DUP2 MSTORE SWAP1 PUSH1 0x40 MSTORE SWAP3 POP DUP3 PUSH2 0x231 PUSH1 0x2 DUP4 PUSH1 0x40 ADD MLOAD PUSH2 0x64B JUMP JUMPDEST PUSH1 0x40 MLOAD PUSH1 0x20 ADD PUSH2 0x242 SWAP3 SWAP2 SWAP1 PUSH2 0xD09 JUMP JUMPDEST PUSH1 0x40 MLOAD PUSH1 0x20 DUP2 DUP4 SUB SUB DUP2 MSTORE SWAP1 PUSH1 0x40 MSTORE SWAP3 POP DUP3 PUSH2 0x263 PUSH1 0x3 DUP4 PUSH1 0x60 ADD MLOAD PUSH2 0x64B JUMP JUMPDEST PUSH1 0x40 MLOAD PUSH1 0x20 ADD PUSH2 0x274 SWAP3 SWAP2 SWAP1 PUSH2 0xD09 JUMP JUMPDEST PUSH1 0x40 MLOAD PUSH1 0x20 DUP2 DUP4 SUB SUB DUP2 MSTORE SWAP1 PUSH1 0x40 MSTORE SWAP3 POP PUSH2 0x35C JUMP JUMPDEST PUSH1 0x4 DUP3 SUB PUSH2 0x35B JUMPI DUP3 PUSH2 0x2A2 PUSH1 0x0 DUP4 PUSH1 0x0 ADD MLOAD PUSH2 0x64B JUMP JUMPDEST PUSH1 0x40 MLOAD PUSH1 0x20 ADD PUSH2 0x2B3 SWAP3 SWAP2 SWAP1 PUSH2 0xD09 JUMP JUMPDEST PUSH1 0x40 MLOAD PUSH1 0x20 DUP2 DUP4 SUB SUB DUP2 MSTORE SWAP1 PUSH1 0x40 MSTORE SWAP3 POP DUP3 PUSH2 0x2D4 PUSH1 0x1 DUP4 PUSH1 0x20 ADD MLOAD PUSH2 0x64B JUMP JUMPDEST PUSH1 0x40 MLOAD PUSH1 0x20 ADD PUSH2 0x2E5 SWAP3 SWAP2 SWAP1 PUSH2 0xD09 JUMP JUMPDEST PUSH1 0x40 MLOAD PUSH1 0x20 DUP2 DUP4 SUB SUB DUP2 MSTORE SWAP1 PUSH1 0x40 MSTORE SWAP3 POP DUP3 PUSH2 0x306 PUSH1 0x2 DUP4 PUSH1 0x40 ADD MLOAD PUSH2 0x64B JUMP JUMPDEST PUSH1 0x40 MLOAD PUSH1 0x20 ADD PUSH2 0x317 SWAP3 SWAP2 SWAP1 PUSH2 0xD09 JUMP JUMPDEST PUSH1 0x40 MLOAD PUSH1 0x20 DUP2 DUP4 SUB SUB DUP2 MSTORE SWAP1 PUSH1 0x40 MSTORE SWAP3 POP DUP3 PUSH2 0x338 PUSH1 0x3 DUP4 PUSH1 0x60 ADD MLOAD PUSH2 0x64B JUMP JUMPDEST PUSH1 0x40 MLOAD PUSH1 0x20 ADD PUSH2 0x349 SWAP3 SWAP2 SWAP1 PUSH2 0xD09 JUMP JUMPDEST PUSH1 0x40 MLOAD PUSH1 0x20 DUP2 DUP4 SUB SUB DUP2 MSTORE SWAP1 PUSH1 0x40 MSTORE SWAP3 POP JUMPDEST JUMPDEST JUMPDEST JUMPDEST POP POP JUMPDEST DUP2 DUP2 PUSH1 0x40 MLOAD PUSH1 0x20 ADD PUSH2 0x374 SWAP3 SWAP2 SWAP1 PUSH2 0xD79 JUMP JUMPDEST PUSH1 0x40 MLOAD PUSH1 0x20 DUP2 DUP4 SUB SUB DUP2 MSTORE SWAP1 PUSH1 0x40 MSTORE SWAP2 POP POP SWAP3 SWAP2 POP POP JUMP JUMPDEST PUSH1 0x60 PUSH1 0x0 DUP3 SUB PUSH2 0x3D3 JUMPI PUSH1 0x40 MLOAD DUP1 PUSH1 0x40 ADD PUSH1 0x40 MSTORE DUP1 PUSH1 0x1 DUP2 MSTORE PUSH1 0x20 ADD PUSH32 0x3000000000000000000000000000000000000000000000000000000000000000 DUP2 MSTORE POP SWAP1 POP PUSH2 0x50F JUMP JUMPDEST PUSH1 0x0 DUP3 SWAP1 POP PUSH1 0x0 JUMPDEST PUSH1 0x0 DUP3 EQ PUSH2 0x405 JUMPI DUP1 DUP1 PUSH2 0x3EE SWAP1 PUSH2 0xDD7 JUMP JUMPDEST SWAP2 POP POP PUSH1 0xA DUP3 PUSH2 0x3FE SWAP2 SWAP1 PUSH2 0xE4E JUMP JUMPDEST SWAP2 POP PUSH2 0x3DB JUMP JUMPDEST PUSH1 0x0 DUP2 PUSH8 0xFFFFFFFFFFFFFFFF DUP2 GT ISZERO PUSH2 0x421 JUMPI PUSH2 0x420 PUSH2 0x94B JUMP JUMPDEST JUMPDEST PUSH1 0x40 MLOAD SWAP1 DUP1 DUP3 MSTORE DUP1 PUSH1 0x1F ADD PUSH1 0x1F NOT AND PUSH1 0x20 ADD DUP3 ADD PUSH1 0x40 MSTORE DUP1 ISZERO PUSH2 0x453 JUMPI DUP2 PUSH1 0x20 ADD PUSH1 0x1 DUP3 MUL DUP1 CALLDATASIZE DUP4 CALLDATACOPY DUP1 DUP3 ADD SWAP2 POP POP SWAP1 POP JUMPDEST POP SWAP1 POP PUSH1 0x0 DUP3 SWAP1 POP JUMPDEST PUSH1 0x0 DUP7 EQ PUSH2 0x507 JUMPI PUSH1 0x1 DUP2 PUSH2 0x471 SWAP2 SWAP1 PUSH2 0xE7F JUMP JUMPDEST SWAP1 POP PUSH1 0x0 PUSH1 0xA DUP1 DUP9 PUSH2 0x483 SWAP2 SWAP1 PUSH2 0xE4E JUMP JUMPDEST PUSH2 0x48D SWAP2 SWAP1 PUSH2 0xEB3 JUMP JUMPDEST DUP8 PUSH2 0x498 SWAP2 SWAP1 PUSH2 0xE7F JUMP JUMPDEST PUSH1 0x30 PUSH2 0x4A4 SWAP2 SWAP1 PUSH2 0xF02 JUMP JUMPDEST SWAP1 POP PUSH1 0x0 DUP2 PUSH1 0xF8 SHL SWAP1 POP DUP1 DUP5 DUP5 DUP2 MLOAD DUP2 LT PUSH2 0x4C2 JUMPI PUSH2 0x4C1 PUSH2 0xB5D JUMP JUMPDEST JUMPDEST PUSH1 0x20 ADD ADD SWAP1 PUSH31 0xFFFFFFFFFFFFFFFFFFFFFFFFFFFFFFFFFFFFFFFFFFFFFFFFFFFFFFFFFFFFFF NOT AND SWAP1 DUP2 PUSH1 0x0 BYTE SWAP1 MSTORE8 POP PUSH1 0xA DUP9 PUSH2 0x4FE SWAP2 SWAP1 PUSH2 0xE4E JUMP JUMPDEST SWAP8 POP POP POP PUSH2 0x45C JUMP JUMPDEST DUP2 SWAP5 POP POP POP POP POP JUMPDEST SWAP2 SWAP1 POP JUMP JUMPDEST PUSH2 0x51C PUSH2 0x8C8 JUMP JUMPDEST PUSH1 0x1 DUP3 SUB PUSH2 0x533 JUMPI DUP3 DUP2 PUSH1 0x60 ADD DUP2 DUP2 MSTORE POP POP PUSH2 0x645 JUMP JUMPDEST PUSH1 0x2 DUP3 SUB PUSH2 0x56C JUMPI PUSH1 0xA DUP4 PUSH2 0x548 SWAP2 SWAP1 PUSH2 0xE4E JUMP JUMPDEST DUP2 PUSH1 0x40 ADD DUP2 DUP2 MSTORE POP POP PUSH1 0xA DUP4 PUSH2 0x55E SWAP2 SWAP1 PUSH2 0xF37 JUMP JUMPDEST DUP2 PUSH1 0x60 ADD DUP2 DUP2 MSTORE POP POP PUSH2 0x644 JUMP JUMPDEST PUSH1 0x3 DUP3 SUB PUSH2 0x5C7 JUMPI PUSH1 0x64 DUP4 PUSH2 0x581 SWAP2 SWAP1 PUSH2 0xE4E JUMP JUMPDEST DUP2 PUSH1 0x20 ADD DUP2 DUP2 MSTORE POP POP PUSH1 0xA PUSH1 0x64 DUP5 PUSH2 0x599 SWAP2 SWAP1 PUSH2 0xF37 JUMP JUMPDEST PUSH2 0x5A3 SWAP2 SWAP1 PUSH2 0xE4E JUMP JUMPDEST DUP2 PUSH1 0x40 ADD DUP2 DUP2 MSTORE POP POP PUSH1 0xA DUP4 PUSH2 0x5B9 SWAP2 SWAP1 PUSH2 0xF37 JUMP JUMPDEST DUP2 PUSH1 0x60 ADD DUP2 DUP2 MSTORE POP POP PUSH2 0x643 JUMP JUMPDEST PUSH1 0x4 DUP3 SUB PUSH2 0x642 JUMPI PUSH2 0x3E8 DUP4 PUSH2 0x5DD SWAP2 SWAP1 PUSH2 0xE4E JUMP JUMPDEST DUP2 PUSH1 0x0 ADD DUP2 DUP2 MSTORE POP POP PUSH1 0x64 PUSH2 0x3E8 DUP5 PUSH2 0x5F6 SWAP2 SWAP1 PUSH2 0xF37 JUMP JUMPDEST PUSH2 0x600 SWAP2 SWAP1 PUSH2 0xE4E JUMP JUMPDEST DUP2 PUSH1 0x20 ADD DUP2 DUP2 MSTORE POP POP PUSH1 0xA PUSH1 0x64 DUP5 PUSH2 0x618 SWAP2 SWAP1 PUSH2 0xF37 JUMP JUMPDEST PUSH2 0x622 SWAP2 SWAP1 PUSH2 0xE4E JUMP JUMPDEST DUP2 PUSH1 0x40 ADD DUP2 DUP2 MSTORE POP POP PUSH1 0xA DUP4 PUSH2 0x638 SWAP2 SWAP1 PUSH2 0xF37 JUMP JUMPDEST DUP2 PUSH1 0x60 ADD DUP2 DUP2 MSTORE POP POP JUMPDEST JUMPDEST JUMPDEST JUMPDEST SWAP3 SWAP2 POP POP JUMP JUMPDEST PUSH1 0x60 PUSH1 0x0 PUSH2 0x658 DUP5 PUSH2 0x38C JUMP JUMPDEST SWAP1 POP PUSH1 0x0 DUP4 SUB PUSH2 0x694 JUMPI DUP1 DUP2 DUP3 DUP4 DUP5 DUP6 PUSH1 0x40 MLOAD PUSH1 0x20 ADD PUSH2 0x67D SWAP7 SWAP6 SWAP5 SWAP4 SWAP3 SWAP2 SWAP1 PUSH2 0x117C JUMP JUMPDEST PUSH1 0x40 MLOAD PUSH1 0x20 DUP2 DUP4 SUB SUB DUP2 MSTORE SWAP1 PUSH1 0x40 MSTORE SWAP2 POP POP PUSH2 0x8C2 JUMP JUMPDEST PUSH1 0x1 DUP4 SUB PUSH2 0x6C6 JUMPI DUP1 DUP2 PUSH1 0x40 MLOAD PUSH1 0x20 ADD PUSH2 0x6AF SWAP3 SWAP2 SWAP1 PUSH2 0x12A4 JUMP JUMPDEST PUSH1 0x40 MLOAD PUSH1 0x20 DUP2 DUP4 SUB SUB DUP2 MSTORE SWAP1 PUSH1 0x40 MSTORE SWAP2 POP POP PUSH2 0x8C2 JUMP JUMPDEST PUSH1 0x2 DUP4 SUB PUSH2 0x6FE JUMPI DUP1 DUP2 DUP3 DUP4 DUP5 PUSH1 0x40 MLOAD PUSH1 0x20 ADD PUSH2 0x6E7 SWAP6 SWAP5 SWAP4 SWAP3 SWAP2 SWAP1 PUSH2 0x1340 JUMP JUMPDEST PUSH1 0x40 MLOAD PUSH1 0x20 DUP2 DUP4 SUB SUB DUP2 MSTORE SWAP1 PUSH1 0x40 MSTORE SWAP2 POP POP PUSH2 0x8C2 JUMP JUMPDEST PUSH1 0x3 DUP4 SUB PUSH2 0x736 JUMPI DUP1 DUP2 DUP3 DUP4 DUP5 PUSH1 0x40 MLOAD PUSH1 0x20 ADD PUSH2 0x71F SWAP6 SWAP5 SWAP4 SWAP3 SWAP2 SWAP1 PUSH2 0x13F9 JUMP JUMPDEST PUSH1 0x40 MLOAD PUSH1 0x20 DUP2 DUP4 SUB SUB DUP2 MSTORE SWAP1 PUSH1 0x40 MSTORE SWAP2 POP POP PUSH2 0x8C2 JUMP JUMPDEST PUSH1 0x4 DUP4 SUB PUSH2 0x76C JUMPI DUP1 DUP2 DUP3 DUP4 PUSH1 0x40 MLOAD PUSH1 0x20 ADD PUSH2 0x755 SWAP5 SWAP4 SWAP3 SWAP2 SWAP1 PUSH2 0x14B2 JUMP JUMPDEST PUSH1 0x40 MLOAD PUSH1 0x20 DUP2 DUP4 SUB SUB DUP2 MSTORE SWAP1 PUSH1 0x40 MSTORE SWAP2 POP POP PUSH2 0x8C2 JUMP JUMPDEST PUSH1 0x5 DUP4 SUB PUSH2 0x7A4 JUMPI DUP1 DUP2 DUP3 DUP4 DUP5 PUSH1 0x40 MLOAD PUSH1 0x20 ADD PUSH2 0x78D SWAP6 SWAP5 SWAP4 SWAP3 SWAP2 SWAP1 PUSH2 0x1548 JUMP JUMPDEST PUSH1 0x40 MLOAD PUSH1 0x20 DUP2 DUP4 SUB SUB DUP2 MSTORE SWAP1 PUSH1 0x40 MSTORE SWAP2 POP POP PUSH2 0x8C2 JUMP JUMPDEST PUSH1 0x6 DUP4 SUB PUSH2 0x7DE JUMPI DUP1 DUP2 DUP3 DUP4 DUP5 DUP6 PUSH1 0x40 MLOAD PUSH1 0x20 ADD PUSH2 0x7C7 SWAP7 SWAP6 SWAP5 SWAP4 SWAP3 SWAP2 SWAP1 PUSH2 0x1601 JUMP JUMPDEST PUSH1 0x40 MLOAD PUSH1 0x20 DUP2 DUP4 SUB SUB DUP2 MSTORE SWAP1 PUSH1 0x40 MSTORE SWAP2 POP POP PUSH2 0x8C2 JUMP JUMPDEST PUSH1 0x7 DUP4 SUB PUSH2 0x812 JUMPI DUP1 DUP2 DUP3 PUSH1 0x40 MLOAD PUSH1 0x20 ADD PUSH2 0x7FB SWAP4 SWAP3 SWAP2 SWAP1 PUSH2 0x16DD JUMP JUMPDEST PUSH1 0x40 MLOAD PUSH1 0x20 DUP2 DUP4 SUB SUB DUP2 MSTORE SWAP1 PUSH1 0x40 MSTORE SWAP2 POP POP PUSH2 0x8C2 JUMP JUMPDEST PUSH1 0x8 DUP4 SUB PUSH2 0x84E JUMPI DUP1 DUP2 DUP3 DUP4 DUP5 DUP6 DUP7 PUSH1 0x40 MLOAD PUSH1 0x20 ADD PUSH2 0x837 SWAP8 SWAP7 SWAP6 SWAP5 SWAP4 SWAP3 SWAP2 SWAP1 PUSH2 0x1750 JUMP JUMPDEST PUSH1 0x40 MLOAD PUSH1 0x20 DUP2 DUP4 SUB SUB DUP2 MSTORE SWAP1 PUSH1 0x40 MSTORE SWAP2 POP POP PUSH2 0x8C2 JUMP JUMPDEST PUSH1 0x9 DUP4 SUB PUSH2 0x888 JUMPI DUP1 DUP2 DUP3 DUP4 DUP5 DUP6 PUSH1 0x40 MLOAD PUSH1 0x20 ADD PUSH2 0x871 SWAP7 SWAP6 SWAP5 SWAP4 SWAP3 SWAP2 SWAP1 PUSH2 0x184F JUMP JUMPDEST PUSH1 0x40 MLOAD PUSH1 0x20 DUP2 DUP4 SUB SUB DUP2 MSTORE SWAP1 PUSH1 0x40 MSTORE SWAP2 POP POP PUSH2 0x8C2 JUMP JUMPDEST PUSH1 0x40 MLOAD DUP1 PUSH1 0x40 ADD PUSH1 0x40 MSTORE DUP1 PUSH1 0x5 DUP2 MSTORE PUSH1 0x20 ADD PUSH32 0x6572726F72000000000000000000000000000000000000000000000000000000 DUP2 MSTORE POP SWAP2 POP POP JUMPDEST SWAP3 SWAP2 POP POP JUMP JUMPDEST PUSH1 0x40 MLOAD DUP1 PUSH1 0x80 ADD PUSH1 0x40 MSTORE DUP1 PUSH1 0x0 DUP2 MSTORE PUSH1 0x20 ADD PUSH1 0x0 DUP2 MSTORE PUSH1 0x20 ADD PUSH1 0x0 DUP2 MSTORE PUSH1 0x20 ADD PUSH1 0x0 DUP2 MSTORE POP SWAP1 JUMP JUMPDEST PUSH1 0x0 PUSH1 0x40 MLOAD SWAP1 POP SWAP1 JUMP JUMPDEST PUSH1 0x0 DUP1 REVERT JUMPDEST PUSH1 0x0 DUP2 SWAP1 POP SWAP2 SWAP1 POP JUMP JUMPDEST PUSH2 0x912 DUP2 PUSH2 0x8FF JUMP JUMPDEST DUP2 EQ PUSH2 0x91D JUMPI PUSH1 0x0 DUP1 REVERT JUMPDEST POP JUMP JUMPDEST PUSH1 0x0 DUP2 CALLDATALOAD SWAP1 POP PUSH2 0x92F DUP2 PUSH2 0x909 JUMP JUMPDEST SWAP3 SWAP2 POP POP JUMP JUMPDEST PUSH1 0x0 DUP1 REVERT JUMPDEST PUSH1 0x0 PUSH1 0x1F NOT PUSH1 0x1F DUP4 ADD AND SWAP1 POP SWAP2 SWAP1 POP JUMP JUMPDEST PUSH32 0x4E487B7100000000000000000000000000000000000000000000000000000000 PUSH1 0x0 MSTORE PUSH1 0x41 PUSH1 0x4 MSTORE PUSH1 0x24 PUSH1 0x0 REVERT JUMPDEST PUSH2 0x983 DUP3 PUSH2 0x93A JUMP JUMPDEST DUP2 ADD DUP2 DUP2 LT PUSH8 0xFFFFFFFFFFFFFFFF DUP3 GT OR ISZERO PUSH2 0x9A2 JUMPI PUSH2 0x9A1 PUSH2 0x94B JUMP JUMPDEST JUMPDEST DUP1 PUSH1 0x40 MSTORE POP POP POP JUMP JUMPDEST PUSH1 0x0 PUSH2 0x9B5 PUSH2 0x8F0 JUMP JUMPDEST SWAP1 POP PUSH2 0x9C1 DUP3 DUP3 PUSH2 0x97A JUMP JUMPDEST SWAP2 SWAP1 POP JUMP JUMPDEST PUSH1 0x0 PUSH8 0xFFFFFFFFFFFFFFFF DUP3 GT ISZERO PUSH2 0x9E1 JUMPI PUSH2 0x9E0 PUSH2 0x94B JUMP JUMPDEST JUMPDEST PUSH1 0x20 DUP3 MUL SWAP1 POP SWAP2 SWAP1 POP JUMP JUMPDEST PUSH1 0x0 DUP1 REVERT JUMPDEST PUSH1 0x0 PUSH2 0xA04 PUSH2 0x9FF DUP5 PUSH2 0x9C6 JUMP JUMPDEST PUSH2 0x9AB JUMP JUMPDEST SWAP1 POP DUP1 PUSH1 0x20 DUP5 MUL DUP4 ADD DUP6 DUP2 GT ISZERO PUSH2 0xA1E JUMPI PUSH2 0xA1D PUSH2 0x9EC JUMP JUMPDEST JUMPDEST DUP4 JUMPDEST DUP2 DUP2 LT ISZERO PUSH2 0xA47 JUMPI DUP1 PUSH2 0xA33 DUP9 DUP3 PUSH2 0x920 JUMP JUMPDEST DUP5 MSTORE PUSH1 0x20 DUP5 ADD SWAP4 POP POP PUSH1 0x20 DUP2 ADD SWAP1 POP PUSH2 0xA20 JUMP JUMPDEST POP POP POP SWAP4 SWAP3 POP POP POP JUMP JUMPDEST PUSH1 0x0 DUP3 PUSH1 0x1F DUP4 ADD SLT PUSH2 0xA66 JUMPI PUSH2 0xA65 PUSH2 0x935 JUMP JUMPDEST JUMPDEST PUSH1 0x3 PUSH2 0xA73 DUP5 DUP3 DUP6 PUSH2 0x9F1 JUMP JUMPDEST SWAP2 POP POP SWAP3 SWAP2 POP POP JUMP JUMPDEST PUSH1 0x0 DUP1 PUSH1 0x80 DUP4 DUP6 SUB SLT ISZERO PUSH2 0xA93 JUMPI PUSH2 0xA92 PUSH2 0x8FA JUMP JUMPDEST JUMPDEST PUSH1 0x0 PUSH2 0xAA1 DUP6 DUP3 DUP7 ADD PUSH2 0x920 JUMP JUMPDEST SWAP3 POP POP PUSH1 0x20 PUSH2 0xAB2 DUP6 DUP3 DUP7 ADD PUSH2 0xA51 JUMP JUMPDEST SWAP2 POP POP SWAP3 POP SWAP3 SWAP1 POP JUMP JUMPDEST PUSH1 0x0 DUP2 MLOAD SWAP1 POP SWAP2 SWAP1 POP JUMP JUMPDEST PUSH1 0x0 DUP3 DUP3 MSTORE PUSH1 0x20 DUP3 ADD SWAP1 POP SWAP3 SWAP2 POP POP JUMP JUMPDEST PUSH1 0x0 JUMPDEST DUP4 DUP2 LT ISZERO PUSH2 0xAF6 JUMPI DUP1 DUP3 ADD MLOAD DUP2 DUP5 ADD MSTORE PUSH1 0x20 DUP2 ADD SWAP1 POP PUSH2 0xADB JUMP JUMPDEST PUSH1 0x0 DUP5 DUP5 ADD MSTORE POP POP POP POP JUMP JUMPDEST PUSH1 0x0 PUSH2 0xB0D DUP3 PUSH2 0xABC JUMP JUMPDEST PUSH2 0xB17 DUP2 DUP6 PUSH2 0xAC7 JUMP JUMPDEST SWAP4 POP PUSH2 0xB27 DUP2 DUP6 PUSH1 0x20 DUP7 ADD PUSH2 0xAD8 JUMP JUMPDEST PUSH2 0xB30 DUP2 PUSH2 0x93A JUMP JUMPDEST DUP5 ADD SWAP2 POP POP SWAP3 SWAP2 POP POP JUMP JUMPDEST PUSH1 0x0 PUSH1 0x20 DUP3 ADD SWAP1 POP DUP2 DUP2 SUB PUSH1 0x0 DUP4 ADD MSTORE PUSH2 0xB55 DUP2 DUP5 PUSH2 0xB02 JUMP JUMPDEST SWAP1 POP SWAP3 SWAP2 POP POP JUMP JUMPDEST PUSH32 0x4E487B7100000000000000000000000000000000000000000000000000000000 PUSH1 0x0 MSTORE PUSH1 0x32 PUSH1 0x4 MSTORE PUSH1 0x24 PUSH1 0x0 REVERT JUMPDEST PUSH1 0x0 DUP2 SWAP1 POP SWAP3 SWAP2 POP POP JUMP JUMPDEST PUSH32 0x2A7B66696C6C3A72676228000000000000000000000000000000000000000000 PUSH1 0x0 DUP3 ADD MSTORE POP JUMP JUMPDEST PUSH1 0x0 PUSH2 0xBCD PUSH1 0xB DUP4 PUSH2 0xB8C JUMP JUMPDEST SWAP2 POP PUSH2 0xBD8 DUP3 PUSH2 0xB97 JUMP JUMPDEST PUSH1 0xB DUP3 ADD SWAP1 POP SWAP2 SWAP1 POP JUMP JUMPDEST PUSH1 0x0 PUSH2 0xBEE DUP3 PUSH2 0xABC JUMP JUMPDEST PUSH2 0xBF8 DUP2 DUP6 PUSH2 0xB8C JUMP JUMPDEST SWAP4 POP PUSH2 0xC08 DUP2 DUP6 PUSH1 0x20 DUP7 ADD PUSH2 0xAD8 JUMP JUMPDEST DUP1 DUP5 ADD SWAP2 POP POP SWAP3 SWAP2 POP POP JUMP JUMPDEST PUSH32 0x2C00000000000000000000000000000000000000000000000000000000000000 PUSH1 0x0 DUP3 ADD MSTORE POP JUMP JUMPDEST PUSH1 0x0 PUSH2 0xC4A PUSH1 0x1 DUP4 PUSH2 0xB8C JUMP JUMPDEST SWAP2 POP PUSH2 0xC55 DUP3 PUSH2 0xC14 JUMP JUMPDEST PUSH1 0x1 DUP3 ADD SWAP1 POP SWAP2 SWAP1 POP JUMP JUMPDEST PUSH32 0x297D2362677B66696C6C3A233043304330437D00000000000000000000000000 PUSH1 0x0 DUP3 ADD MSTORE POP JUMP JUMPDEST PUSH1 0x0 PUSH2 0xC96 PUSH1 0x13 DUP4 PUSH2 0xB8C JUMP JUMPDEST SWAP2 POP PUSH2 0xCA1 DUP3 PUSH2 0xC60 JUMP JUMPDEST PUSH1 0x13 DUP3 ADD SWAP1 POP SWAP2 SWAP1 POP JUMP JUMPDEST PUSH1 0x0 PUSH2 0xCB7 DUP3 PUSH2 0xBC0 JUMP JUMPDEST SWAP2 POP PUSH2 0xCC3 DUP3 DUP7 PUSH2 0xBE3 JUMP JUMPDEST SWAP2 POP PUSH2 0xCCE DUP3 PUSH2 0xC3D JUMP JUMPDEST SWAP2 POP PUSH2 0xCDA DUP3 DUP6 PUSH2 0xBE3 JUMP JUMPDEST SWAP2 POP PUSH2 0xCE5 DUP3 PUSH2 0xC3D JUMP JUMPDEST SWAP2 POP PUSH2 0xCF1 DUP3 DUP5 PUSH2 0xBE3 JUMP JUMPDEST SWAP2 POP PUSH2 0xCFC DUP3 PUSH2 0xC89 JUMP JUMPDEST SWAP2 POP DUP2 SWAP1 POP SWAP5 SWAP4 POP POP POP POP JUMP JUMPDEST PUSH1 0x0 PUSH2 0xD15 DUP3 DUP6 PUSH2 0xBE3 JUMP JUMPDEST SWAP2 POP PUSH2 0xD21 DUP3 DUP5 PUSH2 0xBE3 JUMP JUMPDEST SWAP2 POP DUP2 SWAP1 POP SWAP4 SWAP3 POP POP POP JUMP JUMPDEST PUSH32 0x3C2F7374796C653E3C2F7376673E000000000000000000000000000000000000 PUSH1 0x0 DUP3 ADD MSTORE POP JUMP JUMPDEST PUSH1 0x0 PUSH2 0xD63 PUSH1 0xE DUP4 PUSH2 0xB8C JUMP JUMPDEST SWAP2 POP PUSH2 0xD6E DUP3 PUSH2 0xD2D JUMP JUMPDEST PUSH1 0xE DUP3 ADD SWAP1 POP SWAP2 SWAP1 POP JUMP JUMPDEST PUSH1 0x0 PUSH2 0xD85 DUP3 DUP6 PUSH2 0xBE3 JUMP JUMPDEST SWAP2 POP PUSH2 0xD91 DUP3 DUP5 PUSH2 0xBE3 JUMP JUMPDEST SWAP2 POP PUSH2 0xD9C DUP3 PUSH2 0xD56 JUMP JUMPDEST SWAP2 POP DUP2 SWAP1 POP SWAP4 SWAP3 POP POP POP JUMP JUMPDEST PUSH32 0x4E487B7100000000000000000000000000000000000000000000000000000000 PUSH1 0x0 MSTORE PUSH1 0x11 PUSH1 0x4 MSTORE PUSH1 0x24 PUSH1 0x0 REVERT JUMPDEST PUSH1 0x0 PUSH2 0xDE2 DUP3 PUSH2 0x8FF JUMP JUMPDEST SWAP2 POP PUSH32 0xFFFFFFFFFFFFFFFFFFFFFFFFFFFFFFFFFFFFFFFFFFFFFFFFFFFFFFFFFFFFFFFF DUP3 SUB PUSH2 0xE14 JUMPI PUSH2 0xE13 PUSH2 0xDA8 JUMP JUMPDEST JUMPDEST PUSH1 0x1 DUP3 ADD SWAP1 POP SWAP2 SWAP1 POP JUMP JUMPDEST PUSH32 0x4E487B7100000000000000000000000000000000000000000000000000000000 PUSH1 0x0 MSTORE PUSH1 0x12 PUSH1 0x4 MSTORE PUSH1 0x24 PUSH1 0x0 REVERT JUMPDEST PUSH1 0x0 PUSH2 0xE59 DUP3 PUSH2 0x8FF JUMP JUMPDEST SWAP2 POP PUSH2 0xE64 DUP4 PUSH2 0x8FF JUMP JUMPDEST SWAP3 POP DUP3 PUSH2 0xE74 JUMPI PUSH2 0xE73 PUSH2 0xE1F JUMP JUMPDEST JUMPDEST DUP3 DUP3 DIV SWAP1 POP SWAP3 SWAP2 POP POP JUMP JUMPDEST PUSH1 0x0 PUSH2 0xE8A DUP3 PUSH2 0x8FF JUMP JUMPDEST SWAP2 POP PUSH2 0xE95 DUP4 PUSH2 0x8FF JUMP JUMPDEST SWAP3 POP DUP3 DUP3 SUB SWAP1 POP DUP2 DUP2 GT ISZERO PUSH2 0xEAD JUMPI PUSH2 0xEAC PUSH2 0xDA8 JUMP JUMPDEST JUMPDEST SWAP3 SWAP2 POP POP JUMP JUMPDEST PUSH1 0x0 PUSH2 0xEBE DUP3 PUSH2 0x8FF JUMP JUMPDEST SWAP2 POP PUSH2 0xEC9 DUP4 PUSH2 0x8FF JUMP JUMPDEST SWAP3 POP DUP3 DUP3 MUL PUSH2 0xED7 DUP2 PUSH2 0x8FF JUMP JUMPDEST SWAP2 POP DUP3 DUP3 DIV DUP5 EQ DUP4 ISZERO OR PUSH2 0xEEE JUMPI PUSH2 0xEED PUSH2 0xDA8 JUMP JUMPDEST JUMPDEST POP SWAP3 SWAP2 POP POP JUMP JUMPDEST PUSH1 0x0 PUSH1 0xFF DUP3 AND SWAP1 POP SWAP2 SWAP1 POP JUMP JUMPDEST PUSH1 0x0 PUSH2 0xF0D DUP3 PUSH2 0xEF5 JUMP JUMPDEST SWAP2 POP PUSH2 0xF18 DUP4 PUSH2 0xEF5 JUMP JUMPDEST SWAP3 POP DUP3 DUP3 ADD SWAP1 POP PUSH1 0xFF DUP2 GT ISZERO PUSH2 0xF31 JUMPI PUSH2 0xF30 PUSH2 0xDA8 JUMP JUMPDEST JUMPDEST SWAP3 SWAP2 POP POP JUMP JUMPDEST PUSH1 0x0 PUSH2 0xF42 DUP3 PUSH2 0x8FF JUMP JUMPDEST SWAP2 POP PUSH2 0xF4D DUP4 PUSH2 0x8FF JUMP JUMPDEST SWAP3 POP DUP3 PUSH2 0xF5D JUMPI PUSH2 0xF5C PUSH2 0xE1F JUMP JUMPDEST JUMPDEST DUP3 DUP3 MOD SWAP1 POP SWAP3 SWAP2 POP POP JUMP JUMPDEST PUSH32 0x2370000000000000000000000000000000000000000000000000000000000000 PUSH1 0x0 DUP3 ADD MSTORE POP JUMP JUMPDEST PUSH1 0x0 PUSH2 0xF9E PUSH1 0x2 DUP4 PUSH2 0xB8C JUMP JUMPDEST SWAP2 POP PUSH2 0xFA9 DUP3 PUSH2 0xF68 JUMP JUMPDEST PUSH1 0x2 DUP3 ADD SWAP1 POP SWAP2 SWAP1 POP JUMP JUMPDEST PUSH32 0x312C000000000000000000000000000000000000000000000000000000000000 PUSH1 0x0 DUP3 ADD MSTORE POP JUMP JUMPDEST PUSH1 0x0 PUSH2 0xFEA PUSH1 0x2 DUP4 PUSH2 0xB8C JUMP JUMPDEST SWAP2 POP PUSH2 0xFF5 DUP3 PUSH2 0xFB4 JUMP JUMPDEST PUSH1 0x2 DUP3 ADD SWAP1 POP SWAP2 SWAP1 POP JUMP JUMPDEST PUSH32 0x322C000000000000000000000000000000000000000000000000000000000000 PUSH1 0x0 DUP3 ADD MSTORE POP JUMP JUMPDEST PUSH1 0x0 PUSH2 0x1036 PUSH1 0x2 DUP4 PUSH2 0xB8C JUMP JUMPDEST SWAP2 POP PUSH2 0x1041 DUP3 PUSH2 0x1000 JUMP JUMPDEST PUSH1 0x2 DUP3 ADD SWAP1 POP SWAP2 SWAP1 POP JUMP JUMPDEST PUSH32 0x332C000000000000000000000000000000000000000000000000000000000000 PUSH1 0x0 DUP3 ADD MSTORE POP JUMP JUMPDEST PUSH1 0x0 PUSH2 0x1082 PUSH1 0x2 DUP4 PUSH2 0xB8C JUMP JUMPDEST SWAP2 POP PUSH2 0x108D DUP3 PUSH2 0x104C JUMP JUMPDEST PUSH1 0x2 DUP3 ADD SWAP1 POP SWAP2 SWAP1 POP JUMP JUMPDEST PUSH32 0x352C000000000000000000000000000000000000000000000000000000000000 PUSH1 0x0 DUP3 ADD MSTORE POP JUMP JUMPDEST PUSH1 0x0 PUSH2 0x10CE PUSH1 0x2 DUP4 PUSH2 0xB8C JUMP JUMPDEST SWAP2 POP PUSH2 0x10D9 DUP3 PUSH2 0x1098 JUMP JUMPDEST PUSH1 0x2 DUP3 ADD SWAP1 POP SWAP2 SWAP1 POP JUMP JUMPDEST PUSH32 0x362C000000000000000000000000000000000000000000000000000000000000 PUSH1 0x0 DUP3 ADD MSTORE POP JUMP JUMPDEST PUSH1 0x0 PUSH2 0x111A PUSH1 0x2 DUP4 PUSH2 0xB8C JUMP JUMPDEST SWAP2 POP PUSH2 0x1125 DUP3 PUSH2 0x10E4 JUMP JUMPDEST PUSH1 0x2 DUP3 ADD SWAP1 POP SWAP2 SWAP1 POP JUMP JUMPDEST PUSH32 0x37207B66696C6C2D6F7061636974793A317D0000000000000000000000000000 PUSH1 0x0 DUP3 ADD MSTORE POP JUMP JUMPDEST PUSH1 0x0 PUSH2 0x1166 PUSH1 0x12 DUP4 PUSH2 0xB8C JUMP JUMPDEST SWAP2 POP PUSH2 0x1171 DUP3 PUSH2 0x1130 JUMP JUMPDEST PUSH1 0x12 DUP3 ADD SWAP1 POP SWAP2 SWAP1 POP JUMP JUMPDEST PUSH1 0x0 PUSH2 0x1187 DUP3 PUSH2 0xF91 JUMP JUMPDEST SWAP2 POP PUSH2 0x1193 DUP3 DUP10 PUSH2 0xBE3 JUMP JUMPDEST SWAP2 POP PUSH2 0x119E DUP3 PUSH2 0xFDD JUMP JUMPDEST SWAP2 POP PUSH2 0x11A9 DUP3 PUSH2 0xF91 JUMP JUMPDEST SWAP2 POP PUSH2 0x11B5 DUP3 DUP9 PUSH2 0xBE3 JUMP JUMPDEST SWAP2 POP PUSH2 0x11C0 DUP3 PUSH2 0x1029 JUMP JUMPDEST SWAP2 POP PUSH2 0x11CB DUP3 PUSH2 0xF91 JUMP JUMPDEST SWAP2 POP PUSH2 0x11D7 DUP3 DUP8 PUSH2 0xBE3 JUMP JUMPDEST SWAP2 POP PUSH2 0x11E2 DUP3 PUSH2 0x1075 JUMP JUMPDEST SWAP2 POP PUSH2 0x11ED DUP3 PUSH2 0xF91 JUMP JUMPDEST SWAP2 POP PUSH2 0x11F9 DUP3 DUP7 PUSH2 0xBE3 JUMP JUMPDEST SWAP2 POP PUSH2 0x1204 DUP3 PUSH2 0x10C1 JUMP JUMPDEST SWAP2 POP PUSH2 0x120F DUP3 PUSH2 0xF91 JUMP JUMPDEST SWAP2 POP PUSH2 0x121B DUP3 DUP6 PUSH2 0xBE3 JUMP JUMPDEST SWAP2 POP PUSH2 0x1226 DUP3 PUSH2 0x110D JUMP JUMPDEST SWAP2 POP PUSH2 0x1231 DUP3 PUSH2 0xF91 JUMP JUMPDEST SWAP2 POP PUSH2 0x123D DUP3 DUP5 PUSH2 0xBE3 JUMP JUMPDEST SWAP2 POP PUSH2 0x1248 DUP3 PUSH2 0x1159 JUMP JUMPDEST SWAP2 POP DUP2 SWAP1 POP SWAP8 SWAP7 POP POP POP POP POP POP POP JUMP JUMPDEST PUSH32 0x36207B66696C6C2D6F7061636974793A317D0000000000000000000000000000 PUSH1 0x0 DUP3 ADD MSTORE POP JUMP JUMPDEST PUSH1 0x0 PUSH2 0x128E PUSH1 0x12 DUP4 PUSH2 0xB8C JUMP JUMPDEST SWAP2 POP PUSH2 0x1299 DUP3 PUSH2 0x1258 JUMP JUMPDEST PUSH1 0x12 DUP3 ADD SWAP1 POP SWAP2 SWAP1 POP JUMP JUMPDEST PUSH1 0x0 PUSH2 0x12AF DUP3 PUSH2 0xF91 JUMP JUMPDEST SWAP2 POP PUSH2 0x12BB DUP3 DUP6 PUSH2 0xBE3 JUMP JUMPDEST SWAP2 POP PUSH2 0x12C6 DUP3 PUSH2 0x1075 JUMP JUMPDEST SWAP2 POP PUSH2 0x12D1 DUP3 PUSH2 0xF91 JUMP JUMPDEST SWAP2 POP PUSH2 0x12DD DUP3 DUP5 PUSH2 0xBE3 JUMP JUMPDEST SWAP2 POP PUSH2 0x12E8 DUP3 PUSH2 0x1281 JUMP JUMPDEST SWAP2 POP DUP2 SWAP1 POP SWAP4 SWAP3 POP POP POP JUMP JUMPDEST PUSH32 0x342C000000000000000000000000000000000000000000000000000000000000 PUSH1 0x0 DUP3 ADD MSTORE POP JUMP JUMPDEST PUSH1 0x0 PUSH2 0x132A PUSH1 0x2 DUP4 PUSH2 0xB8C JUMP JUMPDEST SWAP2 POP PUSH2 0x1335 DUP3 PUSH2 0x12F4 JUMP JUMPDEST PUSH1 0x2 DUP3 ADD SWAP1 POP SWAP2 SWAP1 POP JUMP JUMPDEST PUSH1 0x0 PUSH2 0x134B DUP3 PUSH2 0xF91 JUMP JUMPDEST SWAP2 POP PUSH2 0x1357 DUP3 DUP9 PUSH2 0xBE3 JUMP JUMPDEST SWAP2 POP PUSH2 0x1362 DUP3 PUSH2 0xFDD JUMP JUMPDEST SWAP2 POP PUSH2 0x136D DUP3 PUSH2 0xF91 JUMP JUMPDEST SWAP2 POP PUSH2 0x1379 DUP3 DUP8 PUSH2 0xBE3 JUMP JUMPDEST SWAP2 POP PUSH2 0x1384 DUP3 PUSH2 0x1075 JUMP JUMPDEST SWAP2 POP PUSH2 0x138F DUP3 PUSH2 0xF91 JUMP JUMPDEST SWAP2 POP PUSH2 0x139B DUP3 DUP7 PUSH2 0xBE3 JUMP JUMPDEST SWAP2 POP PUSH2 0x13A6 DUP3 PUSH2 0x131D JUMP JUMPDEST SWAP2 POP PUSH2 0x13B1 DUP3 PUSH2 0xF91 JUMP JUMPDEST SWAP2 POP PUSH2 0x13BD DUP3 DUP6 PUSH2 0xBE3 JUMP JUMPDEST SWAP2 POP PUSH2 0x13C8 DUP3 PUSH2 0x10C1 JUMP JUMPDEST SWAP2 POP PUSH2 0x13D3 DUP3 PUSH2 0xF91 JUMP JUMPDEST SWAP2 POP PUSH2 0x13DF DUP3 DUP5 PUSH2 0xBE3 JUMP JUMPDEST SWAP2 POP PUSH2 0x13EA DUP3 PUSH2 0x1159 JUMP JUMPDEST SWAP2 POP DUP2 SWAP1 POP SWAP7 SWAP6 POP POP POP POP POP POP JUMP JUMPDEST PUSH1 0x0 PUSH2 0x1404 DUP3 PUSH2 0xF91 JUMP JUMPDEST SWAP2 POP PUSH2 0x1410 DUP3 DUP9 PUSH2 0xBE3 JUMP JUMPDEST SWAP2 POP PUSH2 0x141B DUP3 PUSH2 0xFDD JUMP JUMPDEST SWAP2 POP PUSH2 0x1426 DUP3 PUSH2 0xF91 JUMP JUMPDEST SWAP2 POP PUSH2 0x1432 DUP3 DUP8 PUSH2 0xBE3 JUMP JUMPDEST SWAP2 POP PUSH2 0x143D DUP3 PUSH2 0x1075 JUMP JUMPDEST SWAP2 POP PUSH2 0x1448 DUP3 PUSH2 0xF91 JUMP JUMPDEST SWAP2 POP PUSH2 0x1454 DUP3 DUP7 PUSH2 0xBE3 JUMP JUMPDEST SWAP2 POP PUSH2 0x145F DUP3 PUSH2 0x131D JUMP JUMPDEST SWAP2 POP PUSH2 0x146A DUP3 PUSH2 0xF91 JUMP JUMPDEST SWAP2 POP PUSH2 0x1476 DUP3 DUP6 PUSH2 0xBE3 JUMP JUMPDEST SWAP2 POP PUSH2 0x1481 DUP3 PUSH2 0x110D JUMP JUMPDEST SWAP2 POP PUSH2 0x148C DUP3 PUSH2 0xF91 JUMP JUMPDEST SWAP2 POP PUSH2 0x1498 DUP3 DUP5 PUSH2 0xBE3 JUMP JUMPDEST SWAP2 POP PUSH2 0x14A3 DUP3 PUSH2 0x1159 JUMP JUMPDEST SWAP2 POP DUP2 SWAP1 POP SWAP7 SWAP6 POP POP POP POP POP POP JUMP JUMPDEST PUSH1 0x0 PUSH2 0x14BD DUP3 PUSH2 0xF91 JUMP JUMPDEST SWAP2 POP PUSH2 0x14C9 DUP3 DUP8 PUSH2 0xBE3 JUMP JUMPDEST SWAP2 POP PUSH2 0x14D4 DUP3 PUSH2 0x1029 JUMP JUMPDEST SWAP2 POP PUSH2 0x14DF DUP3 PUSH2 0xF91 JUMP JUMPDEST SWAP2 POP PUSH2 0x14EB DUP3 DUP7 PUSH2 0xBE3 JUMP JUMPDEST SWAP2 POP PUSH2 0x14F6 DUP3 PUSH2 0x1075 JUMP JUMPDEST SWAP2 POP PUSH2 0x1501 DUP3 PUSH2 0xF91 JUMP JUMPDEST SWAP2 POP PUSH2 0x150D DUP3 DUP6 PUSH2 0xBE3 JUMP JUMPDEST SWAP2 POP PUSH2 0x1518 DUP3 PUSH2 0x131D JUMP JUMPDEST SWAP2 POP PUSH2 0x1523 DUP3 PUSH2 0xF91 JUMP JUMPDEST SWAP2 POP PUSH2 0x152F DUP3 DUP5 PUSH2 0xBE3 JUMP JUMPDEST SWAP2 POP PUSH2 0x153A DUP3 PUSH2 0x1281 JUMP JUMPDEST SWAP2 POP DUP2 SWAP1 POP SWAP6 SWAP5 POP POP POP POP POP JUMP JUMPDEST PUSH1 0x0 PUSH2 0x1553 DUP3 PUSH2 0xF91 JUMP JUMPDEST SWAP2 POP PUSH2 0x155F DUP3 DUP9 PUSH2 0xBE3 JUMP JUMPDEST SWAP2 POP PUSH2 0x156A DUP3 PUSH2 0xFDD JUMP JUMPDEST SWAP2 POP PUSH2 0x1575 DUP3 PUSH2 0xF91 JUMP JUMPDEST SWAP2 POP PUSH2 0x1581 DUP3 DUP8 PUSH2 0xBE3 JUMP JUMPDEST SWAP2 POP PUSH2 0x158C DUP3 PUSH2 0x1029 JUMP JUMPDEST SWAP2 POP PUSH2 0x1597 DUP3 PUSH2 0xF91 JUMP JUMPDEST SWAP2 POP PUSH2 0x15A3 DUP3 DUP7 PUSH2 0xBE3 JUMP JUMPDEST SWAP2 POP PUSH2 0x15AE DUP3 PUSH2 0x131D JUMP JUMPDEST SWAP2 POP PUSH2 0x15B9 DUP3 PUSH2 0xF91 JUMP JUMPDEST SWAP2 POP PUSH2 0x15C5 DUP3 DUP6 PUSH2 0xBE3 JUMP JUMPDEST SWAP2 POP PUSH2 0x15D0 DUP3 PUSH2 0x110D JUMP JUMPDEST SWAP2 POP PUSH2 0x15DB DUP3 PUSH2 0xF91 JUMP JUMPDEST SWAP2 POP PUSH2 0x15E7 DUP3 DUP5 PUSH2 0xBE3 JUMP JUMPDEST SWAP2 POP PUSH2 0x15F2 DUP3 PUSH2 0x1159 JUMP JUMPDEST SWAP2 POP DUP2 SWAP1 POP SWAP7 SWAP6 POP POP POP POP POP POP JUMP JUMPDEST PUSH1 0x0 PUSH2 0x160C DUP3 PUSH2 0xF91 JUMP JUMPDEST SWAP2 POP PUSH2 0x1618 DUP3 DUP10 PUSH2 0xBE3 JUMP JUMPDEST SWAP2 POP PUSH2 0x1623 DUP3 PUSH2 0xFDD JUMP JUMPDEST SWAP2 POP PUSH2 0x162E DUP3 PUSH2 0xF91 JUMP JUMPDEST SWAP2 POP PUSH2 0x163A DUP3 DUP9 PUSH2 0xBE3 JUMP JUMPDEST SWAP2 POP PUSH2 0x1645 DUP3 PUSH2 0x1029 JUMP JUMPDEST SWAP2 POP PUSH2 0x1650 DUP3 PUSH2 0xF91 JUMP JUMPDEST SWAP2 POP PUSH2 0x165C DUP3 DUP8 PUSH2 0xBE3 JUMP JUMPDEST SWAP2 POP PUSH2 0x1667 DUP3 PUSH2 0x131D JUMP JUMPDEST SWAP2 POP PUSH2 0x1672 DUP3 PUSH2 0xF91 JUMP JUMPDEST SWAP2 POP PUSH2 0x167E DUP3 DUP7 PUSH2 0xBE3 JUMP JUMPDEST SWAP2 POP PUSH2 0x1689 DUP3 PUSH2 0x10C1 JUMP JUMPDEST SWAP2 POP PUSH2 0x1694 DUP3 PUSH2 0xF91 JUMP JUMPDEST SWAP2 POP PUSH2 0x16A0 DUP3 DUP6 PUSH2 0xBE3 JUMP JUMPDEST SWAP2 POP PUSH2 0x16AB DUP3 PUSH2 0x110D JUMP JUMPDEST SWAP2 POP PUSH2 0x16B6 DUP3 PUSH2 0xF91 JUMP JUMPDEST SWAP2 POP PUSH2 0x16C2 DUP3 DUP5 PUSH2 0xBE3 JUMP JUMPDEST SWAP2 POP PUSH2 0x16CD DUP3 PUSH2 0x1159 JUMP JUMPDEST SWAP2 POP DUP2 SWAP1 POP SWAP8 SWAP7 POP POP POP POP POP POP POP JUMP JUMPDEST PUSH1 0x0 PUSH2 0x16E8 DUP3 PUSH2 0xF91 JUMP JUMPDEST SWAP2 POP PUSH2 0x16F4 DUP3 DUP7 PUSH2 0xBE3 JUMP JUMPDEST SWAP2 POP PUSH2 0x16FF DUP3 PUSH2 0xFDD JUMP JUMPDEST SWAP2 POP PUSH2 0x170A DUP3 PUSH2 0xF91 JUMP JUMPDEST SWAP2 POP PUSH2 0x1716 DUP3 DUP6 PUSH2 0xBE3 JUMP JUMPDEST SWAP2 POP PUSH2 0x1721 DUP3 PUSH2 0x1075 JUMP JUMPDEST SWAP2 POP PUSH2 0x172C DUP3 PUSH2 0xF91 JUMP JUMPDEST SWAP2 POP PUSH2 0x1738 DUP3 DUP5 PUSH2 0xBE3 JUMP JUMPDEST SWAP2 POP PUSH2 0x1743 DUP3 PUSH2 0x1281 JUMP JUMPDEST SWAP2 POP DUP2 SWAP1 POP SWAP5 SWAP4 POP POP POP POP JUMP JUMPDEST PUSH1 0x0 PUSH2 0x175B DUP3 PUSH2 0xF91 JUMP JUMPDEST SWAP2 POP PUSH2 0x1767 DUP3 DUP11 PUSH2 0xBE3 JUMP JUMPDEST SWAP2 POP PUSH2 0x1772 DUP3 PUSH2 0xFDD JUMP JUMPDEST SWAP2 POP PUSH2 0x177D DUP3 PUSH2 0xF91 JUMP JUMPDEST SWAP2 POP PUSH2 0x1789 DUP3 DUP10 PUSH2 0xBE3 JUMP JUMPDEST SWAP2 POP PUSH2 0x1794 DUP3 PUSH2 0x1029 JUMP JUMPDEST SWAP2 POP PUSH2 0x179F DUP3 PUSH2 0xF91 JUMP JUMPDEST SWAP2 POP PUSH2 0x17AB DUP3 DUP9 PUSH2 0xBE3 JUMP JUMPDEST SWAP2 POP PUSH2 0x17B6 DUP3 PUSH2 0x1075 JUMP JUMPDEST SWAP2 POP PUSH2 0x17C1 DUP3 PUSH2 0xF91 JUMP JUMPDEST SWAP2 POP PUSH2 0x17CD DUP3 DUP8 PUSH2 0xBE3 JUMP JUMPDEST SWAP2 POP PUSH2 0x17D8 DUP3 PUSH2 0x131D JUMP JUMPDEST SWAP2 POP PUSH2 0x17E3 DUP3 PUSH2 0xF91 JUMP JUMPDEST SWAP2 POP PUSH2 0x17EF DUP3 DUP7 PUSH2 0xBE3 JUMP JUMPDEST SWAP2 POP PUSH2 0x17FA DUP3 PUSH2 0x10C1 JUMP JUMPDEST SWAP2 POP PUSH2 0x1805 DUP3 PUSH2 0xF91 JUMP JUMPDEST SWAP2 POP PUSH2 0x1811 DUP3 DUP6 PUSH2 0xBE3 JUMP JUMPDEST SWAP2 POP PUSH2 0x181C DUP3 PUSH2 0x110D JUMP JUMPDEST SWAP2 POP PUSH2 0x1827 DUP3 PUSH2 0xF91 JUMP JUMPDEST SWAP2 POP PUSH2 0x1833 DUP3 DUP5 PUSH2 0xBE3 JUMP JUMPDEST SWAP2 POP PUSH2 0x183E DUP3 PUSH2 0x1159 JUMP JUMPDEST SWAP2 POP DUP2 SWAP1 POP SWAP9 SWAP8 POP POP POP POP POP POP POP POP JUMP JUMPDEST PUSH1 0x0 PUSH2 0x185A DUP3 PUSH2 0xF91 JUMP JUMPDEST SWAP2 POP PUSH2 0x1866 DUP3 DUP10 PUSH2 0xBE3 JUMP JUMPDEST SWAP2 POP PUSH2 0x1871 DUP3 PUSH2 0xFDD JUMP JUMPDEST SWAP2 POP PUSH2 0x187C DUP3 PUSH2 0xF91 JUMP JUMPDEST SWAP2 POP PUSH2 0x1888 DUP3 DUP9 PUSH2 0xBE3 JUMP JUMPDEST SWAP2 POP PUSH2 0x1893 DUP3 PUSH2 0x1029 JUMP JUMPDEST SWAP2 POP PUSH2 0x189E DUP3 PUSH2 0xF91 JUMP JUMPDEST SWAP2 POP PUSH2 0x18AA DUP3 DUP8 PUSH2 0xBE3 JUMP JUMPDEST SWAP2 POP PUSH2 0x18B5 DUP3 PUSH2 0x1075 JUMP JUMPDEST SWAP2 POP PUSH2 0x18C0 DUP3 PUSH2 0xF91 JUMP JUMPDEST SWAP2 POP PUSH2 0x18CC DUP3 DUP7 PUSH2 0xBE3 JUMP JUMPDEST SWAP2 POP PUSH2 0x18D7 DUP3 PUSH2 0x131D JUMP JUMPDEST SWAP2 POP PUSH2 0x18E2 DUP3 PUSH2 0xF91 JUMP JUMPDEST SWAP2 POP PUSH2 0x18EE DUP3 DUP6 PUSH2 0xBE3 JUMP JUMPDEST SWAP2 POP PUSH2 0x18F9 DUP3 PUSH2 0x110D JUMP JUMPDEST SWAP2 POP PUSH2 0x1904 DUP3 PUSH2 0xF91 JUMP JUMPDEST SWAP2 POP PUSH2 0x1910 DUP3 DUP5 PUSH2 0xBE3 JUMP JUMPDEST SWAP2 POP PUSH2 0x191B DUP3 PUSH2 0x1159 JUMP JUMPDEST SWAP2 POP DUP2 SWAP1 POP SWAP8 SWAP7 POP POP POP POP POP POP POP JUMP INVALID EXTCODECOPY PUSH20 0x76672076696577426F783D223020302033303020 CALLER ADDRESS ADDRESS 0x22 KECCAK256 PUSH7 0x696C6C3D226E6F PUSH15 0x652220786D6C6E733D22687474703A 0x2F 0x2F PUSH24 0x77772E77332E6F72672F323030302F737667223E3C726563 PUSH21 0x2069643D226267222077696474683D223330302220 PUSH9 0x65696768743D223330 ADDRESS 0x22 KECCAK256 PUSH7 0x696C6C3D222330 NUMBER ADDRESS NUMBER ADDRESS NUMBER 0x22 0x2F RETURNDATACOPY EXTCODECOPY PUSH17 0x6174682069643D227030312220643D224D BALANCE ADDRESS ADDRESS KECCAK256 BALANCE BALANCE CODECOPY 0x4C BALANCE ADDRESS CALLER KECCAK256 BALANCE ORIGIN ORIGIN 0x4C BALANCE ADDRESS ADDRESS KECCAK256 BALANCE ORIGIN CALLDATALOAD 0x4C CODESIZE ADDRESS KECCAK256 BALANCE ORIGIN CALLDATALOAD 0x4C CALLDATACOPY CALLDATACOPY KECCAK256 BALANCE ORIGIN ORIGIN 0x4C CODESIZE ADDRESS KECCAK256 BALANCE BALANCE CODECOPY 0x4C BALANCE ADDRESS ADDRESS KECCAK256 BALANCE BALANCE CODECOPY GAS 0x22 KECCAK256 PUSH7 0x696C6C3D227768 PUSH10 0x7465222066696C6C2D6F PUSH17 0x61636974793D22302E3035222F3E3C7061 PUSH21 0x682069643D227030322220643D224D373320313236 0x4C CALLDATACOPY CALLDATASIZE KECCAK256 BALANCE ORIGIN CALLER 0x4C CALLDATACOPY CODECOPY KECCAK256 BALANCE ORIGIN CALLDATASIZE JUMP BALANCE CALLVALUE CALLDATASIZE 0x4C CALLDATACOPY CALLDATASIZE KECCAK256 BALANCE CALLVALUE CODECOPY 0x4C CALLDATACOPY CALLER KECCAK256 BALANCE CALLVALUE CALLDATASIZE JUMP BALANCE ORIGIN CALLDATASIZE GAS 0x22 KECCAK256 PUSH7 0x696C6C3D227768 PUSH10 0x7465222066696C6C2D6F PUSH17 0x61636974793D22302E3035222F3E3C7061 PUSH21 0x682069643D227030332220643D224D313031203132 CALLDATASIZE 0x4C BALANCE ADDRESS CALLVALUE KECCAK256 BALANCE ORIGIN CALLER 0x4C BALANCE ADDRESS CALLDATACOPY KECCAK256 BALANCE ORIGIN CALLDATASIZE JUMP BALANCE CALLVALUE CALLDATASIZE 0x4C BALANCE ADDRESS CALLVALUE KECCAK256 BALANCE CALLVALUE CODECOPY 0x4C BALANCE ADDRESS BALANCE KECCAK256 BALANCE CALLVALUE CALLDATASIZE JUMP BALANCE ORIGIN CALLDATASIZE GAS 0x22 KECCAK256 PUSH7 0x696C6C3D227768 PUSH10 0x7465222066696C6C2D6F PUSH17 0x61636974793D22302E3035222F3E3C7061 PUSH21 0x682069643D227030342220643D224D313030203134 CALLDATACOPY 0x4C BALANCE ADDRESS CALLER KECCAK256 BALANCE CALLDATALOAD ADDRESS 0x4C BALANCE ADDRESS ADDRESS KECCAK256 BALANCE CALLDATALOAD CALLER 0x4C CODESIZE ADDRESS KECCAK256 BALANCE CALLDATALOAD CALLER 0x4C CALLDATACOPY CALLDATACOPY KECCAK256 BALANCE CALLDATALOAD ADDRESS 0x4C CODESIZE ADDRESS KECCAK256 BALANCE CALLVALUE CALLDATACOPY 0x4C BALANCE ADDRESS ADDRESS KECCAK256 BALANCE CALLVALUE CALLDATACOPY GAS 0x22 KECCAK256 PUSH7 0x696C6C3D227768 PUSH10 0x7465222066696C6C2D6F PUSH17 0x61636974793D22302E3035222F3E3C7061 PUSH21 0x682069643D227030352220643D224D373320313534 0x4C CALLDATACOPY CALLDATASIZE KECCAK256 BALANCE CALLDATALOAD BALANCE 0x4C CALLDATACOPY CODECOPY KECCAK256 BALANCE CALLDATALOAD CALLVALUE JUMP BALANCE CALLDATACOPY CALLVALUE 0x4C CALLDATACOPY CALLDATASIZE KECCAK256 BALANCE CALLDATACOPY CALLDATACOPY 0x4C CALLDATACOPY CALLER KECCAK256 BALANCE CALLDATACOPY CALLVALUE JUMP BALANCE CALLDATALOAD CALLVALUE GAS 0x22 KECCAK256 PUSH7 0x696C6C3D227768 PUSH10 0x7465222066696C6C2D6F PUSH17 0x61636974793D22302E3035222F3E3C7061 PUSH21 0x682069643D227030362220643D224D313031203135 CALLVALUE 0x4C BALANCE ADDRESS CALLVALUE KECCAK256 BALANCE CALLDATALOAD BALANCE 0x4C BALANCE ADDRESS CALLDATACOPY KECCAK256 BALANCE CALLDATALOAD CALLVALUE JUMP BALANCE CALLDATACOPY CALLVALUE 0x4C BALANCE ADDRESS CALLVALUE KECCAK256 BALANCE CALLDATACOPY CALLDATACOPY 0x4C BALANCE ADDRESS BALANCE KECCAK256 BALANCE CALLDATACOPY CALLVALUE JUMP BALANCE CALLDATALOAD CALLVALUE GAS 0x22 KECCAK256 PUSH7 0x696C6C3D227768 PUSH10 0x7465222066696C6C2D6F PUSH17 0x61636974793D22302E3035222F3E3C7061 PUSH21 0x682069643D227030372220643D224D313030203137 CALLDATALOAD 0x4C BALANCE ADDRESS CALLER KECCAK256 BALANCE CALLDATACOPY CODESIZE 0x4C BALANCE ADDRESS ADDRESS KECCAK256 BALANCE CODESIZE BALANCE 0x4C CODESIZE ADDRESS KECCAK256 BALANCE CODESIZE BALANCE 0x4C CALLDATACOPY CALLDATACOPY KECCAK256 BALANCE CALLDATACOPY CODESIZE 0x4C CODESIZE ADDRESS KECCAK256 BALANCE CALLDATACOPY CALLDATALOAD 0x4C BALANCE ADDRESS ADDRESS KECCAK256 BALANCE CALLDATACOPY CALLDATALOAD GAS 0x22 KECCAK256 PUSH7 0x696C6C3D227768 PUSH10 0x7465222066696C6C2D6F PUSH17 0x61636974793D22302E3035222F3E3C7061 PUSH21 0x682069643D227031312220643D224D313430203131 CODECOPY 0x4C BALANCE CALLVALUE CALLER KECCAK256 BALANCE ORIGIN ORIGIN 0x4C BALANCE CALLVALUE ADDRESS KECCAK256 BALANCE ORIGIN CALLDATALOAD 0x4C BALANCE ORIGIN ADDRESS KECCAK256 BALANCE ORIGIN CALLDATALOAD 0x4C BALANCE BALANCE CALLDATACOPY KECCAK256 BALANCE ORIGIN ORIGIN 0x4C BALANCE ORIGIN ADDRESS KECCAK256 BALANCE BALANCE CODECOPY 0x4C BALANCE CALLVALUE ADDRESS KECCAK256 BALANCE BALANCE CODECOPY GAS 0x22 KECCAK256 PUSH7 0x696C6C3D227768 PUSH10 0x7465222066696C6C2D6F PUSH17 0x61636974793D22302E3035222F3E3C7061 PUSH21 0x682069643D227031322220643D224D313133203132 CALLDATASIZE 0x4C BALANCE BALANCE CALLDATASIZE KECCAK256 BALANCE ORIGIN CALLER 0x4C BALANCE BALANCE CODECOPY KECCAK256 BALANCE ORIGIN CALLDATASIZE JUMP BALANCE CALLVALUE CALLDATASIZE 0x4C BALANCE BALANCE CALLDATASIZE KECCAK256 BALANCE CALLVALUE CODECOPY 0x4C BALANCE BALANCE CALLER KECCAK256 BALANCE CALLVALUE CALLDATASIZE JUMP BALANCE ORIGIN CALLDATASIZE GAS 0x22 KECCAK256 PUSH7 0x696C6C3D227768 PUSH10 0x7465222066696C6C2D6F PUSH17 0x61636974793D22302E3035222F3E3C7061 PUSH21 0x682069643D227031332220643D224D313431203132 CALLDATASIZE 0x4C BALANCE CALLVALUE CALLVALUE KECCAK256 BALANCE ORIGIN CALLER 0x4C BALANCE CALLVALUE CALLDATACOPY KECCAK256 BALANCE ORIGIN CALLDATASIZE JUMP BALANCE CALLVALUE CALLDATASIZE 0x4C BALANCE CALLVALUE CALLVALUE KECCAK256 BALANCE CALLVALUE CODECOPY 0x4C BALANCE CALLVALUE BALANCE KECCAK256 BALANCE CALLVALUE CALLDATASIZE JUMP BALANCE ORIGIN CALLDATASIZE GAS 0x22 KECCAK256 PUSH7 0x696C6C3D227768 PUSH10 0x7465222066696C6C2D6F PUSH17 0x61636974793D22302E3035222F3E3C7061 PUSH21 0x682069643D227031342220643D224D313430203134 CALLDATACOPY 0x4C BALANCE CALLVALUE CALLER KECCAK256 BALANCE CALLDATALOAD ADDRESS 0x4C BALANCE CALLVALUE ADDRESS KECCAK256 BALANCE CALLDATALOAD CALLER 0x4C BALANCE ORIGIN ADDRESS KECCAK256 BALANCE CALLDATALOAD CALLER 0x4C BALANCE BALANCE CALLDATACOPY KECCAK256 BALANCE CALLDATALOAD ADDRESS 0x4C BALANCE ORIGIN ADDRESS KECCAK256 BALANCE CALLVALUE CALLDATACOPY 0x4C BALANCE CALLVALUE ADDRESS KECCAK256 BALANCE CALLVALUE CALLDATACOPY GAS 0x22 KECCAK256 PUSH7 0x696C6C3D227768 PUSH10 0x7465222066696C6C2D6F PUSH17 0x61636974793D22302E3035222F3E3C7061 PUSH21 0x682069643D227031352220643D224D313133203135 CALLVALUE 0x4C BALANCE BALANCE CALLDATASIZE KECCAK256 BALANCE CALLDATALOAD BALANCE 0x4C BALANCE BALANCE CODECOPY KECCAK256 BALANCE CALLDATALOAD CALLVALUE JUMP BALANCE CALLDATACOPY CALLVALUE 0x4C BALANCE BALANCE CALLDATASIZE KECCAK256 BALANCE CALLDATACOPY CALLDATACOPY 0x4C BALANCE BALANCE CALLER KECCAK256 BALANCE CALLDATACOPY CALLVALUE JUMP BALANCE CALLDATALOAD CALLVALUE GAS 0x22 KECCAK256 PUSH7 0x696C6C3D227768 PUSH10 0x7465222066696C6C2D6F PUSH17 0x61636974793D22302E3035222F3E3C7061 PUSH21 0x682069643D227031362220643D224D313431203135 CALLVALUE 0x4C BALANCE CALLVALUE CALLVALUE KECCAK256 BALANCE CALLDATALOAD BALANCE 0x4C BALANCE CALLVALUE CALLDATACOPY KECCAK256 BALANCE CALLDATALOAD CALLVALUE JUMP BALANCE CALLDATACOPY CALLVALUE 0x4C BALANCE CALLVALUE CALLVALUE KECCAK256 BALANCE CALLDATACOPY CALLDATACOPY 0x4C BALANCE CALLVALUE BALANCE KECCAK256 BALANCE CALLDATACOPY CALLVALUE JUMP BALANCE CALLDATALOAD CALLVALUE GAS 0x22 KECCAK256 PUSH7 0x696C6C3D227768 PUSH10 0x7465222066696C6C2D6F PUSH17 0x61636974793D22302E3035222F3E3C7061 PUSH21 0x682069643D227031372220643D224D313430203137 CALLDATALOAD 0x4C BALANCE CALLVALUE CALLER KECCAK256 BALANCE CALLDATACOPY CODESIZE 0x4C BALANCE CALLVALUE ADDRESS KECCAK256 BALANCE CODESIZE BALANCE 0x4C BALANCE ORIGIN ADDRESS KECCAK256 BALANCE CODESIZE BALANCE 0x4C BALANCE BALANCE CALLDATACOPY KECCAK256 BALANCE CALLDATACOPY CODESIZE 0x4C BALANCE ORIGIN ADDRESS KECCAK256 BALANCE CALLDATACOPY CALLDATALOAD 0x4C BALANCE CALLVALUE ADDRESS KECCAK256 BALANCE CALLDATACOPY CALLDATALOAD GAS 0x22 KECCAK256 PUSH7 0x696C6C3D227768 PUSH10 0x7465222066696C6C2D6F PUSH17 0x61636974793D22302E3035222F3E3C7061 PUSH21 0x682069643D227032312220643D224D313830203131 CODECOPY 0x4C BALANCE CODESIZE CALLER KECCAK256 BALANCE ORIGIN ORIGIN 0x4C BALANCE CODESIZE ADDRESS KECCAK256 BALANCE ORIGIN CALLDATALOAD 0x4C BALANCE CALLDATASIZE ADDRESS KECCAK256 BALANCE ORIGIN CALLDATALOAD 0x4C BALANCE CALLDATALOAD CALLDATACOPY KECCAK256 BALANCE ORIGIN ORIGIN 0x4C BALANCE CALLDATASIZE ADDRESS KECCAK256 BALANCE BALANCE CODECOPY 0x4C BALANCE CODESIZE ADDRESS KECCAK256 BALANCE BALANCE CODECOPY GAS 0x22 KECCAK256 PUSH7 0x696C6C3D227768 PUSH10 0x7465222066696C6C2D6F PUSH17 0x61636974793D22302E3035222F3E3C7061 PUSH21 0x682069643D227032322220643D224D313533203132 CALLDATASIZE 0x4C BALANCE CALLDATALOAD CALLDATASIZE KECCAK256 BALANCE ORIGIN CALLER 0x4C BALANCE CALLDATALOAD CODECOPY KECCAK256 BALANCE ORIGIN CALLDATASIZE JUMP BALANCE CALLVALUE CALLDATASIZE 0x4C BALANCE CALLDATALOAD CALLDATASIZE KECCAK256 BALANCE CALLVALUE CODECOPY 0x4C BALANCE CALLDATALOAD CALLER KECCAK256 BALANCE CALLVALUE CALLDATASIZE JUMP BALANCE ORIGIN CALLDATASIZE GAS 0x22 KECCAK256 PUSH7 0x696C6C3D227768 PUSH10 0x7465222066696C6C2D6F PUSH17 0x61636974793D22302E3035222F3E3C7061 PUSH21 0x682069643D227032332220643D224D313831203132 CALLDATASIZE 0x4C BALANCE CODESIZE CALLVALUE KECCAK256 BALANCE ORIGIN CALLER 0x4C BALANCE CODESIZE CALLDATACOPY KECCAK256 BALANCE ORIGIN CALLDATASIZE JUMP BALANCE CALLVALUE CALLDATASIZE 0x4C BALANCE CODESIZE CALLVALUE KECCAK256 BALANCE CALLVALUE CODECOPY 0x4C BALANCE CODESIZE BALANCE KECCAK256 BALANCE CALLVALUE CALLDATASIZE JUMP BALANCE ORIGIN CALLDATASIZE GAS 0x22 KECCAK256 PUSH7 0x696C6C3D227768 PUSH10 0x7465222066696C6C2D6F PUSH17 0x61636974793D22302E3035222F3E3C7061 PUSH21 0x682069643D227032342220643D224D313830203134 CALLDATACOPY 0x4C BALANCE CODESIZE CALLER KECCAK256 BALANCE CALLDATALOAD ADDRESS 0x4C BALANCE CODESIZE ADDRESS KECCAK256 BALANCE CALLDATALOAD CALLER 0x4C BALANCE CALLDATASIZE ADDRESS KECCAK256 BALANCE CALLDATALOAD CALLER 0x4C BALANCE CALLDATALOAD CALLDATACOPY KECCAK256 BALANCE CALLDATALOAD ADDRESS 0x4C BALANCE CALLDATASIZE ADDRESS KECCAK256 BALANCE CALLVALUE CALLDATACOPY 0x4C BALANCE CODESIZE ADDRESS KECCAK256 BALANCE CALLVALUE CALLDATACOPY GAS 0x22 KECCAK256 PUSH7 0x696C6C3D227768 PUSH10 0x7465222066696C6C2D6F PUSH17 0x61636974793D22302E3035222F3E3C7061 PUSH21 0x682069643D227032352220643D224D313533203135 CALLVALUE 0x4C BALANCE CALLDATALOAD CALLDATASIZE KECCAK256 BALANCE CALLDATALOAD BALANCE 0x4C BALANCE CALLDATALOAD CODECOPY KECCAK256 BALANCE CALLDATALOAD CALLVALUE JUMP BALANCE CALLDATACOPY CALLVALUE 0x4C BALANCE CALLDATALOAD CALLDATASIZE KECCAK256 BALANCE CALLDATACOPY CALLDATACOPY 0x4C BALANCE CALLDATALOAD CALLER KECCAK256 BALANCE CALLDATACOPY CALLVALUE JUMP BALANCE CALLDATALOAD CALLVALUE GAS 0x22 KECCAK256 PUSH7 0x696C6C3D227768 PUSH10 0x7465222066696C6C2D6F PUSH17 0x61636974793D22302E3035222F3E3C7061 PUSH21 0x682069643D227032362220643D224D313831203135 CALLVALUE 0x4C BALANCE CODESIZE CALLVALUE KECCAK256 BALANCE CALLDATALOAD BALANCE 0x4C BALANCE CODESIZE CALLDATACOPY KECCAK256 BALANCE CALLDATALOAD CALLVALUE JUMP BALANCE CALLDATACOPY CALLVALUE 0x4C BALANCE CODESIZE CALLVALUE KECCAK256 BALANCE CALLDATACOPY CALLDATACOPY 0x4C BALANCE CODESIZE BALANCE KECCAK256 BALANCE CALLDATACOPY CALLVALUE JUMP BALANCE CALLDATALOAD CALLVALUE GAS 0x22 KECCAK256 PUSH7 0x696C6C3D227768 PUSH10 0x7465222066696C6C2D6F PUSH17 0x61636974793D22302E3035222F3E3C7061 PUSH21 0x682069643D227032372220643D224D313830203137 CALLDATALOAD 0x4C BALANCE CODESIZE CALLER KECCAK256 BALANCE CALLDATACOPY CODESIZE 0x4C BALANCE CODESIZE ADDRESS KECCAK256 BALANCE CODESIZE BALANCE 0x4C BALANCE CALLDATASIZE ADDRESS KECCAK256 BALANCE CODESIZE BALANCE 0x4C BALANCE CALLDATALOAD CALLDATACOPY KECCAK256 BALANCE CALLDATACOPY CODESIZE 0x4C BALANCE CALLDATASIZE ADDRESS KECCAK256 BALANCE CALLDATACOPY CALLDATALOAD 0x4C BALANCE CODESIZE ADDRESS KECCAK256 BALANCE CALLDATACOPY CALLDATALOAD GAS 0x22 KECCAK256 PUSH7 0x696C6C3D227768 PUSH10 0x7465222066696C6C2D6F PUSH17 0x61636974793D22302E3035222F3E3C7061 PUSH21 0x682069643D227033312220643D224D323230203131 CODECOPY 0x4C ORIGIN ORIGIN CALLER KECCAK256 BALANCE ORIGIN ORIGIN 0x4C ORIGIN ORIGIN ADDRESS KECCAK256 BALANCE ORIGIN CALLDATALOAD 0x4C ORIGIN ADDRESS ADDRESS KECCAK256 BALANCE ORIGIN CALLDATALOAD 0x4C BALANCE CODECOPY CALLDATACOPY KECCAK256 BALANCE ORIGIN ORIGIN 0x4C ORIGIN ADDRESS ADDRESS KECCAK256 BALANCE BALANCE CODECOPY 0x4C ORIGIN ORIGIN ADDRESS KECCAK256 BALANCE BALANCE CODECOPY GAS 0x22 KECCAK256 PUSH7 0x696C6C3D227768 PUSH10 0x7465222066696C6C2D6F PUSH17 0x61636974793D22302E3035222F3E3C7061 PUSH21 0x682069643D227033322220643D224D313933203132 CALLDATASIZE 0x4C BALANCE CODECOPY CALLDATASIZE KECCAK256 BALANCE ORIGIN CALLER 0x4C BALANCE CODECOPY CODECOPY KECCAK256 BALANCE ORIGIN CALLDATASIZE JUMP BALANCE CALLVALUE CALLDATASIZE 0x4C BALANCE CODECOPY CALLDATASIZE KECCAK256 BALANCE CALLVALUE CODECOPY 0x4C BALANCE CODECOPY CALLER KECCAK256 BALANCE CALLVALUE CALLDATASIZE JUMP BALANCE ORIGIN CALLDATASIZE GAS 0x22 KECCAK256 PUSH7 0x696C6C3D227768 PUSH10 0x7465222066696C6C2D6F PUSH17 0x61636974793D22302E3035222F3E3C7061 PUSH21 0x682069643D227033332220643D224D323231203132 CALLDATASIZE 0x4C ORIGIN ORIGIN CALLVALUE KECCAK256 BALANCE ORIGIN CALLER 0x4C ORIGIN ORIGIN CALLDATACOPY KECCAK256 BALANCE ORIGIN CALLDATASIZE JUMP BALANCE CALLVALUE CALLDATASIZE 0x4C ORIGIN ORIGIN CALLVALUE KECCAK256 BALANCE CALLVALUE CODECOPY 0x4C ORIGIN ORIGIN BALANCE KECCAK256 BALANCE CALLVALUE CALLDATASIZE JUMP BALANCE ORIGIN CALLDATASIZE GAS 0x22 KECCAK256 PUSH7 0x696C6C3D227768 PUSH10 0x7465222066696C6C2D6F PUSH17 0x61636974793D22302E3035222F3E3C7061 PUSH21 0x682069643D227033342220643D224D323230203134 CALLDATACOPY 0x4C ORIGIN ORIGIN CALLER KECCAK256 BALANCE CALLDATALOAD ADDRESS 0x4C ORIGIN ORIGIN ADDRESS KECCAK256 BALANCE CALLDATALOAD CALLER 0x4C ORIGIN ADDRESS ADDRESS KECCAK256 BALANCE CALLDATALOAD CALLER 0x4C BALANCE CODECOPY CALLDATACOPY KECCAK256 BALANCE CALLDATALOAD ADDRESS 0x4C ORIGIN ADDRESS ADDRESS KECCAK256 BALANCE CALLVALUE CALLDATACOPY 0x4C ORIGIN ORIGIN ADDRESS KECCAK256 BALANCE CALLVALUE CALLDATACOPY GAS 0x22 KECCAK256 PUSH7 0x696C6C3D227768 PUSH10 0x7465222066696C6C2D6F PUSH17 0x61636974793D22302E3035222F3E3C7061 PUSH21 0x682069643D227033352220643D224D313933203135 CALLVALUE 0x4C BALANCE CODECOPY CALLDATASIZE KECCAK256 BALANCE CALLDATALOAD BALANCE 0x4C BALANCE CODECOPY CODECOPY KECCAK256 BALANCE CALLDATALOAD CALLVALUE JUMP BALANCE CALLDATACOPY CALLVALUE 0x4C BALANCE CODECOPY CALLDATASIZE KECCAK256 BALANCE CALLDATACOPY CALLDATACOPY 0x4C BALANCE CODECOPY CALLER KECCAK256 BALANCE CALLDATACOPY CALLVALUE JUMP BALANCE CALLDATALOAD CALLVALUE GAS 0x22 KECCAK256 PUSH7 0x696C6C3D227768 PUSH10 0x7465222066696C6C2D6F PUSH17 0x61636974793D22302E3035222F3E3C7061 PUSH21 0x682069643D227033362220643D224D323231203135 CALLVALUE 0x4C ORIGIN ORIGIN CALLVALUE KECCAK256 BALANCE CALLDATALOAD BALANCE 0x4C ORIGIN ORIGIN CALLDATACOPY KECCAK256 BALANCE CALLDATALOAD CALLVALUE JUMP BALANCE CALLDATACOPY CALLVALUE 0x4C ORIGIN ORIGIN CALLVALUE KECCAK256 BALANCE CALLDATACOPY CALLDATACOPY 0x4C ORIGIN ORIGIN BALANCE KECCAK256 BALANCE CALLDATACOPY CALLVALUE JUMP BALANCE CALLDATALOAD CALLVALUE GAS 0x22 KECCAK256 PUSH7 0x696C6C3D227768 PUSH10 0x7465222066696C6C2D6F PUSH17 0x61636974793D22302E3035222F3E3C7061 PUSH21 0x682069643D227033372220643D224D323230203137 CALLDATALOAD 0x4C ORIGIN ORIGIN CALLER KECCAK256 BALANCE CALLDATACOPY CODESIZE 0x4C ORIGIN ORIGIN ADDRESS KECCAK256 BALANCE CODESIZE BALANCE 0x4C ORIGIN ADDRESS ADDRESS KECCAK256 BALANCE CODESIZE BALANCE 0x4C BALANCE CODECOPY CALLDATACOPY KECCAK256 BALANCE CALLDATACOPY CODESIZE 0x4C ORIGIN ADDRESS ADDRESS KECCAK256 BALANCE CALLDATACOPY CALLDATALOAD 0x4C ORIGIN ORIGIN ADDRESS KECCAK256 BALANCE CALLDATACOPY CALLDATALOAD GAS 0x22 KECCAK256 PUSH7 0x696C6C3D227768 PUSH10 0x7465222066696C6C2D6F PUSH17 0x61636974793D22302E3035222F3E3C7374 PUSH26 0x6C653EA26469706673582212207C4B28E917F602C73E292140D0 0xE1 0xAE SWAP14 0xBD CHAINID 0x25 DUP3 GASPRICE PUSH9 0xC30C14D268D2516BCF 0xAD PUSH5 0x736F6C6343 STOP ADDMOD SLT STOP CALLER "
				},
				"gasEstimates": {
					"creation": {
						"codeDepositCost": "1918800",
						"executionCost": "2055",
						"totalCost": "1920855"
					},
					"external": {
						"renderSvg(uint256,uint256[3])": "infinite"
					},
					"internal": {
						"getNumberStyle(uint256,uint256)": "infinite",
						"getNumbers(uint256,uint256)": "infinite"
					}
				},
				"methodIdentifiers": {
					"renderSvg(uint256,uint256[3])": "15468029"
				}
			},
			"storageLayout": {
				"storage": [],
				"types": null
			},
			"userdoc": {
				"kind": "user",
				"methods": {},
				"version": 1
			}
		}
	}
}