{
	"Utilities.sol": {
		"utils": {
			"abi": [
				{
					"inputs": [
						{
							"internalType": "uint256",
							"name": "input",
							"type": "uint256"
						},
						{
							"internalType": "uint256",
							"name": "min",
							"type": "uint256"
						},
						{
							"internalType": "uint256",
							"name": "max",
							"type": "uint256"
						}
					],
					"name": "random",
					"outputs": [
						{
							"internalType": "uint256",
							"name": "",
							"type": "uint256"
						}
					],
					"stateMutability": "pure",
					"type": "function"
				}
			],
			"devdoc": {
				"kind": "dev",
				"methods": {},
				"version": 1
			},
			"evm": {
				"assembly": "    /* \"Utilities.sol\":1188:2805  library utils {... */\n  dataSize(sub_0)\n  dataOffset(sub_0)\n  0x0b\n  dup3\n  dup3\n  dup3\n  codecopy\n  dup1\n  mload\n  0x00\n  byte\n  0x73\n  eq\n  tag_1\n  jumpi\n  mstore(0x00, 0x4e487b7100000000000000000000000000000000000000000000000000000000)\n  mstore(0x04, 0x00)\n  revert(0x00, 0x24)\ntag_1:\n  mstore(0x00, address)\n  0x73\n  dup2\n  mstore8\n  dup3\n  dup2\n  return\nstop\n\nsub_0: assembly {\n        /* \"Utilities.sol\":1188:2805  library utils {... */\n      eq(address, deployTimeAddress())\n      mstore(0x40, 0x80)\n      jumpi(tag_1, lt(calldatasize, 0x04))\n      shr(0xe0, calldataload(0x00))\n      dup1\n      0x7299054c\n      eq\n      tag_2\n      jumpi\n    tag_1:\n      0x00\n      dup1\n      revert\n        /* \"Utilities.sol\":1819:2018  function random(uint input, uint min, uint max) public pure returns (uint) {... */\n    tag_2:\n      tag_3\n      0x04\n      dup1\n      calldatasize\n      sub\n      dup2\n      add\n      swap1\n      tag_4\n      swap2\n      swap1\n      tag_5\n      jump\t// in\n    tag_4:\n      tag_6\n      jump\t// in\n    tag_3:\n      mload(0x40)\n      tag_7\n      swap2\n      swap1\n      tag_8\n      jump\t// in\n    tag_7:\n      mload(0x40)\n      dup1\n      swap2\n      sub\n      swap1\n      return\n    tag_6:\n        /* \"Utilities.sol\":1888:1892  uint */\n      0x00\n        /* \"Utilities.sol\":1904:1918  uint randRange */\n      dup1\n        /* \"Utilities.sol\":1927:1930  min */\n      dup4\n        /* \"Utilities.sol\":1921:1924  max */\n      dup4\n        /* \"Utilities.sol\":1921:1930  max - min */\n      tag_10\n      swap2\n      swap1\n      tag_11\n      jump\t// in\n    tag_10:\n        /* \"Utilities.sol\":1904:1930  uint randRange = max - min */\n      swap1\n      pop\n        /* \"Utilities.sol\":2010:2011  1 */\n      0x01\n        /* \"Utilities.sol\":1997:2006  randRange */\n      dup2\n        /* \"Utilities.sol\":1986:1991  input */\n      dup7\n        /* \"Utilities.sol\":1969:1992  abi.encodePacked(input) */\n      add(0x20, mload(0x40))\n      tag_12\n      swap2\n      swap1\n      tag_13\n      jump\t// in\n    tag_12:\n      mload(0x40)\n      0x20\n      dup2\n      dup4\n      sub\n      sub\n      dup2\n      mstore\n      swap1\n      0x40\n      mstore\n        /* \"Utilities.sol\":1959:1993  keccak256(abi.encodePacked(input)) */\n      dup1\n      mload\n      swap1\n      0x20\n      add\n      keccak256\n        /* \"Utilities.sol\":1954:1994  uint(keccak256(abi.encodePacked(input))) */\n      0x00\n      shr\n        /* \"Utilities.sol\":1954:2006  uint(keccak256(abi.encodePacked(input))) % randRange */\n      tag_14\n      swap2\n      swap1\n      tag_15\n      jump\t// in\n    tag_14:\n        /* \"Utilities.sol\":1947:1950  max */\n      dup5\n        /* \"Utilities.sol\":1947:2007  max - (uint(keccak256(abi.encodePacked(input))) % randRange) */\n      tag_16\n      swap2\n      swap1\n      tag_11\n      jump\t// in\n    tag_16:\n        /* \"Utilities.sol\":1947:2011  max - (uint(keccak256(abi.encodePacked(input))) % randRange) - 1 */\n      tag_17\n      swap2\n      swap1\n      tag_11\n      jump\t// in\n    tag_17:\n        /* \"Utilities.sol\":1940:2011  return max - (uint(keccak256(abi.encodePacked(input))) % randRange) - 1 */\n      swap2\n      pop\n      pop\n        /* \"Utilities.sol\":1819:2018  function random(uint input, uint min, uint max) public pure returns (uint) {... */\n      swap4\n      swap3\n      pop\n      pop\n      pop\n      jump\t// out\n        /* \"#utility.yul\":88:205   */\n    tag_19:\n        /* \"#utility.yul\":197:198   */\n      0x00\n        /* \"#utility.yul\":194:195   */\n      dup1\n        /* \"#utility.yul\":187:199   */\n      revert\n        /* \"#utility.yul\":334:411   */\n    tag_21:\n        /* \"#utility.yul\":371:378   */\n      0x00\n        /* \"#utility.yul\":400:405   */\n      dup2\n        /* \"#utility.yul\":389:405   */\n      swap1\n      pop\n        /* \"#utility.yul\":334:411   */\n      swap2\n      swap1\n      pop\n      jump\t// out\n        /* \"#utility.yul\":417:539   */\n    tag_22:\n        /* \"#utility.yul\":490:514   */\n      tag_35\n        /* \"#utility.yul\":508:513   */\n      dup2\n        /* \"#utility.yul\":490:514   */\n      tag_21\n      jump\t// in\n    tag_35:\n        /* \"#utility.yul\":483:488   */\n      dup2\n        /* \"#utility.yul\":480:515   */\n      eq\n        /* \"#utility.yul\":470:533   */\n      tag_36\n      jumpi\n        /* \"#utility.yul\":529:530   */\n      0x00\n        /* \"#utility.yul\":526:527   */\n      dup1\n        /* \"#utility.yul\":519:531   */\n      revert\n        /* \"#utility.yul\":470:533   */\n    tag_36:\n        /* \"#utility.yul\":417:539   */\n      pop\n      jump\t// out\n        /* \"#utility.yul\":545:684   */\n    tag_23:\n        /* \"#utility.yul\":591:596   */\n      0x00\n        /* \"#utility.yul\":629:635   */\n      dup2\n        /* \"#utility.yul\":616:636   */\n      calldataload\n        /* \"#utility.yul\":607:636   */\n      swap1\n      pop\n        /* \"#utility.yul\":645:678   */\n      tag_38\n        /* \"#utility.yul\":672:677   */\n      dup2\n        /* \"#utility.yul\":645:678   */\n      tag_22\n      jump\t// in\n    tag_38:\n        /* \"#utility.yul\":545:684   */\n      swap3\n      swap2\n      pop\n      pop\n      jump\t// out\n        /* \"#utility.yul\":690:1309   */\n    tag_5:\n        /* \"#utility.yul\":767:773   */\n      0x00\n        /* \"#utility.yul\":775:781   */\n      dup1\n        /* \"#utility.yul\":783:789   */\n      0x00\n        /* \"#utility.yul\":832:834   */\n      0x60\n        /* \"#utility.yul\":820:829   */\n      dup5\n        /* \"#utility.yul\":811:818   */\n      dup7\n        /* \"#utility.yul\":807:830   */\n      sub\n        /* \"#utility.yul\":803:835   */\n      slt\n        /* \"#utility.yul\":800:919   */\n      iszero\n      tag_40\n      jumpi\n        /* \"#utility.yul\":838:917   */\n      tag_41\n      tag_19\n      jump\t// in\n    tag_41:\n        /* \"#utility.yul\":800:919   */\n    tag_40:\n        /* \"#utility.yul\":958:959   */\n      0x00\n        /* \"#utility.yul\":983:1036   */\n      tag_42\n        /* \"#utility.yul\":1028:1035   */\n      dup7\n        /* \"#utility.yul\":1019:1025   */\n      dup3\n        /* \"#utility.yul\":1008:1017   */\n      dup8\n        /* \"#utility.yul\":1004:1026   */\n      add\n        /* \"#utility.yul\":983:1036   */\n      tag_23\n      jump\t// in\n    tag_42:\n        /* \"#utility.yul\":973:1036   */\n      swap4\n      pop\n        /* \"#utility.yul\":929:1046   */\n      pop\n        /* \"#utility.yul\":1085:1087   */\n      0x20\n        /* \"#utility.yul\":1111:1164   */\n      tag_43\n        /* \"#utility.yul\":1156:1163   */\n      dup7\n        /* \"#utility.yul\":1147:1153   */\n      dup3\n        /* \"#utility.yul\":1136:1145   */\n      dup8\n        /* \"#utility.yul\":1132:1154   */\n      add\n        /* \"#utility.yul\":1111:1164   */\n      tag_23\n      jump\t// in\n    tag_43:\n        /* \"#utility.yul\":1101:1164   */\n      swap3\n      pop\n        /* \"#utility.yul\":1056:1174   */\n      pop\n        /* \"#utility.yul\":1213:1215   */\n      0x40\n        /* \"#utility.yul\":1239:1292   */\n      tag_44\n        /* \"#utility.yul\":1284:1291   */\n      dup7\n        /* \"#utility.yul\":1275:1281   */\n      dup3\n        /* \"#utility.yul\":1264:1273   */\n      dup8\n        /* \"#utility.yul\":1260:1282   */\n      add\n        /* \"#utility.yul\":1239:1292   */\n      tag_23\n      jump\t// in\n    tag_44:\n        /* \"#utility.yul\":1229:1292   */\n      swap2\n      pop\n        /* \"#utility.yul\":1184:1302   */\n      pop\n        /* \"#utility.yul\":690:1309   */\n      swap3\n      pop\n      swap3\n      pop\n      swap3\n      jump\t// out\n        /* \"#utility.yul\":1315:1441   */\n    tag_24:\n        /* \"#utility.yul\":1410:1434   */\n      tag_46\n        /* \"#utility.yul\":1428:1433   */\n      dup2\n        /* \"#utility.yul\":1410:1434   */\n      tag_21\n      jump\t// in\n    tag_46:\n        /* \"#utility.yul\":1405:1408   */\n      dup3\n        /* \"#utility.yul\":1398:1435   */\n      mstore\n        /* \"#utility.yul\":1315:1441   */\n      pop\n      pop\n      jump\t// out\n        /* \"#utility.yul\":1447:1685   */\n    tag_8:\n        /* \"#utility.yul\":1548:1552   */\n      0x00\n        /* \"#utility.yul\":1586:1588   */\n      0x20\n        /* \"#utility.yul\":1575:1584   */\n      dup3\n        /* \"#utility.yul\":1571:1589   */\n      add\n        /* \"#utility.yul\":1563:1589   */\n      swap1\n      pop\n        /* \"#utility.yul\":1599:1678   */\n      tag_48\n        /* \"#utility.yul\":1675:1676   */\n      0x00\n        /* \"#utility.yul\":1664:1673   */\n      dup4\n        /* \"#utility.yul\":1660:1677   */\n      add\n        /* \"#utility.yul\":1651:1657   */\n      dup5\n        /* \"#utility.yul\":1599:1678   */\n      tag_24\n      jump\t// in\n    tag_48:\n        /* \"#utility.yul\":1447:1685   */\n      swap3\n      swap2\n      pop\n      pop\n      jump\t// out\n        /* \"#utility.yul\":1691:1871   */\n    tag_25:\n        /* \"#utility.yul\":1739:1816   */\n      0x4e487b7100000000000000000000000000000000000000000000000000000000\n        /* \"#utility.yul\":1736:1737   */\n      0x00\n        /* \"#utility.yul\":1729:1817   */\n      mstore\n        /* \"#utility.yul\":1836:1840   */\n      0x11\n        /* \"#utility.yul\":1833:1834   */\n      0x04\n        /* \"#utility.yul\":1826:1841   */\n      mstore\n        /* \"#utility.yul\":1860:1864   */\n      0x24\n        /* \"#utility.yul\":1857:1858   */\n      0x00\n        /* \"#utility.yul\":1850:1865   */\n      revert\n        /* \"#utility.yul\":1877:2071   */\n    tag_11:\n        /* \"#utility.yul\":1917:1921   */\n      0x00\n        /* \"#utility.yul\":1937:1957   */\n      tag_51\n        /* \"#utility.yul\":1955:1956   */\n      dup3\n        /* \"#utility.yul\":1937:1957   */\n      tag_21\n      jump\t// in\n    tag_51:\n        /* \"#utility.yul\":1932:1957   */\n      swap2\n      pop\n        /* \"#utility.yul\":1971:1991   */\n      tag_52\n        /* \"#utility.yul\":1989:1990   */\n      dup4\n        /* \"#utility.yul\":1971:1991   */\n      tag_21\n      jump\t// in\n    tag_52:\n        /* \"#utility.yul\":1966:1991   */\n      swap3\n      pop\n        /* \"#utility.yul\":2015:2016   */\n      dup3\n        /* \"#utility.yul\":2012:2013   */\n      dup3\n        /* \"#utility.yul\":2008:2017   */\n      sub\n        /* \"#utility.yul\":2000:2017   */\n      swap1\n      pop\n        /* \"#utility.yul\":2039:2040   */\n      dup2\n        /* \"#utility.yul\":2033:2037   */\n      dup2\n        /* \"#utility.yul\":2030:2041   */\n      gt\n        /* \"#utility.yul\":2027:2064   */\n      iszero\n      tag_53\n      jumpi\n        /* \"#utility.yul\":2044:2062   */\n      tag_54\n      tag_25\n      jump\t// in\n    tag_54:\n        /* \"#utility.yul\":2027:2064   */\n    tag_53:\n        /* \"#utility.yul\":1877:2071   */\n      swap3\n      swap2\n      pop\n      pop\n      jump\t// out\n        /* \"#utility.yul\":2077:2156   */\n    tag_26:\n        /* \"#utility.yul\":2116:2123   */\n      0x00\n        /* \"#utility.yul\":2145:2150   */\n      dup2\n        /* \"#utility.yul\":2134:2150   */\n      swap1\n      pop\n        /* \"#utility.yul\":2077:2156   */\n      swap2\n      swap1\n      pop\n      jump\t// out\n        /* \"#utility.yul\":2162:2319   */\n    tag_27:\n        /* \"#utility.yul\":2267:2312   */\n      tag_57\n        /* \"#utility.yul\":2287:2311   */\n      tag_58\n        /* \"#utility.yul\":2305:2310   */\n      dup3\n        /* \"#utility.yul\":2287:2311   */\n      tag_21\n      jump\t// in\n    tag_58:\n        /* \"#utility.yul\":2267:2312   */\n      tag_26\n      jump\t// in\n    tag_57:\n        /* \"#utility.yul\":2262:2265   */\n      dup3\n        /* \"#utility.yul\":2255:2313   */\n      mstore\n        /* \"#utility.yul\":2162:2319   */\n      pop\n      pop\n      jump\t// out\n        /* \"#utility.yul\":2325:2581   */\n    tag_13:\n        /* \"#utility.yul\":2437:2440   */\n      0x00\n        /* \"#utility.yul\":2452:2527   */\n      tag_60\n        /* \"#utility.yul\":2523:2526   */\n      dup3\n        /* \"#utility.yul\":2514:2520   */\n      dup5\n        /* \"#utility.yul\":2452:2527   */\n      tag_27\n      jump\t// in\n    tag_60:\n        /* \"#utility.yul\":2552:2554   */\n      0x20\n        /* \"#utility.yul\":2547:2550   */\n      dup3\n        /* \"#utility.yul\":2543:2555   */\n      add\n        /* \"#utility.yul\":2536:2555   */\n      swap2\n      pop\n        /* \"#utility.yul\":2572:2575   */\n      dup2\n        /* \"#utility.yul\":2565:2575   */\n      swap1\n      pop\n        /* \"#utility.yul\":2325:2581   */\n      swap3\n      swap2\n      pop\n      pop\n      jump\t// out\n        /* \"#utility.yul\":2587:2767   */\n    tag_28:\n        /* \"#utility.yul\":2635:2712   */\n      0x4e487b7100000000000000000000000000000000000000000000000000000000\n        /* \"#utility.yul\":2632:2633   */\n      0x00\n        /* \"#utility.yul\":2625:2713   */\n      mstore\n        /* \"#utility.yul\":2732:2736   */\n      0x12\n        /* \"#utility.yul\":2729:2730   */\n      0x04\n        /* \"#utility.yul\":2722:2737   */\n      mstore\n        /* \"#utility.yul\":2756:2760   */\n      0x24\n        /* \"#utility.yul\":2753:2754   */\n      0x00\n        /* \"#utility.yul\":2746:2761   */\n      revert\n        /* \"#utility.yul\":2773:2949   */\n    tag_15:\n        /* \"#utility.yul\":2805:2806   */\n      0x00\n        /* \"#utility.yul\":2822:2842   */\n      tag_63\n        /* \"#utility.yul\":2840:2841   */\n      dup3\n        /* \"#utility.yul\":2822:2842   */\n      tag_21\n      jump\t// in\n    tag_63:\n        /* \"#utility.yul\":2817:2842   */\n      swap2\n      pop\n        /* \"#utility.yul\":2856:2876   */\n      tag_64\n        /* \"#utility.yul\":2874:2875   */\n      dup4\n        /* \"#utility.yul\":2856:2876   */\n      tag_21\n      jump\t// in\n    tag_64:\n        /* \"#utility.yul\":2851:2876   */\n      swap3\n      pop\n        /* \"#utility.yul\":2895:2896   */\n      dup3\n        /* \"#utility.yul\":2885:2920   */\n      tag_65\n      jumpi\n        /* \"#utility.yul\":2900:2918   */\n      tag_66\n      tag_28\n      jump\t// in\n    tag_66:\n        /* \"#utility.yul\":2885:2920   */\n    tag_65:\n        /* \"#utility.yul\":2941:2942   */\n      dup3\n        /* \"#utility.yul\":2938:2939   */\n      dup3\n        /* \"#utility.yul\":2934:2943   */\n      mod\n        /* \"#utility.yul\":2929:2943   */\n      swap1\n      pop\n        /* \"#utility.yul\":2773:2949   */\n      swap3\n      swap2\n      pop\n      pop\n      jump\t// out\n\n    auxdata: 0xa2646970667358221220e3aeb15781c3e3cfe911bd210cbb9625664317176eb014564d1f5f5f7f31a47a64736f6c63430008120033\n}\n",
				"bytecode": {
					"linkReferences": {},
					"object": "6102be610053600b82828239805160001a607314610046577f4e487b7100000000000000000000000000000000000000000000000000000000600052600060045260246000fd5b30600052607381538281f3fe73000000000000000000000000000000000000000030146080604052600436106100355760003560e01c80637299054c1461003a575b600080fd5b610054600480360381019061004f919061010c565b61006a565b604051610061919061016e565b60405180910390f35b600080838361007991906101b8565b90506001818660405160200161008f919061020d565b6040516020818303038152906040528051906020012060001c6100b29190610257565b846100bd91906101b8565b6100c791906101b8565b9150509392505050565b600080fd5b6000819050919050565b6100e9816100d6565b81146100f457600080fd5b50565b600081359050610106816100e0565b92915050565b600080600060608486031215610125576101246100d1565b5b6000610133868287016100f7565b9350506020610144868287016100f7565b9250506040610155868287016100f7565b9150509250925092565b610168816100d6565b82525050565b6000602082019050610183600083018461015f565b92915050565b7f4e487b7100000000000000000000000000000000000000000000000000000000600052601160045260246000fd5b60006101c3826100d6565b91506101ce836100d6565b92508282039050818111156101e6576101e5610189565b5b92915050565b6000819050919050565b610207610202826100d6565b6101ec565b82525050565b600061021982846101f6565b60208201915081905092915050565b7f4e487b7100000000000000000000000000000000000000000000000000000000600052601260045260246000fd5b6000610262826100d6565b915061026d836100d6565b92508261027d5761027c610228565b5b82820690509291505056fea2646970667358221220e3aeb15781c3e3cfe911bd210cbb9625664317176eb014564d1f5f5f7f31a47a64736f6c63430008120033",
					"opcodes": "PUSH2 0x2BE PUSH2 0x53 PUSH1 0xB DUP3 DUP3 DUP3 CODECOPY DUP1 MLOAD PUSH1 0x0 BYTE PUSH1 0x73 EQ PUSH2 0x46 JUMPI PUSH32 0x4E487B7100000000000000000000000000000000000000000000000000000000 PUSH1 0x0 MSTORE PUSH1 0x0 PUSH1 0x4 MSTORE PUSH1 0x24 PUSH1 0x0 REVERT JUMPDEST ADDRESS PUSH1 0x0 MSTORE PUSH1 0x73 DUP2 MSTORE8 DUP3 DUP2 RETURN INVALID PUSH20 0x0 ADDRESS EQ PUSH1 0x80 PUSH1 0x40 MSTORE PUSH1 0x4 CALLDATASIZE LT PUSH2 0x35 JUMPI PUSH1 0x0 CALLDATALOAD PUSH1 0xE0 SHR DUP1 PUSH4 0x7299054C EQ PUSH2 0x3A JUMPI JUMPDEST PUSH1 0x0 DUP1 REVERT JUMPDEST PUSH2 0x54 PUSH1 0x4 DUP1 CALLDATASIZE SUB DUP2 ADD SWAP1 PUSH2 0x4F SWAP2 SWAP1 PUSH2 0x10C JUMP JUMPDEST PUSH2 0x6A JUMP JUMPDEST PUSH1 0x40 MLOAD PUSH2 0x61 SWAP2 SWAP1 PUSH2 0x16E JUMP JUMPDEST PUSH1 0x40 MLOAD DUP1 SWAP2 SUB SWAP1 RETURN JUMPDEST PUSH1 0x0 DUP1 DUP4 DUP4 PUSH2 0x79 SWAP2 SWAP1 PUSH2 0x1B8 JUMP JUMPDEST SWAP1 POP PUSH1 0x1 DUP2 DUP7 PUSH1 0x40 MLOAD PUSH1 0x20 ADD PUSH2 0x8F SWAP2 SWAP1 PUSH2 0x20D JUMP JUMPDEST PUSH1 0x40 MLOAD PUSH1 0x20 DUP2 DUP4 SUB SUB DUP2 MSTORE SWAP1 PUSH1 0x40 MSTORE DUP1 MLOAD SWAP1 PUSH1 0x20 ADD KECCAK256 PUSH1 0x0 SHR PUSH2 0xB2 SWAP2 SWAP1 PUSH2 0x257 JUMP JUMPDEST DUP5 PUSH2 0xBD SWAP2 SWAP1 PUSH2 0x1B8 JUMP JUMPDEST PUSH2 0xC7 SWAP2 SWAP1 PUSH2 0x1B8 JUMP JUMPDEST SWAP2 POP POP SWAP4 SWAP3 POP POP POP JUMP JUMPDEST PUSH1 0x0 DUP1 REVERT JUMPDEST PUSH1 0x0 DUP2 SWAP1 POP SWAP2 SWAP1 POP JUMP JUMPDEST PUSH2 0xE9 DUP2 PUSH2 0xD6 JUMP JUMPDEST DUP2 EQ PUSH2 0xF4 JUMPI PUSH1 0x0 DUP1 REVERT JUMPDEST POP JUMP JUMPDEST PUSH1 0x0 DUP2 CALLDATALOAD SWAP1 POP PUSH2 0x106 DUP2 PUSH2 0xE0 JUMP JUMPDEST SWAP3 SWAP2 POP POP JUMP JUMPDEST PUSH1 0x0 DUP1 PUSH1 0x0 PUSH1 0x60 DUP5 DUP7 SUB SLT ISZERO PUSH2 0x125 JUMPI PUSH2 0x124 PUSH2 0xD1 JUMP JUMPDEST JUMPDEST PUSH1 0x0 PUSH2 0x133 DUP7 DUP3 DUP8 ADD PUSH2 0xF7 JUMP JUMPDEST SWAP4 POP POP PUSH1 0x20 PUSH2 0x144 DUP7 DUP3 DUP8 ADD PUSH2 0xF7 JUMP JUMPDEST SWAP3 POP POP PUSH1 0x40 PUSH2 0x155 DUP7 DUP3 DUP8 ADD PUSH2 0xF7 JUMP JUMPDEST SWAP2 POP POP SWAP3 POP SWAP3 POP SWAP3 JUMP JUMPDEST PUSH2 0x168 DUP2 PUSH2 0xD6 JUMP JUMPDEST DUP3 MSTORE POP POP JUMP JUMPDEST PUSH1 0x0 PUSH1 0x20 DUP3 ADD SWAP1 POP PUSH2 0x183 PUSH1 0x0 DUP4 ADD DUP5 PUSH2 0x15F JUMP JUMPDEST SWAP3 SWAP2 POP POP JUMP JUMPDEST PUSH32 0x4E487B7100000000000000000000000000000000000000000000000000000000 PUSH1 0x0 MSTORE PUSH1 0x11 PUSH1 0x4 MSTORE PUSH1 0x24 PUSH1 0x0 REVERT JUMPDEST PUSH1 0x0 PUSH2 0x1C3 DUP3 PUSH2 0xD6 JUMP JUMPDEST SWAP2 POP PUSH2 0x1CE DUP4 PUSH2 0xD6 JUMP JUMPDEST SWAP3 POP DUP3 DUP3 SUB SWAP1 POP DUP2 DUP2 GT ISZERO PUSH2 0x1E6 JUMPI PUSH2 0x1E5 PUSH2 0x189 JUMP JUMPDEST JUMPDEST SWAP3 SWAP2 POP POP JUMP JUMPDEST PUSH1 0x0 DUP2 SWAP1 POP SWAP2 SWAP1 POP JUMP JUMPDEST PUSH2 0x207 PUSH2 0x202 DUP3 PUSH2 0xD6 JUMP JUMPDEST PUSH2 0x1EC JUMP JUMPDEST DUP3 MSTORE POP POP JUMP JUMPDEST PUSH1 0x0 PUSH2 0x219 DUP3 DUP5 PUSH2 0x1F6 JUMP JUMPDEST PUSH1 0x20 DUP3 ADD SWAP2 POP DUP2 SWAP1 POP SWAP3 SWAP2 POP POP JUMP JUMPDEST PUSH32 0x4E487B7100000000000000000000000000000000000000000000000000000000 PUSH1 0x0 MSTORE PUSH1 0x12 PUSH1 0x4 MSTORE PUSH1 0x24 PUSH1 0x0 REVERT JUMPDEST PUSH1 0x0 PUSH2 0x262 DUP3 PUSH2 0xD6 JUMP JUMPDEST SWAP2 POP PUSH2 0x26D DUP4 PUSH2 0xD6 JUMP JUMPDEST SWAP3 POP DUP3 PUSH2 0x27D JUMPI PUSH2 0x27C PUSH2 0x228 JUMP JUMPDEST JUMPDEST DUP3 DUP3 MOD SWAP1 POP SWAP3 SWAP2 POP POP JUMP INVALID LOG2 PUSH5 0x6970667358 0x22 SLT KECCAK256 0xE3 0xAE 0xB1 JUMPI DUP2 0xC3 0xE3 0xCF 0xE9 GT 0xBD 0x21 0xC 0xBB SWAP7 0x25 PUSH7 0x4317176EB01456 0x4D 0x1F 0x5F 0x5F PUSH32 0x31A47A64736F6C63430008120033000000000000000000000000000000000000 "
				},
				"gasEstimates": {
					"creation": {
						"codeDepositCost": "140400",
						"executionCost": "212",
						"totalCost": "140612"
					},
					"external": {
						"random(uint256,uint256,uint256)": "infinite"
					},
					"internal": {
						"initValue(uint256)": "infinite",
						"minutesRemaining(uint256)": "infinite",
						"secondsRemaining(uint256)": "infinite",
						"uint2str(uint256)": "infinite"
					}
				},
				"methodIdentifiers": {
					"random(uint256,uint256,uint256)": "7299054c"
				}
			},
			"storageLayout": {
				"storage": [],
				"types": null
			},
			"userdoc": {
				"kind": "user",
				"methods": {},
				"version": 1
			}
		}
	}
}